{
	"CCIPReceiver_Unsafe.sol": {
		"CCIPReceiver_Unsafe": {
			"abi": [
				{
					"inputs": [
						{
							"internalType": "address",
							"name": "router",
							"type": "address"
						}
					],
					"stateMutability": "nonpayable",
					"type": "constructor"
				},
				{
					"inputs": [
						{
							"internalType": "address",
							"name": "router",
							"type": "address"
						}
					],
					"name": "InvalidRouter",
					"type": "error"
				},
				{
					"inputs": [
						{
							"components": [
								{
									"internalType": "bytes32",
									"name": "messageId",
									"type": "bytes32"
								},
								{
									"internalType": "uint64",
									"name": "sourceChainSelector",
									"type": "uint64"
								},
								{
									"internalType": "bytes",
									"name": "sender",
									"type": "bytes"
								},
								{
									"internalType": "bytes",
									"name": "data",
									"type": "bytes"
								},
								{
									"components": [
										{
											"internalType": "address",
											"name": "token",
											"type": "address"
										},
										{
											"internalType": "uint256",
											"name": "amount",
											"type": "uint256"
										}
									],
									"internalType": "struct Client.EVMTokenAmount[]",
									"name": "destTokenAmounts",
									"type": "tuple[]"
								}
							],
							"internalType": "struct Client.Any2EVMMessage",
							"name": "message",
							"type": "tuple"
						}
					],
					"name": "ccipReceive",
					"outputs": [],
					"stateMutability": "nonpayable",
					"type": "function"
				},
				{
					"inputs": [],
					"name": "getRouter",
					"outputs": [
						{
							"internalType": "address",
							"name": "",
							"type": "address"
						}
					],
					"stateMutability": "view",
					"type": "function"
				},
				{
					"inputs": [],
					"name": "latestMessage",
					"outputs": [
						{
							"internalType": "string",
							"name": "",
							"type": "string"
						}
					],
					"stateMutability": "view",
					"type": "function"
				},
				{
					"inputs": [],
					"name": "latestSender",
					"outputs": [
						{
							"internalType": "address",
							"name": "",
							"type": "address"
						}
					],
					"stateMutability": "view",
					"type": "function"
				},
				{
					"inputs": [
						{
							"internalType": "bytes4",
							"name": "interfaceId",
							"type": "bytes4"
						}
					],
					"name": "supportsInterface",
					"outputs": [
						{
							"internalType": "bool",
							"name": "",
							"type": "bool"
						}
					],
					"stateMutability": "pure",
					"type": "function"
				}
			],
			"devdoc": {
				"kind": "dev",
				"methods": {
					"ccipReceive((bytes32,uint64,bytes,bytes,(address,uint256)[]))": {
						"details": "Note ensure you check the msg.sender is the OffRampRouter",
						"params": {
							"message": "CCIP Message"
						}
					},
					"getRouter()": {
						"returns": {
							"_0": "i_router address"
						}
					},
					"supportsInterface(bytes4)": {
						"params": {
							"interfaceId": "The interfaceId to check"
						},
						"returns": {
							"_0": "true if the interfaceId is supported"
						}
					}
				},
				"version": 1
			},
			"evm": {
				"assembly": "    /* \"CCIPReceiver_Unsafe.sol\":244:633  contract CCIPReceiver_Unsafe is CCIPReceiver {... */\n  mstore(0x40, 0xa0)\n    /* \"CCIPReceiver_Unsafe.sol\":362:413  constructor(address router) CCIPReceiver(router) {} */\n  callvalue\n  dup1\n  iszero\n  tag_1\n  jumpi\n  0x00\n  dup1\n  revert\ntag_1:\n  pop\n  mload(0x40)\n  sub(codesize, bytecodeSize)\n  dup1\n  bytecodeSize\n  dup4\n  codecopy\n  dup2\n  dup2\n  add\n  0x40\n  mstore\n  dup2\n  add\n  swap1\n  tag_2\n  swap2\n  swap1\n  tag_3\n  jump\t// in\ntag_2:\n    /* \"CCIPReceiver_Unsafe.sol\":403:409  router */\n  dup1\n    /* \"@chainlink/contracts-ccip/src/v0.8/ccip/applications/CCIPReceiver.sol\":546:547  0 */\n  0x00\n    /* \"@chainlink/contracts-ccip/src/v0.8/ccip/applications/CCIPReceiver.sol\":528:548  router == address(0) */\n  0xffffffffffffffffffffffffffffffffffffffff\n  and\n    /* \"@chainlink/contracts-ccip/src/v0.8/ccip/applications/CCIPReceiver.sol\":528:534  router */\n  dup2\n    /* \"@chainlink/contracts-ccip/src/v0.8/ccip/applications/CCIPReceiver.sol\":528:548  router == address(0) */\n  0xffffffffffffffffffffffffffffffffffffffff\n  and\n  sub\n    /* \"@chainlink/contracts-ccip/src/v0.8/ccip/applications/CCIPReceiver.sol\":524:582  if (router == address(0)) revert InvalidRouter(address(0)) */\n  tag_7\n  jumpi\n    /* \"@chainlink/contracts-ccip/src/v0.8/ccip/applications/CCIPReceiver.sol\":579:580  0 */\n  0x00\n    /* \"@chainlink/contracts-ccip/src/v0.8/ccip/applications/CCIPReceiver.sol\":557:582  InvalidRouter(address(0)) */\n  mload(0x40)\n  0xd7f7333400000000000000000000000000000000000000000000000000000000\n  dup2\n  mstore\n  0x04\n  add\n  tag_8\n  swap2\n  swap1\n  tag_9\n  jump\t// in\ntag_8:\n  mload(0x40)\n  dup1\n  swap2\n  sub\n  swap1\n  revert\n    /* \"@chainlink/contracts-ccip/src/v0.8/ccip/applications/CCIPReceiver.sol\":524:582  if (router == address(0)) revert InvalidRouter(address(0)) */\ntag_7:\n    /* \"@chainlink/contracts-ccip/src/v0.8/ccip/applications/CCIPReceiver.sol\":599:605  router */\n  dup1\n    /* \"@chainlink/contracts-ccip/src/v0.8/ccip/applications/CCIPReceiver.sol\":588:605  i_router = router */\n  0xffffffffffffffffffffffffffffffffffffffff\n  and\n  0x80\n  dup2\n  0xffffffffffffffffffffffffffffffffffffffff\n  and\n  dup2\n  mstore\n  pop\n  pop\n    /* \"@chainlink/contracts-ccip/src/v0.8/ccip/applications/CCIPReceiver.sol\":490:610  constructor(address router) {... */\n  pop\n    /* \"CCIPReceiver_Unsafe.sol\":362:413  constructor(address router) CCIPReceiver(router) {} */\n  pop\n    /* \"CCIPReceiver_Unsafe.sol\":244:633  contract CCIPReceiver_Unsafe is CCIPReceiver {... */\n  jump(tag_11)\n    /* \"#utility.yul\":88:205   */\ntag_13:\n    /* \"#utility.yul\":197:198   */\n  0x00\n    /* \"#utility.yul\":194:195   */\n  dup1\n    /* \"#utility.yul\":187:199   */\n  revert\n    /* \"#utility.yul\":334:460   */\ntag_15:\n    /* \"#utility.yul\":371:378   */\n  0x00\n    /* \"#utility.yul\":411:453   */\n  0xffffffffffffffffffffffffffffffffffffffff\n    /* \"#utility.yul\":404:409   */\n  dup3\n    /* \"#utility.yul\":400:454   */\n  and\n    /* \"#utility.yul\":389:454   */\n  swap1\n  pop\n    /* \"#utility.yul\":334:460   */\n  swap2\n  swap1\n  pop\n  jump\t// out\n    /* \"#utility.yul\":466:562   */\ntag_16:\n    /* \"#utility.yul\":503:510   */\n  0x00\n    /* \"#utility.yul\":532:556   */\n  tag_26\n    /* \"#utility.yul\":550:555   */\n  dup3\n    /* \"#utility.yul\":532:556   */\n  tag_15\n  jump\t// in\ntag_26:\n    /* \"#utility.yul\":521:556   */\n  swap1\n  pop\n    /* \"#utility.yul\":466:562   */\n  swap2\n  swap1\n  pop\n  jump\t// out\n    /* \"#utility.yul\":568:690   */\ntag_17:\n    /* \"#utility.yul\":641:665   */\n  tag_28\n    /* \"#utility.yul\":659:664   */\n  dup2\n    /* \"#utility.yul\":641:665   */\n  tag_16\n  jump\t// in\ntag_28:\n    /* \"#utility.yul\":634:639   */\n  dup2\n    /* \"#utility.yul\":631:666   */\n  eq\n    /* \"#utility.yul\":621:684   */\n  tag_29\n  jumpi\n    /* \"#utility.yul\":680:681   */\n  0x00\n    /* \"#utility.yul\":677:678   */\n  dup1\n    /* \"#utility.yul\":670:682   */\n  revert\n    /* \"#utility.yul\":621:684   */\ntag_29:\n    /* \"#utility.yul\":568:690   */\n  pop\n  jump\t// out\n    /* \"#utility.yul\":696:839   */\ntag_18:\n    /* \"#utility.yul\":753:758   */\n  0x00\n    /* \"#utility.yul\":784:790   */\n  dup2\n    /* \"#utility.yul\":778:791   */\n  mload\n    /* \"#utility.yul\":769:791   */\n  swap1\n  pop\n    /* \"#utility.yul\":800:833   */\n  tag_31\n    /* \"#utility.yul\":827:832   */\n  dup2\n    /* \"#utility.yul\":800:833   */\n  tag_17\n  jump\t// in\ntag_31:\n    /* \"#utility.yul\":696:839   */\n  swap3\n  swap2\n  pop\n  pop\n  jump\t// out\n    /* \"#utility.yul\":845:1196   */\ntag_3:\n    /* \"#utility.yul\":915:921   */\n  0x00\n    /* \"#utility.yul\":964:966   */\n  0x20\n    /* \"#utility.yul\":952:961   */\n  dup3\n    /* \"#utility.yul\":943:950   */\n  dup5\n    /* \"#utility.yul\":939:962   */\n  sub\n    /* \"#utility.yul\":935:967   */\n  slt\n    /* \"#utility.yul\":932:1051   */\n  iszero\n  tag_33\n  jumpi\n    /* \"#utility.yul\":970:1049   */\n  tag_34\n  tag_13\n  jump\t// in\ntag_34:\n    /* \"#utility.yul\":932:1051   */\ntag_33:\n    /* \"#utility.yul\":1090:1091   */\n  0x00\n    /* \"#utility.yul\":1115:1179   */\n  tag_35\n    /* \"#utility.yul\":1171:1178   */\n  dup5\n    /* \"#utility.yul\":1162:1168   */\n  dup3\n    /* \"#utility.yul\":1151:1160   */\n  dup6\n    /* \"#utility.yul\":1147:1169   */\n  add\n    /* \"#utility.yul\":1115:1179   */\n  tag_18\n  jump\t// in\ntag_35:\n    /* \"#utility.yul\":1105:1179   */\n  swap2\n  pop\n    /* \"#utility.yul\":1061:1189   */\n  pop\n    /* \"#utility.yul\":845:1196   */\n  swap3\n  swap2\n  pop\n  pop\n  jump\t// out\n    /* \"#utility.yul\":1202:1320   */\ntag_19:\n    /* \"#utility.yul\":1289:1313   */\n  tag_37\n    /* \"#utility.yul\":1307:1312   */\n  dup2\n    /* \"#utility.yul\":1289:1313   */\n  tag_16\n  jump\t// in\ntag_37:\n    /* \"#utility.yul\":1284:1287   */\n  dup3\n    /* \"#utility.yul\":1277:1314   */\n  mstore\n    /* \"#utility.yul\":1202:1320   */\n  pop\n  pop\n  jump\t// out\n    /* \"#utility.yul\":1326:1548   */\ntag_9:\n    /* \"#utility.yul\":1419:1423   */\n  0x00\n    /* \"#utility.yul\":1457:1459   */\n  0x20\n    /* \"#utility.yul\":1446:1455   */\n  dup3\n    /* \"#utility.yul\":1442:1460   */\n  add\n    /* \"#utility.yul\":1434:1460   */\n  swap1\n  pop\n    /* \"#utility.yul\":1470:1541   */\n  tag_39\n    /* \"#utility.yul\":1538:1539   */\n  0x00\n    /* \"#utility.yul\":1527:1536   */\n  dup4\n    /* \"#utility.yul\":1523:1540   */\n  add\n    /* \"#utility.yul\":1514:1520   */\n  dup5\n    /* \"#utility.yul\":1470:1541   */\n  tag_19\n  jump\t// in\ntag_39:\n    /* \"#utility.yul\":1326:1548   */\n  swap3\n  swap2\n  pop\n  pop\n  jump\t// out\n    /* \"CCIPReceiver_Unsafe.sol\":244:633  contract CCIPReceiver_Unsafe is CCIPReceiver {... */\ntag_11:\n  mload(0x80)\n  codecopy(0x00, dataOffset(sub_0), dataSize(sub_0))\n  0x00\n  assignImmutable(\"0x5c4c6aa067b6f8e6cb38e6ab843832a94d1712d661a04d73c517d6a1931a9e5d\")\n  return(0x00, dataSize(sub_0))\nstop\n\nsub_0: assembly {\n        /* \"CCIPReceiver_Unsafe.sol\":244:633  contract CCIPReceiver_Unsafe is CCIPReceiver {... */\n      mstore(0x40, 0x80)\n      callvalue\n      dup1\n      iszero\n      tag_1\n      jumpi\n      0x00\n      dup1\n      revert\n    tag_1:\n      pop\n      jumpi(tag_2, lt(calldatasize, 0x04))\n      shr(0xe0, calldataload(0x00))\n      dup1\n      0x01ffc9a7\n      eq\n      tag_3\n      jumpi\n      dup1\n      0x34a07798\n      eq\n      tag_4\n      jumpi\n      dup1\n      0x85572ffb\n      eq\n      tag_5\n      jumpi\n      dup1\n      0xb0f479a1\n      eq\n      tag_6\n      jumpi\n      dup1\n      0xe1214815\n      eq\n      tag_7\n      jumpi\n    tag_2:\n      0x00\n      dup1\n      revert\n        /* \"@chainlink/contracts-ccip/src/v0.8/ccip/applications/CCIPReceiver.sol\":761:962  function supportsInterface(bytes4 interfaceId) public pure override returns (bool) {... */\n    tag_3:\n      tag_8\n      0x04\n      dup1\n      calldatasize\n      sub\n      dup2\n      add\n      swap1\n      tag_9\n      swap2\n      swap1\n      tag_10\n      jump\t// in\n    tag_9:\n      tag_11\n      jump\t// in\n    tag_8:\n      mload(0x40)\n      tag_12\n      swap2\n      swap1\n      tag_13\n      jump\t// in\n    tag_12:\n      mload(0x40)\n      dup1\n      swap2\n      sub\n      swap1\n      return\n        /* \"CCIPReceiver_Unsafe.sol\":328:355  string public latestMessage */\n    tag_4:\n      tag_14\n      tag_15\n      jump\t// in\n    tag_14:\n      mload(0x40)\n      tag_16\n      swap2\n      swap1\n      tag_17\n      jump\t// in\n    tag_16:\n      mload(0x40)\n      dup1\n      swap2\n      sub\n      swap1\n      return\n        /* \"@chainlink/contracts-ccip/src/v0.8/ccip/applications/CCIPReceiver.sol\":1008:1138  function ccipReceive(Client.Any2EVMMessage calldata message) external virtual override onlyRouter {... */\n    tag_5:\n      tag_18\n      0x04\n      dup1\n      calldatasize\n      sub\n      dup2\n      add\n      swap1\n      tag_19\n      swap2\n      swap1\n      tag_20\n      jump\t// in\n    tag_19:\n      tag_21\n      jump\t// in\n    tag_18:\n      stop\n        /* \"@chainlink/contracts-ccip/src/v0.8/ccip/applications/CCIPReceiver.sol\":1550:1636  function getRouter() public view returns (address) {... */\n    tag_6:\n      tag_22\n      tag_23\n      jump\t// in\n    tag_22:\n      mload(0x40)\n      tag_24\n      swap2\n      swap1\n      tag_25\n      jump\t// in\n    tag_24:\n      mload(0x40)\n      dup1\n      swap2\n      sub\n      swap1\n      return\n        /* \"CCIPReceiver_Unsafe.sol\":295:322  address public latestSender */\n    tag_7:\n      tag_26\n      tag_27\n      jump\t// in\n    tag_26:\n      mload(0x40)\n      tag_28\n      swap2\n      swap1\n      tag_25\n      jump\t// in\n    tag_28:\n      mload(0x40)\n      dup1\n      swap2\n      sub\n      swap1\n      return\n        /* \"@chainlink/contracts-ccip/src/v0.8/ccip/applications/CCIPReceiver.sol\":761:962  function supportsInterface(bytes4 interfaceId) public pure override returns (bool) {... */\n    tag_11:\n        /* \"@chainlink/contracts-ccip/src/v0.8/ccip/applications/CCIPReceiver.sol\":838:842  bool */\n      0x00\n        /* \"@chainlink/contracts-ccip/src/v0.8/ccip/applications/CCIPReceiver.sol\":872:913  type(IAny2EVMMessageReceiver).interfaceId */\n      0x85572ffb00000000000000000000000000000000000000000000000000000000\n        /* \"@chainlink/contracts-ccip/src/v0.8/ccip/applications/CCIPReceiver.sol\":857:913  interfaceId == type(IAny2EVMMessageReceiver).interfaceId */\n      not(0xffffffffffffffffffffffffffffffffffffffffffffffffffffffff)\n      and\n        /* \"@chainlink/contracts-ccip/src/v0.8/ccip/applications/CCIPReceiver.sol\":857:868  interfaceId */\n      dup3\n        /* \"@chainlink/contracts-ccip/src/v0.8/ccip/applications/CCIPReceiver.sol\":857:913  interfaceId == type(IAny2EVMMessageReceiver).interfaceId */\n      not(0xffffffffffffffffffffffffffffffffffffffffffffffffffffffff)\n      and\n      eq\n        /* \"@chainlink/contracts-ccip/src/v0.8/ccip/applications/CCIPReceiver.sol\":857:957  interfaceId == type(IAny2EVMMessageReceiver).interfaceId || interfaceId == type(IERC165).interfaceId */\n      dup1\n      tag_30\n      jumpi\n      pop\n        /* \"@chainlink/contracts-ccip/src/v0.8/ccip/applications/CCIPReceiver.sol\":932:957  type(IERC165).interfaceId */\n      0x01ffc9a700000000000000000000000000000000000000000000000000000000\n        /* \"@chainlink/contracts-ccip/src/v0.8/ccip/applications/CCIPReceiver.sol\":917:957  interfaceId == type(IERC165).interfaceId */\n      not(0xffffffffffffffffffffffffffffffffffffffffffffffffffffffff)\n      and\n        /* \"@chainlink/contracts-ccip/src/v0.8/ccip/applications/CCIPReceiver.sol\":917:928  interfaceId */\n      dup3\n        /* \"@chainlink/contracts-ccip/src/v0.8/ccip/applications/CCIPReceiver.sol\":917:957  interfaceId == type(IERC165).interfaceId */\n      not(0xffffffffffffffffffffffffffffffffffffffffffffffffffffffff)\n      and\n      eq\n        /* \"@chainlink/contracts-ccip/src/v0.8/ccip/applications/CCIPReceiver.sol\":857:957  interfaceId == type(IAny2EVMMessageReceiver).interfaceId || interfaceId == type(IERC165).interfaceId */\n    tag_30:\n        /* \"@chainlink/contracts-ccip/src/v0.8/ccip/applications/CCIPReceiver.sol\":850:957  return interfaceId == type(IAny2EVMMessageReceiver).interfaceId || interfaceId == type(IERC165).interfaceId */\n      swap1\n      pop\n        /* \"@chainlink/contracts-ccip/src/v0.8/ccip/applications/CCIPReceiver.sol\":761:962  function supportsInterface(bytes4 interfaceId) public pure override returns (bool) {... */\n      swap2\n      swap1\n      pop\n      jump\t// out\n        /* \"CCIPReceiver_Unsafe.sol\":328:355  string public latestMessage */\n    tag_15:\n      0x01\n      dup1\n      sload\n      tag_31\n      swap1\n      tag_32\n      jump\t// in\n    tag_31:\n      dup1\n      0x1f\n      add\n      0x20\n      dup1\n      swap2\n      div\n      mul\n      0x20\n      add\n      mload(0x40)\n      swap1\n      dup2\n      add\n      0x40\n      mstore\n      dup1\n      swap3\n      swap2\n      swap1\n      dup2\n      dup2\n      mstore\n      0x20\n      add\n      dup3\n      dup1\n      sload\n      tag_33\n      swap1\n      tag_32\n      jump\t// in\n    tag_33:\n      dup1\n      iszero\n      tag_34\n      jumpi\n      dup1\n      0x1f\n      lt\n      tag_35\n      jumpi\n      0x0100\n      dup1\n      dup4\n      sload\n      div\n      mul\n      dup4\n      mstore\n      swap2\n      0x20\n      add\n      swap2\n      jump(tag_34)\n    tag_35:\n      dup3\n      add\n      swap2\n      swap1\n      0x00\n      mstore\n      keccak256(0x00, 0x20)\n      swap1\n    tag_36:\n      dup2\n      sload\n      dup2\n      mstore\n      swap1\n      0x01\n      add\n      swap1\n      0x20\n      add\n      dup1\n      dup4\n      gt\n      tag_36\n      jumpi\n      dup3\n      swap1\n      sub\n      0x1f\n      and\n      dup3\n      add\n      swap2\n    tag_34:\n      pop\n      pop\n      pop\n      pop\n      pop\n      dup2\n      jump\t// out\n        /* \"@chainlink/contracts-ccip/src/v0.8/ccip/applications/CCIPReceiver.sol\":1008:1138  function ccipReceive(Client.Any2EVMMessage calldata message) external virtual override onlyRouter {... */\n    tag_21:\n        /* \"@chainlink/contracts-ccip/src/v0.8/ccip/applications/CCIPReceiver.sol\":1790:1798  i_router */\n      immutable(\"0x5c4c6aa067b6f8e6cb38e6ab843832a94d1712d661a04d73c517d6a1931a9e5d\")\n        /* \"@chainlink/contracts-ccip/src/v0.8/ccip/applications/CCIPReceiver.sol\":1768:1799  msg.sender != address(i_router) */\n      0xffffffffffffffffffffffffffffffffffffffff\n      and\n        /* \"@chainlink/contracts-ccip/src/v0.8/ccip/applications/CCIPReceiver.sol\":1768:1778  msg.sender */\n      caller\n        /* \"@chainlink/contracts-ccip/src/v0.8/ccip/applications/CCIPReceiver.sol\":1768:1799  msg.sender != address(i_router) */\n      0xffffffffffffffffffffffffffffffffffffffff\n      and\n      eq\n        /* \"@chainlink/contracts-ccip/src/v0.8/ccip/applications/CCIPReceiver.sol\":1764:1833  if (msg.sender != address(i_router)) revert InvalidRouter(msg.sender) */\n      tag_38\n      jumpi\n        /* \"@chainlink/contracts-ccip/src/v0.8/ccip/applications/CCIPReceiver.sol\":1822:1832  msg.sender */\n      caller\n        /* \"@chainlink/contracts-ccip/src/v0.8/ccip/applications/CCIPReceiver.sol\":1808:1833  InvalidRouter(msg.sender) */\n      mload(0x40)\n      0xd7f7333400000000000000000000000000000000000000000000000000000000\n      dup2\n      mstore\n      0x04\n      add\n      tag_39\n      swap2\n      swap1\n      tag_25\n      jump\t// in\n    tag_39:\n      mload(0x40)\n      dup1\n      swap2\n      sub\n      swap1\n      revert\n        /* \"@chainlink/contracts-ccip/src/v0.8/ccip/applications/CCIPReceiver.sol\":1764:1833  if (msg.sender != address(i_router)) revert InvalidRouter(msg.sender) */\n    tag_38:\n        /* \"@chainlink/contracts-ccip/src/v0.8/ccip/applications/CCIPReceiver.sol\":1112:1133  _ccipReceive(message) */\n      tag_41\n        /* \"@chainlink/contracts-ccip/src/v0.8/ccip/applications/CCIPReceiver.sol\":1125:1132  message */\n      dup2\n        /* \"@chainlink/contracts-ccip/src/v0.8/ccip/applications/CCIPReceiver.sol\":1112:1133  _ccipReceive(message) */\n      tag_42\n      swap1\n      tag_43\n      jump\t// in\n    tag_42:\n        /* \"@chainlink/contracts-ccip/src/v0.8/ccip/applications/CCIPReceiver.sol\":1112:1124  _ccipReceive */\n      tag_44\n        /* \"@chainlink/contracts-ccip/src/v0.8/ccip/applications/CCIPReceiver.sol\":1112:1133  _ccipReceive(message) */\n      jump\t// in\n    tag_41:\n        /* \"@chainlink/contracts-ccip/src/v0.8/ccip/applications/CCIPReceiver.sol\":1008:1138  function ccipReceive(Client.Any2EVMMessage calldata message) external virtual override onlyRouter {... */\n      pop\n      jump\t// out\n        /* \"@chainlink/contracts-ccip/src/v0.8/ccip/applications/CCIPReceiver.sol\":1550:1636  function getRouter() public view returns (address) {... */\n    tag_23:\n        /* \"@chainlink/contracts-ccip/src/v0.8/ccip/applications/CCIPReceiver.sol\":1592:1599  address */\n      0x00\n        /* \"@chainlink/contracts-ccip/src/v0.8/ccip/applications/CCIPReceiver.sol\":1622:1630  i_router */\n      immutable(\"0x5c4c6aa067b6f8e6cb38e6ab843832a94d1712d661a04d73c517d6a1931a9e5d\")\n        /* \"@chainlink/contracts-ccip/src/v0.8/ccip/applications/CCIPReceiver.sol\":1607:1631  return address(i_router) */\n      swap1\n      pop\n        /* \"@chainlink/contracts-ccip/src/v0.8/ccip/applications/CCIPReceiver.sol\":1550:1636  function getRouter() public view returns (address) {... */\n      swap1\n      jump\t// out\n        /* \"CCIPReceiver_Unsafe.sol\":295:322  address public latestSender */\n    tag_27:\n      0x00\n      dup1\n      sload\n      swap1\n      0x0100\n      exp\n      swap1\n      div\n      0xffffffffffffffffffffffffffffffffffffffff\n      and\n      dup2\n      jump\t// out\n        /* \"CCIPReceiver_Unsafe.sol\":423:631  function _ccipReceive(Client.Any2EVMMessage memory message) internal override {... */\n    tag_44:\n        /* \"CCIPReceiver_Unsafe.sol\":537:544  message */\n      dup1\n        /* \"CCIPReceiver_Unsafe.sol\":537:551  message.sender */\n      0x40\n      add\n      mload\n        /* \"CCIPReceiver_Unsafe.sol\":526:563  abi.decode(message.sender, (address)) */\n      dup1\n      0x20\n      add\n      swap1\n      mload\n      dup2\n      add\n      swap1\n      tag_47\n      swap2\n      swap1\n      tag_48\n      jump\t// in\n    tag_47:\n        /* \"CCIPReceiver_Unsafe.sol\":511:523  latestSender */\n      0x00\n      dup1\n        /* \"CCIPReceiver_Unsafe.sol\":511:563  latestSender = abi.decode(message.sender, (address)) */\n      0x0100\n      exp\n      dup2\n      sload\n      dup2\n      0xffffffffffffffffffffffffffffffffffffffff\n      mul\n      not\n      and\n      swap1\n      dup4\n      0xffffffffffffffffffffffffffffffffffffffff\n      and\n      mul\n      or\n      swap1\n      sstore\n      pop\n        /* \"CCIPReceiver_Unsafe.sol\":600:607  message */\n      dup1\n        /* \"CCIPReceiver_Unsafe.sol\":600:612  message.data */\n      0x60\n      add\n      mload\n        /* \"CCIPReceiver_Unsafe.sol\":589:624  abi.decode(message.data , (string)) */\n      dup1\n      0x20\n      add\n      swap1\n      mload\n      dup2\n      add\n      swap1\n      tag_49\n      swap2\n      swap1\n      tag_50\n      jump\t// in\n    tag_49:\n        /* \"CCIPReceiver_Unsafe.sol\":573:586  latestMessage */\n      0x01\n        /* \"CCIPReceiver_Unsafe.sol\":573:624  latestMessage = abi.decode(message.data , (string)) */\n      swap1\n      dup2\n      tag_51\n      swap2\n      swap1\n      tag_52\n      jump\t// in\n    tag_51:\n      pop\n        /* \"CCIPReceiver_Unsafe.sol\":423:631  function _ccipReceive(Client.Any2EVMMessage memory message) internal override {... */\n      pop\n      jump\t// out\n        /* \"#utility.yul\":7:82   */\n    tag_53:\n        /* \"#utility.yul\":40:46   */\n      0x00\n        /* \"#utility.yul\":73:75   */\n      0x40\n        /* \"#utility.yul\":67:76   */\n      mload\n        /* \"#utility.yul\":57:76   */\n      swap1\n      pop\n        /* \"#utility.yul\":7:82   */\n      swap1\n      jump\t// out\n        /* \"#utility.yul\":88:205   */\n    tag_54:\n        /* \"#utility.yul\":197:198   */\n      0x00\n        /* \"#utility.yul\":194:195   */\n      dup1\n        /* \"#utility.yul\":187:199   */\n      revert\n        /* \"#utility.yul\":211:328   */\n    tag_55:\n        /* \"#utility.yul\":320:321   */\n      0x00\n        /* \"#utility.yul\":317:318   */\n      dup1\n        /* \"#utility.yul\":310:322   */\n      revert\n        /* \"#utility.yul\":334:483   */\n    tag_56:\n        /* \"#utility.yul\":370:377   */\n      0x00\n        /* \"#utility.yul\":410:476   */\n      0xffffffff00000000000000000000000000000000000000000000000000000000\n        /* \"#utility.yul\":403:408   */\n      dup3\n        /* \"#utility.yul\":399:477   */\n      and\n        /* \"#utility.yul\":388:477   */\n      swap1\n      pop\n        /* \"#utility.yul\":334:483   */\n      swap2\n      swap1\n      pop\n      jump\t// out\n        /* \"#utility.yul\":489:609   */\n    tag_57:\n        /* \"#utility.yul\":561:584   */\n      tag_127\n        /* \"#utility.yul\":578:583   */\n      dup2\n        /* \"#utility.yul\":561:584   */\n      tag_56\n      jump\t// in\n    tag_127:\n        /* \"#utility.yul\":554:559   */\n      dup2\n        /* \"#utility.yul\":551:585   */\n      eq\n        /* \"#utility.yul\":541:603   */\n      tag_128\n      jumpi\n        /* \"#utility.yul\":599:600   */\n      0x00\n        /* \"#utility.yul\":596:597   */\n      dup1\n        /* \"#utility.yul\":589:601   */\n      revert\n        /* \"#utility.yul\":541:603   */\n    tag_128:\n        /* \"#utility.yul\":489:609   */\n      pop\n      jump\t// out\n        /* \"#utility.yul\":615:752   */\n    tag_58:\n        /* \"#utility.yul\":660:665   */\n      0x00\n        /* \"#utility.yul\":698:704   */\n      dup2\n        /* \"#utility.yul\":685:705   */\n      calldataload\n        /* \"#utility.yul\":676:705   */\n      swap1\n      pop\n        /* \"#utility.yul\":714:746   */\n      tag_130\n        /* \"#utility.yul\":740:745   */\n      dup2\n        /* \"#utility.yul\":714:746   */\n      tag_57\n      jump\t// in\n    tag_130:\n        /* \"#utility.yul\":615:752   */\n      swap3\n      swap2\n      pop\n      pop\n      jump\t// out\n        /* \"#utility.yul\":758:1085   */\n    tag_10:\n        /* \"#utility.yul\":816:822   */\n      0x00\n        /* \"#utility.yul\":865:867   */\n      0x20\n        /* \"#utility.yul\":853:862   */\n      dup3\n        /* \"#utility.yul\":844:851   */\n      dup5\n        /* \"#utility.yul\":840:863   */\n      sub\n        /* \"#utility.yul\":836:868   */\n      slt\n        /* \"#utility.yul\":833:952   */\n      iszero\n      tag_132\n      jumpi\n        /* \"#utility.yul\":871:950   */\n      tag_133\n      tag_54\n      jump\t// in\n    tag_133:\n        /* \"#utility.yul\":833:952   */\n    tag_132:\n        /* \"#utility.yul\":991:992   */\n      0x00\n        /* \"#utility.yul\":1016:1068   */\n      tag_134\n        /* \"#utility.yul\":1060:1067   */\n      dup5\n        /* \"#utility.yul\":1051:1057   */\n      dup3\n        /* \"#utility.yul\":1040:1049   */\n      dup6\n        /* \"#utility.yul\":1036:1058   */\n      add\n        /* \"#utility.yul\":1016:1068   */\n      tag_58\n      jump\t// in\n    tag_134:\n        /* \"#utility.yul\":1006:1068   */\n      swap2\n      pop\n        /* \"#utility.yul\":962:1078   */\n      pop\n        /* \"#utility.yul\":758:1085   */\n      swap3\n      swap2\n      pop\n      pop\n      jump\t// out\n        /* \"#utility.yul\":1091:1181   */\n    tag_59:\n        /* \"#utility.yul\":1125:1132   */\n      0x00\n        /* \"#utility.yul\":1168:1173   */\n      dup2\n        /* \"#utility.yul\":1161:1174   */\n      iszero\n        /* \"#utility.yul\":1154:1175   */\n      iszero\n        /* \"#utility.yul\":1143:1175   */\n      swap1\n      pop\n        /* \"#utility.yul\":1091:1181   */\n      swap2\n      swap1\n      pop\n      jump\t// out\n        /* \"#utility.yul\":1187:1296   */\n    tag_60:\n        /* \"#utility.yul\":1268:1289   */\n      tag_137\n        /* \"#utility.yul\":1283:1288   */\n      dup2\n        /* \"#utility.yul\":1268:1289   */\n      tag_59\n      jump\t// in\n    tag_137:\n        /* \"#utility.yul\":1263:1266   */\n      dup3\n        /* \"#utility.yul\":1256:1290   */\n      mstore\n        /* \"#utility.yul\":1187:1296   */\n      pop\n      pop\n      jump\t// out\n        /* \"#utility.yul\":1302:1512   */\n    tag_13:\n        /* \"#utility.yul\":1389:1393   */\n      0x00\n        /* \"#utility.yul\":1427:1429   */\n      0x20\n        /* \"#utility.yul\":1416:1425   */\n      dup3\n        /* \"#utility.yul\":1412:1430   */\n      add\n        /* \"#utility.yul\":1404:1430   */\n      swap1\n      pop\n        /* \"#utility.yul\":1440:1505   */\n      tag_139\n        /* \"#utility.yul\":1502:1503   */\n      0x00\n        /* \"#utility.yul\":1491:1500   */\n      dup4\n        /* \"#utility.yul\":1487:1504   */\n      add\n        /* \"#utility.yul\":1478:1484   */\n      dup5\n        /* \"#utility.yul\":1440:1505   */\n      tag_60\n      jump\t// in\n    tag_139:\n        /* \"#utility.yul\":1302:1512   */\n      swap3\n      swap2\n      pop\n      pop\n      jump\t// out\n        /* \"#utility.yul\":1518:1617   */\n    tag_61:\n        /* \"#utility.yul\":1570:1576   */\n      0x00\n        /* \"#utility.yul\":1604:1609   */\n      dup2\n        /* \"#utility.yul\":1598:1610   */\n      mload\n        /* \"#utility.yul\":1588:1610   */\n      swap1\n      pop\n        /* \"#utility.yul\":1518:1617   */\n      swap2\n      swap1\n      pop\n      jump\t// out\n        /* \"#utility.yul\":1623:1792   */\n    tag_62:\n        /* \"#utility.yul\":1707:1718   */\n      0x00\n        /* \"#utility.yul\":1741:1747   */\n      dup3\n        /* \"#utility.yul\":1736:1739   */\n      dup3\n        /* \"#utility.yul\":1729:1748   */\n      mstore\n        /* \"#utility.yul\":1781:1785   */\n      0x20\n        /* \"#utility.yul\":1776:1779   */\n      dup3\n        /* \"#utility.yul\":1772:1786   */\n      add\n        /* \"#utility.yul\":1757:1786   */\n      swap1\n      pop\n        /* \"#utility.yul\":1623:1792   */\n      swap3\n      swap2\n      pop\n      pop\n      jump\t// out\n        /* \"#utility.yul\":1798:2044   */\n    tag_63:\n        /* \"#utility.yul\":1879:1880   */\n      0x00\n        /* \"#utility.yul\":1889:2002   */\n    tag_143:\n        /* \"#utility.yul\":1903:1909   */\n      dup4\n        /* \"#utility.yul\":1900:1901   */\n      dup2\n        /* \"#utility.yul\":1897:1910   */\n      lt\n        /* \"#utility.yul\":1889:2002   */\n      iszero\n      tag_145\n      jumpi\n        /* \"#utility.yul\":1988:1989   */\n      dup1\n        /* \"#utility.yul\":1983:1986   */\n      dup3\n        /* \"#utility.yul\":1979:1990   */\n      add\n        /* \"#utility.yul\":1973:1991   */\n      mload\n        /* \"#utility.yul\":1969:1970   */\n      dup2\n        /* \"#utility.yul\":1964:1967   */\n      dup5\n        /* \"#utility.yul\":1960:1971   */\n      add\n        /* \"#utility.yul\":1953:1992   */\n      mstore\n        /* \"#utility.yul\":1925:1927   */\n      0x20\n        /* \"#utility.yul\":1922:1923   */\n      dup2\n        /* \"#utility.yul\":1918:1928   */\n      add\n        /* \"#utility.yul\":1913:1928   */\n      swap1\n      pop\n        /* \"#utility.yul\":1889:2002   */\n      jump(tag_143)\n    tag_145:\n        /* \"#utility.yul\":2036:2037   */\n      0x00\n        /* \"#utility.yul\":2027:2033   */\n      dup5\n        /* \"#utility.yul\":2022:2025   */\n      dup5\n        /* \"#utility.yul\":2018:2034   */\n      add\n        /* \"#utility.yul\":2011:2038   */\n      mstore\n        /* \"#utility.yul\":1860:2044   */\n      pop\n        /* \"#utility.yul\":1798:2044   */\n      pop\n      pop\n      pop\n      jump\t// out\n        /* \"#utility.yul\":2050:2152   */\n    tag_64:\n        /* \"#utility.yul\":2091:2097   */\n      0x00\n        /* \"#utility.yul\":2142:2144   */\n      0x1f\n        /* \"#utility.yul\":2138:2145   */\n      not\n        /* \"#utility.yul\":2133:2135   */\n      0x1f\n        /* \"#utility.yul\":2126:2131   */\n      dup4\n        /* \"#utility.yul\":2122:2136   */\n      add\n        /* \"#utility.yul\":2118:2146   */\n      and\n        /* \"#utility.yul\":2108:2146   */\n      swap1\n      pop\n        /* \"#utility.yul\":2050:2152   */\n      swap2\n      swap1\n      pop\n      jump\t// out\n        /* \"#utility.yul\":2158:2535   */\n    tag_65:\n        /* \"#utility.yul\":2246:2249   */\n      0x00\n        /* \"#utility.yul\":2274:2313   */\n      tag_148\n        /* \"#utility.yul\":2307:2312   */\n      dup3\n        /* \"#utility.yul\":2274:2313   */\n      tag_61\n      jump\t// in\n    tag_148:\n        /* \"#utility.yul\":2329:2400   */\n      tag_149\n        /* \"#utility.yul\":2393:2399   */\n      dup2\n        /* \"#utility.yul\":2388:2391   */\n      dup6\n        /* \"#utility.yul\":2329:2400   */\n      tag_62\n      jump\t// in\n    tag_149:\n        /* \"#utility.yul\":2322:2400   */\n      swap4\n      pop\n        /* \"#utility.yul\":2409:2474   */\n      tag_150\n        /* \"#utility.yul\":2467:2473   */\n      dup2\n        /* \"#utility.yul\":2462:2465   */\n      dup6\n        /* \"#utility.yul\":2455:2459   */\n      0x20\n        /* \"#utility.yul\":2448:2453   */\n      dup7\n        /* \"#utility.yul\":2444:2460   */\n      add\n        /* \"#utility.yul\":2409:2474   */\n      tag_63\n      jump\t// in\n    tag_150:\n        /* \"#utility.yul\":2499:2528   */\n      tag_151\n        /* \"#utility.yul\":2521:2527   */\n      dup2\n        /* \"#utility.yul\":2499:2528   */\n      tag_64\n      jump\t// in\n    tag_151:\n        /* \"#utility.yul\":2494:2497   */\n      dup5\n        /* \"#utility.yul\":2490:2529   */\n      add\n        /* \"#utility.yul\":2483:2529   */\n      swap2\n      pop\n        /* \"#utility.yul\":2250:2535   */\n      pop\n        /* \"#utility.yul\":2158:2535   */\n      swap3\n      swap2\n      pop\n      pop\n      jump\t// out\n        /* \"#utility.yul\":2541:2854   */\n    tag_17:\n        /* \"#utility.yul\":2654:2658   */\n      0x00\n        /* \"#utility.yul\":2692:2694   */\n      0x20\n        /* \"#utility.yul\":2681:2690   */\n      dup3\n        /* \"#utility.yul\":2677:2695   */\n      add\n        /* \"#utility.yul\":2669:2695   */\n      swap1\n      pop\n        /* \"#utility.yul\":2741:2750   */\n      dup2\n        /* \"#utility.yul\":2735:2739   */\n      dup2\n        /* \"#utility.yul\":2731:2751   */\n      sub\n        /* \"#utility.yul\":2727:2728   */\n      0x00\n        /* \"#utility.yul\":2716:2725   */\n      dup4\n        /* \"#utility.yul\":2712:2729   */\n      add\n        /* \"#utility.yul\":2705:2752   */\n      mstore\n        /* \"#utility.yul\":2769:2847   */\n      tag_153\n        /* \"#utility.yul\":2842:2846   */\n      dup2\n        /* \"#utility.yul\":2833:2839   */\n      dup5\n        /* \"#utility.yul\":2769:2847   */\n      tag_65\n      jump\t// in\n    tag_153:\n        /* \"#utility.yul\":2761:2847   */\n      swap1\n      pop\n        /* \"#utility.yul\":2541:2854   */\n      swap3\n      swap2\n      pop\n      pop\n      jump\t// out\n        /* \"#utility.yul\":2860:2977   */\n    tag_66:\n        /* \"#utility.yul\":2969:2970   */\n      0x00\n        /* \"#utility.yul\":2966:2967   */\n      dup1\n        /* \"#utility.yul\":2959:2971   */\n      revert\n        /* \"#utility.yul\":3019:3257   */\n    tag_67:\n        /* \"#utility.yul\":3098:3103   */\n      0x00\n        /* \"#utility.yul\":3139:3142   */\n      0xa0\n        /* \"#utility.yul\":3130:3136   */\n      dup3\n        /* \"#utility.yul\":3125:3128   */\n      dup5\n        /* \"#utility.yul\":3121:3137   */\n      sub\n        /* \"#utility.yul\":3117:3143   */\n      slt\n        /* \"#utility.yul\":3114:3227   */\n      iszero\n      tag_156\n      jumpi\n        /* \"#utility.yul\":3146:3225   */\n      tag_157\n      tag_66\n      jump\t// in\n    tag_157:\n        /* \"#utility.yul\":3114:3227   */\n    tag_156:\n        /* \"#utility.yul\":3245:3251   */\n      dup2\n        /* \"#utility.yul\":3236:3251   */\n      swap1\n      pop\n        /* \"#utility.yul\":3019:3257   */\n      swap3\n      swap2\n      pop\n      pop\n      jump\t// out\n        /* \"#utility.yul\":3263:3818   */\n    tag_20:\n        /* \"#utility.yul\":3355:3361   */\n      0x00\n        /* \"#utility.yul\":3404:3406   */\n      0x20\n        /* \"#utility.yul\":3392:3401   */\n      dup3\n        /* \"#utility.yul\":3383:3390   */\n      dup5\n        /* \"#utility.yul\":3379:3402   */\n      sub\n        /* \"#utility.yul\":3375:3407   */\n      slt\n        /* \"#utility.yul\":3372:3491   */\n      iszero\n      tag_159\n      jumpi\n        /* \"#utility.yul\":3410:3489   */\n      tag_160\n      tag_54\n      jump\t// in\n    tag_160:\n        /* \"#utility.yul\":3372:3491   */\n    tag_159:\n        /* \"#utility.yul\":3558:3559   */\n      0x00\n        /* \"#utility.yul\":3547:3556   */\n      dup3\n        /* \"#utility.yul\":3543:3560   */\n      add\n        /* \"#utility.yul\":3530:3561   */\n      calldataload\n        /* \"#utility.yul\":3588:3606   */\n      0xffffffffffffffff\n        /* \"#utility.yul\":3580:3586   */\n      dup2\n        /* \"#utility.yul\":3577:3607   */\n      gt\n        /* \"#utility.yul\":3574:3691   */\n      iszero\n      tag_161\n      jumpi\n        /* \"#utility.yul\":3610:3689   */\n      tag_162\n      tag_55\n      jump\t// in\n    tag_162:\n        /* \"#utility.yul\":3574:3691   */\n    tag_161:\n        /* \"#utility.yul\":3715:3801   */\n      tag_163\n        /* \"#utility.yul\":3793:3800   */\n      dup5\n        /* \"#utility.yul\":3784:3790   */\n      dup3\n        /* \"#utility.yul\":3773:3782   */\n      dup6\n        /* \"#utility.yul\":3769:3791   */\n      add\n        /* \"#utility.yul\":3715:3801   */\n      tag_67\n      jump\t// in\n    tag_163:\n        /* \"#utility.yul\":3705:3801   */\n      swap2\n      pop\n        /* \"#utility.yul\":3501:3811   */\n      pop\n        /* \"#utility.yul\":3263:3818   */\n      swap3\n      swap2\n      pop\n      pop\n      jump\t// out\n        /* \"#utility.yul\":3824:3950   */\n    tag_68:\n        /* \"#utility.yul\":3861:3868   */\n      0x00\n        /* \"#utility.yul\":3901:3943   */\n      0xffffffffffffffffffffffffffffffffffffffff\n        /* \"#utility.yul\":3894:3899   */\n      dup3\n        /* \"#utility.yul\":3890:3944   */\n      and\n        /* \"#utility.yul\":3879:3944   */\n      swap1\n      pop\n        /* \"#utility.yul\":3824:3950   */\n      swap2\n      swap1\n      pop\n      jump\t// out\n        /* \"#utility.yul\":3956:4052   */\n    tag_69:\n        /* \"#utility.yul\":3993:4000   */\n      0x00\n        /* \"#utility.yul\":4022:4046   */\n      tag_166\n        /* \"#utility.yul\":4040:4045   */\n      dup3\n        /* \"#utility.yul\":4022:4046   */\n      tag_68\n      jump\t// in\n    tag_166:\n        /* \"#utility.yul\":4011:4046   */\n      swap1\n      pop\n        /* \"#utility.yul\":3956:4052   */\n      swap2\n      swap1\n      pop\n      jump\t// out\n        /* \"#utility.yul\":4058:4176   */\n    tag_70:\n        /* \"#utility.yul\":4145:4169   */\n      tag_168\n        /* \"#utility.yul\":4163:4168   */\n      dup2\n        /* \"#utility.yul\":4145:4169   */\n      tag_69\n      jump\t// in\n    tag_168:\n        /* \"#utility.yul\":4140:4143   */\n      dup3\n        /* \"#utility.yul\":4133:4170   */\n      mstore\n        /* \"#utility.yul\":4058:4176   */\n      pop\n      pop\n      jump\t// out\n        /* \"#utility.yul\":4182:4404   */\n    tag_25:\n        /* \"#utility.yul\":4275:4279   */\n      0x00\n        /* \"#utility.yul\":4313:4315   */\n      0x20\n        /* \"#utility.yul\":4302:4311   */\n      dup3\n        /* \"#utility.yul\":4298:4316   */\n      add\n        /* \"#utility.yul\":4290:4316   */\n      swap1\n      pop\n        /* \"#utility.yul\":4326:4397   */\n      tag_170\n        /* \"#utility.yul\":4394:4395   */\n      0x00\n        /* \"#utility.yul\":4383:4392   */\n      dup4\n        /* \"#utility.yul\":4379:4396   */\n      add\n        /* \"#utility.yul\":4370:4376   */\n      dup5\n        /* \"#utility.yul\":4326:4397   */\n      tag_70\n      jump\t// in\n    tag_170:\n        /* \"#utility.yul\":4182:4404   */\n      swap3\n      swap2\n      pop\n      pop\n      jump\t// out\n        /* \"#utility.yul\":4410:4590   */\n    tag_71:\n        /* \"#utility.yul\":4458:4535   */\n      0x4e487b7100000000000000000000000000000000000000000000000000000000\n        /* \"#utility.yul\":4455:4456   */\n      0x00\n        /* \"#utility.yul\":4448:4536   */\n      mstore\n        /* \"#utility.yul\":4555:4559   */\n      0x22\n        /* \"#utility.yul\":4552:4553   */\n      0x04\n        /* \"#utility.yul\":4545:4560   */\n      mstore\n        /* \"#utility.yul\":4579:4583   */\n      0x24\n        /* \"#utility.yul\":4576:4577   */\n      0x00\n        /* \"#utility.yul\":4569:4584   */\n      revert\n        /* \"#utility.yul\":4596:4916   */\n    tag_32:\n        /* \"#utility.yul\":4640:4646   */\n      0x00\n        /* \"#utility.yul\":4677:4678   */\n      0x02\n        /* \"#utility.yul\":4671:4675   */\n      dup3\n        /* \"#utility.yul\":4667:4679   */\n      div\n        /* \"#utility.yul\":4657:4679   */\n      swap1\n      pop\n        /* \"#utility.yul\":4724:4725   */\n      0x01\n        /* \"#utility.yul\":4718:4722   */\n      dup3\n        /* \"#utility.yul\":4714:4726   */\n      and\n        /* \"#utility.yul\":4745:4763   */\n      dup1\n        /* \"#utility.yul\":4735:4816   */\n      tag_173\n      jumpi\n        /* \"#utility.yul\":4801:4805   */\n      0x7f\n        /* \"#utility.yul\":4793:4799   */\n      dup3\n        /* \"#utility.yul\":4789:4806   */\n      and\n        /* \"#utility.yul\":4779:4806   */\n      swap2\n      pop\n        /* \"#utility.yul\":4735:4816   */\n    tag_173:\n        /* \"#utility.yul\":4863:4865   */\n      0x20\n        /* \"#utility.yul\":4855:4861   */\n      dup3\n        /* \"#utility.yul\":4852:4866   */\n      lt\n        /* \"#utility.yul\":4832:4850   */\n      dup2\n        /* \"#utility.yul\":4829:4867   */\n      sub\n        /* \"#utility.yul\":4826:4910   */\n      tag_174\n      jumpi\n        /* \"#utility.yul\":4882:4900   */\n      tag_175\n      tag_71\n      jump\t// in\n    tag_175:\n        /* \"#utility.yul\":4826:4910   */\n    tag_174:\n        /* \"#utility.yul\":4647:4916   */\n      pop\n        /* \"#utility.yul\":4596:4916   */\n      swap2\n      swap1\n      pop\n      jump\t// out\n        /* \"#utility.yul\":4922:5039   */\n    tag_72:\n        /* \"#utility.yul\":5031:5032   */\n      0x00\n        /* \"#utility.yul\":5028:5029   */\n      dup1\n        /* \"#utility.yul\":5021:5033   */\n      revert\n        /* \"#utility.yul\":5045:5225   */\n    tag_73:\n        /* \"#utility.yul\":5093:5170   */\n      0x4e487b7100000000000000000000000000000000000000000000000000000000\n        /* \"#utility.yul\":5090:5091   */\n      0x00\n        /* \"#utility.yul\":5083:5171   */\n      mstore\n        /* \"#utility.yul\":5190:5194   */\n      0x41\n        /* \"#utility.yul\":5187:5188   */\n      0x04\n        /* \"#utility.yul\":5180:5195   */\n      mstore\n        /* \"#utility.yul\":5214:5218   */\n      0x24\n        /* \"#utility.yul\":5211:5212   */\n      0x00\n        /* \"#utility.yul\":5204:5219   */\n      revert\n        /* \"#utility.yul\":5231:5512   */\n    tag_74:\n        /* \"#utility.yul\":5314:5341   */\n      tag_179\n        /* \"#utility.yul\":5336:5340   */\n      dup3\n        /* \"#utility.yul\":5314:5341   */\n      tag_64\n      jump\t// in\n    tag_179:\n        /* \"#utility.yul\":5306:5312   */\n      dup2\n        /* \"#utility.yul\":5302:5342   */\n      add\n        /* \"#utility.yul\":5444:5450   */\n      dup2\n        /* \"#utility.yul\":5432:5442   */\n      dup2\n        /* \"#utility.yul\":5429:5451   */\n      lt\n        /* \"#utility.yul\":5408:5426   */\n      0xffffffffffffffff\n        /* \"#utility.yul\":5396:5406   */\n      dup3\n        /* \"#utility.yul\":5393:5427   */\n      gt\n        /* \"#utility.yul\":5390:5452   */\n      or\n        /* \"#utility.yul\":5387:5475   */\n      iszero\n      tag_180\n      jumpi\n        /* \"#utility.yul\":5455:5473   */\n      tag_181\n      tag_73\n      jump\t// in\n    tag_181:\n        /* \"#utility.yul\":5387:5475   */\n    tag_180:\n        /* \"#utility.yul\":5495:5505   */\n      dup1\n        /* \"#utility.yul\":5491:5493   */\n      0x40\n        /* \"#utility.yul\":5484:5506   */\n      mstore\n        /* \"#utility.yul\":5274:5512   */\n      pop\n        /* \"#utility.yul\":5231:5512   */\n      pop\n      pop\n      jump\t// out\n        /* \"#utility.yul\":5518:5647   */\n    tag_75:\n        /* \"#utility.yul\":5552:5558   */\n      0x00\n        /* \"#utility.yul\":5579:5599   */\n      tag_183\n      tag_53\n      jump\t// in\n    tag_183:\n        /* \"#utility.yul\":5569:5599   */\n      swap1\n      pop\n        /* \"#utility.yul\":5608:5641   */\n      tag_184\n        /* \"#utility.yul\":5636:5640   */\n      dup3\n        /* \"#utility.yul\":5628:5634   */\n      dup3\n        /* \"#utility.yul\":5608:5641   */\n      tag_74\n      jump\t// in\n    tag_184:\n        /* \"#utility.yul\":5518:5647   */\n      swap2\n      swap1\n      pop\n      jump\t// out\n        /* \"#utility.yul\":5653:5770   */\n    tag_76:\n        /* \"#utility.yul\":5762:5763   */\n      0x00\n        /* \"#utility.yul\":5759:5760   */\n      dup1\n        /* \"#utility.yul\":5752:5764   */\n      revert\n        /* \"#utility.yul\":5776:5853   */\n    tag_77:\n        /* \"#utility.yul\":5813:5820   */\n      0x00\n        /* \"#utility.yul\":5842:5847   */\n      dup2\n        /* \"#utility.yul\":5831:5847   */\n      swap1\n      pop\n        /* \"#utility.yul\":5776:5853   */\n      swap2\n      swap1\n      pop\n      jump\t// out\n        /* \"#utility.yul\":5859:5981   */\n    tag_78:\n        /* \"#utility.yul\":5932:5956   */\n      tag_188\n        /* \"#utility.yul\":5950:5955   */\n      dup2\n        /* \"#utility.yul\":5932:5956   */\n      tag_77\n      jump\t// in\n    tag_188:\n        /* \"#utility.yul\":5925:5930   */\n      dup2\n        /* \"#utility.yul\":5922:5957   */\n      eq\n        /* \"#utility.yul\":5912:5975   */\n      tag_189\n      jumpi\n        /* \"#utility.yul\":5971:5972   */\n      0x00\n        /* \"#utility.yul\":5968:5969   */\n      dup1\n        /* \"#utility.yul\":5961:5973   */\n      revert\n        /* \"#utility.yul\":5912:5975   */\n    tag_189:\n        /* \"#utility.yul\":5859:5981   */\n      pop\n      jump\t// out\n        /* \"#utility.yul\":5987:6126   */\n    tag_79:\n        /* \"#utility.yul\":6033:6038   */\n      0x00\n        /* \"#utility.yul\":6071:6077   */\n      dup2\n        /* \"#utility.yul\":6058:6078   */\n      calldataload\n        /* \"#utility.yul\":6049:6078   */\n      swap1\n      pop\n        /* \"#utility.yul\":6087:6120   */\n      tag_191\n        /* \"#utility.yul\":6114:6119   */\n      dup2\n        /* \"#utility.yul\":6087:6120   */\n      tag_78\n      jump\t// in\n    tag_191:\n        /* \"#utility.yul\":5987:6126   */\n      swap3\n      swap2\n      pop\n      pop\n      jump\t// out\n        /* \"#utility.yul\":6132:6233   */\n    tag_80:\n        /* \"#utility.yul\":6168:6175   */\n      0x00\n        /* \"#utility.yul\":6208:6226   */\n      0xffffffffffffffff\n        /* \"#utility.yul\":6201:6206   */\n      dup3\n        /* \"#utility.yul\":6197:6227   */\n      and\n        /* \"#utility.yul\":6186:6227   */\n      swap1\n      pop\n        /* \"#utility.yul\":6132:6233   */\n      swap2\n      swap1\n      pop\n      jump\t// out\n        /* \"#utility.yul\":6239:6359   */\n    tag_81:\n        /* \"#utility.yul\":6311:6334   */\n      tag_194\n        /* \"#utility.yul\":6328:6333   */\n      dup2\n        /* \"#utility.yul\":6311:6334   */\n      tag_80\n      jump\t// in\n    tag_194:\n        /* \"#utility.yul\":6304:6309   */\n      dup2\n        /* \"#utility.yul\":6301:6335   */\n      eq\n        /* \"#utility.yul\":6291:6353   */\n      tag_195\n      jumpi\n        /* \"#utility.yul\":6349:6350   */\n      0x00\n        /* \"#utility.yul\":6346:6347   */\n      dup1\n        /* \"#utility.yul\":6339:6351   */\n      revert\n        /* \"#utility.yul\":6291:6353   */\n    tag_195:\n        /* \"#utility.yul\":6239:6359   */\n      pop\n      jump\t// out\n        /* \"#utility.yul\":6365:6502   */\n    tag_82:\n        /* \"#utility.yul\":6410:6415   */\n      0x00\n        /* \"#utility.yul\":6448:6454   */\n      dup2\n        /* \"#utility.yul\":6435:6455   */\n      calldataload\n        /* \"#utility.yul\":6426:6455   */\n      swap1\n      pop\n        /* \"#utility.yul\":6464:6496   */\n      tag_197\n        /* \"#utility.yul\":6490:6495   */\n      dup2\n        /* \"#utility.yul\":6464:6496   */\n      tag_81\n      jump\t// in\n    tag_197:\n        /* \"#utility.yul\":6365:6502   */\n      swap3\n      swap2\n      pop\n      pop\n      jump\t// out\n        /* \"#utility.yul\":6508:6625   */\n    tag_83:\n        /* \"#utility.yul\":6617:6618   */\n      0x00\n        /* \"#utility.yul\":6614:6615   */\n      dup1\n        /* \"#utility.yul\":6607:6619   */\n      revert\n        /* \"#utility.yul\":6631:6748   */\n    tag_84:\n        /* \"#utility.yul\":6740:6741   */\n      0x00\n        /* \"#utility.yul\":6737:6738   */\n      dup1\n        /* \"#utility.yul\":6730:6742   */\n      revert\n        /* \"#utility.yul\":6754:7061   */\n    tag_85:\n        /* \"#utility.yul\":6815:6819   */\n      0x00\n        /* \"#utility.yul\":6905:6923   */\n      0xffffffffffffffff\n        /* \"#utility.yul\":6897:6903   */\n      dup3\n        /* \"#utility.yul\":6894:6924   */\n      gt\n        /* \"#utility.yul\":6891:6947   */\n      iszero\n      tag_201\n      jumpi\n        /* \"#utility.yul\":6927:6945   */\n      tag_202\n      tag_73\n      jump\t// in\n    tag_202:\n        /* \"#utility.yul\":6891:6947   */\n    tag_201:\n        /* \"#utility.yul\":6965:6994   */\n      tag_203\n        /* \"#utility.yul\":6987:6993   */\n      dup3\n        /* \"#utility.yul\":6965:6994   */\n      tag_64\n      jump\t// in\n    tag_203:\n        /* \"#utility.yul\":6957:6994   */\n      swap1\n      pop\n        /* \"#utility.yul\":7049:7053   */\n      0x20\n        /* \"#utility.yul\":7043:7047   */\n      dup2\n        /* \"#utility.yul\":7039:7054   */\n      add\n        /* \"#utility.yul\":7031:7054   */\n      swap1\n      pop\n        /* \"#utility.yul\":6754:7061   */\n      swap2\n      swap1\n      pop\n      jump\t// out\n        /* \"#utility.yul\":7067:7213   */\n    tag_86:\n        /* \"#utility.yul\":7164:7170   */\n      dup3\n        /* \"#utility.yul\":7159:7162   */\n      dup2\n        /* \"#utility.yul\":7154:7157   */\n      dup4\n        /* \"#utility.yul\":7141:7171   */\n      calldatacopy\n        /* \"#utility.yul\":7205:7206   */\n      0x00\n        /* \"#utility.yul\":7196:7202   */\n      dup4\n        /* \"#utility.yul\":7191:7194   */\n      dup4\n        /* \"#utility.yul\":7187:7203   */\n      add\n        /* \"#utility.yul\":7180:7207   */\n      mstore\n        /* \"#utility.yul\":7067:7213   */\n      pop\n      pop\n      pop\n      jump\t// out\n        /* \"#utility.yul\":7219:7642   */\n    tag_87:\n        /* \"#utility.yul\":7296:7301   */\n      0x00\n        /* \"#utility.yul\":7321:7386   */\n      tag_206\n        /* \"#utility.yul\":7337:7385   */\n      tag_207\n        /* \"#utility.yul\":7378:7384   */\n      dup5\n        /* \"#utility.yul\":7337:7385   */\n      tag_85\n      jump\t// in\n    tag_207:\n        /* \"#utility.yul\":7321:7386   */\n      tag_75\n      jump\t// in\n    tag_206:\n        /* \"#utility.yul\":7312:7386   */\n      swap1\n      pop\n        /* \"#utility.yul\":7409:7415   */\n      dup3\n        /* \"#utility.yul\":7402:7407   */\n      dup2\n        /* \"#utility.yul\":7395:7416   */\n      mstore\n        /* \"#utility.yul\":7447:7451   */\n      0x20\n        /* \"#utility.yul\":7440:7445   */\n      dup2\n        /* \"#utility.yul\":7436:7452   */\n      add\n        /* \"#utility.yul\":7485:7488   */\n      dup5\n        /* \"#utility.yul\":7476:7482   */\n      dup5\n        /* \"#utility.yul\":7471:7474   */\n      dup5\n        /* \"#utility.yul\":7467:7483   */\n      add\n        /* \"#utility.yul\":7464:7489   */\n      gt\n        /* \"#utility.yul\":7461:7573   */\n      iszero\n      tag_208\n      jumpi\n        /* \"#utility.yul\":7492:7571   */\n      tag_209\n      tag_84\n      jump\t// in\n    tag_209:\n        /* \"#utility.yul\":7461:7573   */\n    tag_208:\n        /* \"#utility.yul\":7582:7636   */\n      tag_210\n        /* \"#utility.yul\":7629:7635   */\n      dup5\n        /* \"#utility.yul\":7624:7627   */\n      dup3\n        /* \"#utility.yul\":7619:7622   */\n      dup6\n        /* \"#utility.yul\":7582:7636   */\n      tag_86\n      jump\t// in\n    tag_210:\n        /* \"#utility.yul\":7302:7642   */\n      pop\n        /* \"#utility.yul\":7219:7642   */\n      swap4\n      swap3\n      pop\n      pop\n      pop\n      jump\t// out\n        /* \"#utility.yul\":7661:7999   */\n    tag_88:\n        /* \"#utility.yul\":7716:7721   */\n      0x00\n        /* \"#utility.yul\":7765:7768   */\n      dup3\n        /* \"#utility.yul\":7758:7762   */\n      0x1f\n        /* \"#utility.yul\":7750:7756   */\n      dup4\n        /* \"#utility.yul\":7746:7763   */\n      add\n        /* \"#utility.yul\":7742:7769   */\n      slt\n        /* \"#utility.yul\":7732:7854   */\n      tag_212\n      jumpi\n        /* \"#utility.yul\":7773:7852   */\n      tag_213\n      tag_83\n      jump\t// in\n    tag_213:\n        /* \"#utility.yul\":7732:7854   */\n    tag_212:\n        /* \"#utility.yul\":7890:7896   */\n      dup2\n        /* \"#utility.yul\":7877:7897   */\n      calldataload\n        /* \"#utility.yul\":7915:7993   */\n      tag_214\n        /* \"#utility.yul\":7989:7992   */\n      dup5\n        /* \"#utility.yul\":7981:7987   */\n      dup3\n        /* \"#utility.yul\":7974:7978   */\n      0x20\n        /* \"#utility.yul\":7966:7972   */\n      dup7\n        /* \"#utility.yul\":7962:7979   */\n      add\n        /* \"#utility.yul\":7915:7993   */\n      tag_87\n      jump\t// in\n    tag_214:\n        /* \"#utility.yul\":7906:7993   */\n      swap2\n      pop\n        /* \"#utility.yul\":7722:7999   */\n      pop\n        /* \"#utility.yul\":7661:7999   */\n      swap3\n      swap2\n      pop\n      pop\n      jump\t// out\n        /* \"#utility.yul\":8005:8347   */\n    tag_89:\n        /* \"#utility.yul\":8113:8117   */\n      0x00\n        /* \"#utility.yul\":8203:8221   */\n      0xffffffffffffffff\n        /* \"#utility.yul\":8195:8201   */\n      dup3\n        /* \"#utility.yul\":8192:8222   */\n      gt\n        /* \"#utility.yul\":8189:8245   */\n      iszero\n      tag_216\n      jumpi\n        /* \"#utility.yul\":8225:8243   */\n      tag_217\n      tag_73\n      jump\t// in\n    tag_217:\n        /* \"#utility.yul\":8189:8245   */\n    tag_216:\n        /* \"#utility.yul\":8275:8279   */\n      0x20\n        /* \"#utility.yul\":8267:8273   */\n      dup3\n        /* \"#utility.yul\":8263:8280   */\n      mul\n        /* \"#utility.yul\":8255:8280   */\n      swap1\n      pop\n        /* \"#utility.yul\":8335:8339   */\n      0x20\n        /* \"#utility.yul\":8329:8333   */\n      dup2\n        /* \"#utility.yul\":8325:8340   */\n      add\n        /* \"#utility.yul\":8317:8340   */\n      swap1\n      pop\n        /* \"#utility.yul\":8005:8347   */\n      swap2\n      swap1\n      pop\n      jump\t// out\n        /* \"#utility.yul\":8353:8470   */\n    tag_90:\n        /* \"#utility.yul\":8462:8463   */\n      0x00\n        /* \"#utility.yul\":8459:8460   */\n      dup1\n        /* \"#utility.yul\":8452:8464   */\n      revert\n        /* \"#utility.yul\":8476:8598   */\n    tag_91:\n        /* \"#utility.yul\":8549:8573   */\n      tag_220\n        /* \"#utility.yul\":8567:8572   */\n      dup2\n        /* \"#utility.yul\":8549:8573   */\n      tag_69\n      jump\t// in\n    tag_220:\n        /* \"#utility.yul\":8542:8547   */\n      dup2\n        /* \"#utility.yul\":8539:8574   */\n      eq\n        /* \"#utility.yul\":8529:8592   */\n      tag_221\n      jumpi\n        /* \"#utility.yul\":8588:8589   */\n      0x00\n        /* \"#utility.yul\":8585:8586   */\n      dup1\n        /* \"#utility.yul\":8578:8590   */\n      revert\n        /* \"#utility.yul\":8529:8592   */\n    tag_221:\n        /* \"#utility.yul\":8476:8598   */\n      pop\n      jump\t// out\n        /* \"#utility.yul\":8604:8743   */\n    tag_92:\n        /* \"#utility.yul\":8650:8655   */\n      0x00\n        /* \"#utility.yul\":8688:8694   */\n      dup2\n        /* \"#utility.yul\":8675:8695   */\n      calldataload\n        /* \"#utility.yul\":8666:8695   */\n      swap1\n      pop\n        /* \"#utility.yul\":8704:8737   */\n      tag_223\n        /* \"#utility.yul\":8731:8736   */\n      dup2\n        /* \"#utility.yul\":8704:8737   */\n      tag_91\n      jump\t// in\n    tag_223:\n        /* \"#utility.yul\":8604:8743   */\n      swap3\n      swap2\n      pop\n      pop\n      jump\t// out\n        /* \"#utility.yul\":8749:8826   */\n    tag_93:\n        /* \"#utility.yul\":8786:8793   */\n      0x00\n        /* \"#utility.yul\":8815:8820   */\n      dup2\n        /* \"#utility.yul\":8804:8820   */\n      swap1\n      pop\n        /* \"#utility.yul\":8749:8826   */\n      swap2\n      swap1\n      pop\n      jump\t// out\n        /* \"#utility.yul\":8832:8954   */\n    tag_94:\n        /* \"#utility.yul\":8905:8929   */\n      tag_226\n        /* \"#utility.yul\":8923:8928   */\n      dup2\n        /* \"#utility.yul\":8905:8929   */\n      tag_93\n      jump\t// in\n    tag_226:\n        /* \"#utility.yul\":8898:8903   */\n      dup2\n        /* \"#utility.yul\":8895:8930   */\n      eq\n        /* \"#utility.yul\":8885:8948   */\n      tag_227\n      jumpi\n        /* \"#utility.yul\":8944:8945   */\n      0x00\n        /* \"#utility.yul\":8941:8942   */\n      dup1\n        /* \"#utility.yul\":8934:8946   */\n      revert\n        /* \"#utility.yul\":8885:8948   */\n    tag_227:\n        /* \"#utility.yul\":8832:8954   */\n      pop\n      jump\t// out\n        /* \"#utility.yul\":8960:9099   */\n    tag_95:\n        /* \"#utility.yul\":9006:9011   */\n      0x00\n        /* \"#utility.yul\":9044:9050   */\n      dup2\n        /* \"#utility.yul\":9031:9051   */\n      calldataload\n        /* \"#utility.yul\":9022:9051   */\n      swap1\n      pop\n        /* \"#utility.yul\":9060:9093   */\n      tag_229\n        /* \"#utility.yul\":9087:9092   */\n      dup2\n        /* \"#utility.yul\":9060:9093   */\n      tag_94\n      jump\t// in\n    tag_229:\n        /* \"#utility.yul\":8960:9099   */\n      swap3\n      swap2\n      pop\n      pop\n      jump\t// out\n        /* \"#utility.yul\":9141:9724   */\n    tag_96:\n        /* \"#utility.yul\":9221:9226   */\n      0x00\n        /* \"#utility.yul\":9265:9269   */\n      0x40\n        /* \"#utility.yul\":9253:9262   */\n      dup3\n        /* \"#utility.yul\":9248:9251   */\n      dup5\n        /* \"#utility.yul\":9244:9263   */\n      sub\n        /* \"#utility.yul\":9240:9270   */\n      slt\n        /* \"#utility.yul\":9237:9354   */\n      iszero\n      tag_231\n      jumpi\n        /* \"#utility.yul\":9273:9352   */\n      tag_232\n      tag_72\n      jump\t// in\n    tag_232:\n        /* \"#utility.yul\":9237:9354   */\n    tag_231:\n        /* \"#utility.yul\":9372:9393   */\n      tag_233\n        /* \"#utility.yul\":9388:9392   */\n      0x40\n        /* \"#utility.yul\":9372:9393   */\n      tag_75\n      jump\t// in\n    tag_233:\n        /* \"#utility.yul\":9363:9393   */\n      swap1\n      pop\n        /* \"#utility.yul\":9453:9454   */\n      0x00\n        /* \"#utility.yul\":9493:9542   */\n      tag_234\n        /* \"#utility.yul\":9538:9541   */\n      dup5\n        /* \"#utility.yul\":9529:9535   */\n      dup3\n        /* \"#utility.yul\":9518:9527   */\n      dup6\n        /* \"#utility.yul\":9514:9536   */\n      add\n        /* \"#utility.yul\":9493:9542   */\n      tag_92\n      jump\t// in\n    tag_234:\n        /* \"#utility.yul\":9486:9490   */\n      0x00\n        /* \"#utility.yul\":9479:9484   */\n      dup4\n        /* \"#utility.yul\":9475:9491   */\n      add\n        /* \"#utility.yul\":9468:9543   */\n      mstore\n        /* \"#utility.yul\":9403:9554   */\n      pop\n        /* \"#utility.yul\":9615:9617   */\n      0x20\n        /* \"#utility.yul\":9656:9705   */\n      tag_235\n        /* \"#utility.yul\":9701:9704   */\n      dup5\n        /* \"#utility.yul\":9692:9698   */\n      dup3\n        /* \"#utility.yul\":9681:9690   */\n      dup6\n        /* \"#utility.yul\":9677:9699   */\n      add\n        /* \"#utility.yul\":9656:9705   */\n      tag_95\n      jump\t// in\n    tag_235:\n        /* \"#utility.yul\":9649:9653   */\n      0x20\n        /* \"#utility.yul\":9642:9647   */\n      dup4\n        /* \"#utility.yul\":9638:9654   */\n      add\n        /* \"#utility.yul\":9631:9706   */\n      mstore\n        /* \"#utility.yul\":9564:9717   */\n      pop\n        /* \"#utility.yul\":9141:9724   */\n      swap3\n      swap2\n      pop\n      pop\n      jump\t// out\n        /* \"#utility.yul\":9768:10571   */\n    tag_97:\n        /* \"#utility.yul\":9895:9900   */\n      0x00\n        /* \"#utility.yul\":9920:10032   */\n      tag_237\n        /* \"#utility.yul\":9936:10031   */\n      tag_238\n        /* \"#utility.yul\":10024:10030   */\n      dup5\n        /* \"#utility.yul\":9936:10031   */\n      tag_89\n      jump\t// in\n    tag_238:\n        /* \"#utility.yul\":9920:10032   */\n      tag_75\n      jump\t// in\n    tag_237:\n        /* \"#utility.yul\":9911:10032   */\n      swap1\n      pop\n        /* \"#utility.yul\":10052:10057   */\n      dup1\n        /* \"#utility.yul\":10081:10087   */\n      dup4\n        /* \"#utility.yul\":10074:10079   */\n      dup3\n        /* \"#utility.yul\":10067:10088   */\n      mstore\n        /* \"#utility.yul\":10115:10119   */\n      0x20\n        /* \"#utility.yul\":10108:10113   */\n      dup3\n        /* \"#utility.yul\":10104:10120   */\n      add\n        /* \"#utility.yul\":10097:10120   */\n      swap1\n      pop\n        /* \"#utility.yul\":10168:10172   */\n      0x40\n        /* \"#utility.yul\":10160:10166   */\n      dup5\n        /* \"#utility.yul\":10156:10173   */\n      mul\n        /* \"#utility.yul\":10148:10154   */\n      dup4\n        /* \"#utility.yul\":10144:10174   */\n      add\n        /* \"#utility.yul\":10197:10200   */\n      dup6\n        /* \"#utility.yul\":10189:10195   */\n      dup2\n        /* \"#utility.yul\":10186:10201   */\n      gt\n        /* \"#utility.yul\":10183:10305   */\n      iszero\n      tag_239\n      jumpi\n        /* \"#utility.yul\":10216:10295   */\n      tag_240\n      tag_90\n      jump\t// in\n    tag_240:\n        /* \"#utility.yul\":10183:10305   */\n    tag_239:\n        /* \"#utility.yul\":10331:10337   */\n      dup4\n        /* \"#utility.yul\":10314:10565   */\n    tag_241:\n        /* \"#utility.yul\":10348:10354   */\n      dup2\n        /* \"#utility.yul\":10343:10346   */\n      dup2\n        /* \"#utility.yul\":10340:10355   */\n      lt\n        /* \"#utility.yul\":10314:10565   */\n      iszero\n      tag_243\n      jumpi\n        /* \"#utility.yul\":10423:10426   */\n      dup1\n        /* \"#utility.yul\":10452:10520   */\n      tag_244\n        /* \"#utility.yul\":10516:10519   */\n      dup9\n        /* \"#utility.yul\":10504:10514   */\n      dup3\n        /* \"#utility.yul\":10452:10520   */\n      tag_96\n      jump\t// in\n    tag_244:\n        /* \"#utility.yul\":10447:10450   */\n      dup5\n        /* \"#utility.yul\":10440:10521   */\n      mstore\n        /* \"#utility.yul\":10550:10554   */\n      0x20\n        /* \"#utility.yul\":10545:10548   */\n      dup5\n        /* \"#utility.yul\":10541:10555   */\n      add\n        /* \"#utility.yul\":10534:10555   */\n      swap4\n      pop\n        /* \"#utility.yul\":10390:10565   */\n      pop\n        /* \"#utility.yul\":10374:10378   */\n      0x40\n        /* \"#utility.yul\":10369:10372   */\n      dup2\n        /* \"#utility.yul\":10365:10379   */\n      add\n        /* \"#utility.yul\":10358:10379   */\n      swap1\n      pop\n        /* \"#utility.yul\":10314:10565   */\n      jump(tag_241)\n    tag_243:\n        /* \"#utility.yul\":10318:10339   */\n      pop\n        /* \"#utility.yul\":9901:10571   */\n      pop\n      pop\n        /* \"#utility.yul\":9768:10571   */\n      swap4\n      swap3\n      pop\n      pop\n      pop\n      jump\t// out\n        /* \"#utility.yul\":10615:11047   */\n    tag_98:\n        /* \"#utility.yul\":10717:10722   */\n      0x00\n        /* \"#utility.yul\":10766:10769   */\n      dup3\n        /* \"#utility.yul\":10759:10763   */\n      0x1f\n        /* \"#utility.yul\":10751:10757   */\n      dup4\n        /* \"#utility.yul\":10747:10764   */\n      add\n        /* \"#utility.yul\":10743:10770   */\n      slt\n        /* \"#utility.yul\":10733:10855   */\n      tag_246\n      jumpi\n        /* \"#utility.yul\":10774:10853   */\n      tag_247\n      tag_83\n      jump\t// in\n    tag_247:\n        /* \"#utility.yul\":10733:10855   */\n    tag_246:\n        /* \"#utility.yul\":10891:10897   */\n      dup2\n        /* \"#utility.yul\":10878:10898   */\n      calldataload\n        /* \"#utility.yul\":10916:11041   */\n      tag_248\n        /* \"#utility.yul\":11037:11040   */\n      dup5\n        /* \"#utility.yul\":11029:11035   */\n      dup3\n        /* \"#utility.yul\":11022:11026   */\n      0x20\n        /* \"#utility.yul\":11014:11020   */\n      dup7\n        /* \"#utility.yul\":11010:11027   */\n      add\n        /* \"#utility.yul\":10916:11041   */\n      tag_97\n      jump\t// in\n    tag_248:\n        /* \"#utility.yul\":10907:11041   */\n      swap2\n      pop\n        /* \"#utility.yul\":10723:11047   */\n      pop\n        /* \"#utility.yul\":10615:11047   */\n      swap3\n      swap2\n      pop\n      pop\n      jump\t// out\n        /* \"#utility.yul\":11089:12740   */\n    tag_99:\n        /* \"#utility.yul\":11169:11174   */\n      0x00\n        /* \"#utility.yul\":11213:11217   */\n      0xa0\n        /* \"#utility.yul\":11201:11210   */\n      dup3\n        /* \"#utility.yul\":11196:11199   */\n      dup5\n        /* \"#utility.yul\":11192:11211   */\n      sub\n        /* \"#utility.yul\":11188:11218   */\n      slt\n        /* \"#utility.yul\":11185:11302   */\n      iszero\n      tag_250\n      jumpi\n        /* \"#utility.yul\":11221:11300   */\n      tag_251\n      tag_72\n      jump\t// in\n    tag_251:\n        /* \"#utility.yul\":11185:11302   */\n    tag_250:\n        /* \"#utility.yul\":11320:11341   */\n      tag_252\n        /* \"#utility.yul\":11336:11340   */\n      0xa0\n        /* \"#utility.yul\":11320:11341   */\n      tag_75\n      jump\t// in\n    tag_252:\n        /* \"#utility.yul\":11311:11341   */\n      swap1\n      pop\n        /* \"#utility.yul\":11405:11406   */\n      0x00\n        /* \"#utility.yul\":11445:11494   */\n      tag_253\n        /* \"#utility.yul\":11490:11493   */\n      dup5\n        /* \"#utility.yul\":11481:11487   */\n      dup3\n        /* \"#utility.yul\":11470:11479   */\n      dup6\n        /* \"#utility.yul\":11466:11488   */\n      add\n        /* \"#utility.yul\":11445:11494   */\n      tag_79\n      jump\t// in\n    tag_253:\n        /* \"#utility.yul\":11438:11442   */\n      0x00\n        /* \"#utility.yul\":11431:11436   */\n      dup4\n        /* \"#utility.yul\":11427:11443   */\n      add\n        /* \"#utility.yul\":11420:11495   */\n      mstore\n        /* \"#utility.yul\":11351:11506   */\n      pop\n        /* \"#utility.yul\":11580:11582   */\n      0x20\n        /* \"#utility.yul\":11621:11669   */\n      tag_254\n        /* \"#utility.yul\":11665:11668   */\n      dup5\n        /* \"#utility.yul\":11656:11662   */\n      dup3\n        /* \"#utility.yul\":11645:11654   */\n      dup6\n        /* \"#utility.yul\":11641:11663   */\n      add\n        /* \"#utility.yul\":11621:11669   */\n      tag_82\n      jump\t// in\n    tag_254:\n        /* \"#utility.yul\":11614:11618   */\n      0x20\n        /* \"#utility.yul\":11607:11612   */\n      dup4\n        /* \"#utility.yul\":11603:11619   */\n      add\n        /* \"#utility.yul\":11596:11670   */\n      mstore\n        /* \"#utility.yul\":11516:11681   */\n      pop\n        /* \"#utility.yul\":11770:11772   */\n      0x40\n        /* \"#utility.yul\":11759:11768   */\n      dup3\n        /* \"#utility.yul\":11755:11773   */\n      add\n        /* \"#utility.yul\":11742:11774   */\n      calldataload\n        /* \"#utility.yul\":11801:11819   */\n      0xffffffffffffffff\n        /* \"#utility.yul\":11793:11799   */\n      dup2\n        /* \"#utility.yul\":11790:11820   */\n      gt\n        /* \"#utility.yul\":11787:11904   */\n      iszero\n      tag_255\n      jumpi\n        /* \"#utility.yul\":11823:11902   */\n      tag_256\n      tag_76\n      jump\t// in\n    tag_256:\n        /* \"#utility.yul\":11787:11904   */\n    tag_255:\n        /* \"#utility.yul\":11943:12001   */\n      tag_257\n        /* \"#utility.yul\":11997:12000   */\n      dup5\n        /* \"#utility.yul\":11988:11994   */\n      dup3\n        /* \"#utility.yul\":11977:11986   */\n      dup6\n        /* \"#utility.yul\":11973:11995   */\n      add\n        /* \"#utility.yul\":11943:12001   */\n      tag_88\n      jump\t// in\n    tag_257:\n        /* \"#utility.yul\":11936:11940   */\n      0x40\n        /* \"#utility.yul\":11929:11934   */\n      dup4\n        /* \"#utility.yul\":11925:11941   */\n      add\n        /* \"#utility.yul\":11918:12002   */\n      mstore\n        /* \"#utility.yul\":11691:12013   */\n      pop\n        /* \"#utility.yul\":12100:12102   */\n      0x60\n        /* \"#utility.yul\":12089:12098   */\n      dup3\n        /* \"#utility.yul\":12085:12103   */\n      add\n        /* \"#utility.yul\":12072:12104   */\n      calldataload\n        /* \"#utility.yul\":12131:12149   */\n      0xffffffffffffffff\n        /* \"#utility.yul\":12123:12129   */\n      dup2\n        /* \"#utility.yul\":12120:12150   */\n      gt\n        /* \"#utility.yul\":12117:12234   */\n      iszero\n      tag_258\n      jumpi\n        /* \"#utility.yul\":12153:12232   */\n      tag_259\n      tag_76\n      jump\t// in\n    tag_259:\n        /* \"#utility.yul\":12117:12234   */\n    tag_258:\n        /* \"#utility.yul\":12273:12331   */\n      tag_260\n        /* \"#utility.yul\":12327:12330   */\n      dup5\n        /* \"#utility.yul\":12318:12324   */\n      dup3\n        /* \"#utility.yul\":12307:12316   */\n      dup6\n        /* \"#utility.yul\":12303:12325   */\n      add\n        /* \"#utility.yul\":12273:12331   */\n      tag_88\n      jump\t// in\n    tag_260:\n        /* \"#utility.yul\":12266:12270   */\n      0x60\n        /* \"#utility.yul\":12259:12264   */\n      dup4\n        /* \"#utility.yul\":12255:12271   */\n      add\n        /* \"#utility.yul\":12248:12332   */\n      mstore\n        /* \"#utility.yul\":12023:12343   */\n      pop\n        /* \"#utility.yul\":12442:12445   */\n      0x80\n        /* \"#utility.yul\":12431:12440   */\n      dup3\n        /* \"#utility.yul\":12427:12446   */\n      add\n        /* \"#utility.yul\":12414:12447   */\n      calldataload\n        /* \"#utility.yul\":12474:12492   */\n      0xffffffffffffffff\n        /* \"#utility.yul\":12466:12472   */\n      dup2\n        /* \"#utility.yul\":12463:12493   */\n      gt\n        /* \"#utility.yul\":12460:12577   */\n      iszero\n      tag_261\n      jumpi\n        /* \"#utility.yul\":12496:12575   */\n      tag_262\n      tag_76\n      jump\t// in\n    tag_262:\n        /* \"#utility.yul\":12460:12577   */\n    tag_261:\n        /* \"#utility.yul\":12616:12721   */\n      tag_263\n        /* \"#utility.yul\":12717:12720   */\n      dup5\n        /* \"#utility.yul\":12708:12714   */\n      dup3\n        /* \"#utility.yul\":12697:12706   */\n      dup6\n        /* \"#utility.yul\":12693:12715   */\n      add\n        /* \"#utility.yul\":12616:12721   */\n      tag_98\n      jump\t// in\n    tag_263:\n        /* \"#utility.yul\":12609:12613   */\n      0x80\n        /* \"#utility.yul\":12602:12607   */\n      dup4\n        /* \"#utility.yul\":12598:12614   */\n      add\n        /* \"#utility.yul\":12591:12722   */\n      mstore\n        /* \"#utility.yul\":12353:12733   */\n      pop\n        /* \"#utility.yul\":11089:12740   */\n      swap3\n      swap2\n      pop\n      pop\n      jump\t// out\n        /* \"#utility.yul\":12746:12975   */\n    tag_43:\n        /* \"#utility.yul\":12860:12869   */\n      0x00\n        /* \"#utility.yul\":12894:12968   */\n      tag_265\n        /* \"#utility.yul\":12953:12967   */\n      calldatasize\n        /* \"#utility.yul\":12946:12951   */\n      dup4\n        /* \"#utility.yul\":12894:12968   */\n      tag_99\n      jump\t// in\n    tag_265:\n        /* \"#utility.yul\":12881:12968   */\n      swap1\n      pop\n        /* \"#utility.yul\":12746:12975   */\n      swap2\n      swap1\n      pop\n      jump\t// out\n        /* \"#utility.yul\":12981:13085   */\n    tag_100:\n        /* \"#utility.yul\":13026:13033   */\n      0x00\n        /* \"#utility.yul\":13055:13079   */\n      tag_267\n        /* \"#utility.yul\":13073:13078   */\n      dup3\n        /* \"#utility.yul\":13055:13079   */\n      tag_68\n      jump\t// in\n    tag_267:\n        /* \"#utility.yul\":13044:13079   */\n      swap1\n      pop\n        /* \"#utility.yul\":12981:13085   */\n      swap2\n      swap1\n      pop\n      jump\t// out\n        /* \"#utility.yul\":13091:13229   */\n    tag_101:\n        /* \"#utility.yul\":13172:13204   */\n      tag_269\n        /* \"#utility.yul\":13198:13203   */\n      dup2\n        /* \"#utility.yul\":13172:13204   */\n      tag_100\n      jump\t// in\n    tag_269:\n        /* \"#utility.yul\":13165:13170   */\n      dup2\n        /* \"#utility.yul\":13162:13205   */\n      eq\n        /* \"#utility.yul\":13152:13223   */\n      tag_270\n      jumpi\n        /* \"#utility.yul\":13219:13220   */\n      0x00\n        /* \"#utility.yul\":13216:13217   */\n      dup1\n        /* \"#utility.yul\":13209:13221   */\n      revert\n        /* \"#utility.yul\":13152:13223   */\n    tag_270:\n        /* \"#utility.yul\":13091:13229   */\n      pop\n      jump\t// out\n        /* \"#utility.yul\":13235:13394   */\n    tag_102:\n        /* \"#utility.yul\":13300:13305   */\n      0x00\n        /* \"#utility.yul\":13331:13337   */\n      dup2\n        /* \"#utility.yul\":13325:13338   */\n      mload\n        /* \"#utility.yul\":13316:13338   */\n      swap1\n      pop\n        /* \"#utility.yul\":13347:13388   */\n      tag_272\n        /* \"#utility.yul\":13382:13387   */\n      dup2\n        /* \"#utility.yul\":13347:13388   */\n      tag_101\n      jump\t// in\n    tag_272:\n        /* \"#utility.yul\":13235:13394   */\n      swap3\n      swap2\n      pop\n      pop\n      jump\t// out\n        /* \"#utility.yul\":13400:13767   */\n    tag_48:\n        /* \"#utility.yul\":13478:13484   */\n      0x00\n        /* \"#utility.yul\":13527:13529   */\n      0x20\n        /* \"#utility.yul\":13515:13524   */\n      dup3\n        /* \"#utility.yul\":13506:13513   */\n      dup5\n        /* \"#utility.yul\":13502:13525   */\n      sub\n        /* \"#utility.yul\":13498:13530   */\n      slt\n        /* \"#utility.yul\":13495:13614   */\n      iszero\n      tag_274\n      jumpi\n        /* \"#utility.yul\":13533:13612   */\n      tag_275\n      tag_54\n      jump\t// in\n    tag_275:\n        /* \"#utility.yul\":13495:13614   */\n    tag_274:\n        /* \"#utility.yul\":13653:13654   */\n      0x00\n        /* \"#utility.yul\":13678:13750   */\n      tag_276\n        /* \"#utility.yul\":13742:13749   */\n      dup5\n        /* \"#utility.yul\":13733:13739   */\n      dup3\n        /* \"#utility.yul\":13722:13731   */\n      dup6\n        /* \"#utility.yul\":13718:13740   */\n      add\n        /* \"#utility.yul\":13678:13750   */\n      tag_102\n      jump\t// in\n    tag_276:\n        /* \"#utility.yul\":13668:13750   */\n      swap2\n      pop\n        /* \"#utility.yul\":13624:13760   */\n      pop\n        /* \"#utility.yul\":13400:13767   */\n      swap3\n      swap2\n      pop\n      pop\n      jump\t// out\n        /* \"#utility.yul\":13773:14081   */\n    tag_103:\n        /* \"#utility.yul\":13835:13839   */\n      0x00\n        /* \"#utility.yul\":13925:13943   */\n      0xffffffffffffffff\n        /* \"#utility.yul\":13917:13923   */\n      dup3\n        /* \"#utility.yul\":13914:13944   */\n      gt\n        /* \"#utility.yul\":13911:13967   */\n      iszero\n      tag_278\n      jumpi\n        /* \"#utility.yul\":13947:13965   */\n      tag_279\n      tag_73\n      jump\t// in\n    tag_279:\n        /* \"#utility.yul\":13911:13967   */\n    tag_278:\n        /* \"#utility.yul\":13985:14014   */\n      tag_280\n        /* \"#utility.yul\":14007:14013   */\n      dup3\n        /* \"#utility.yul\":13985:14014   */\n      tag_64\n      jump\t// in\n    tag_280:\n        /* \"#utility.yul\":13977:14014   */\n      swap1\n      pop\n        /* \"#utility.yul\":14069:14073   */\n      0x20\n        /* \"#utility.yul\":14063:14067   */\n      dup2\n        /* \"#utility.yul\":14059:14074   */\n      add\n        /* \"#utility.yul\":14051:14074   */\n      swap1\n      pop\n        /* \"#utility.yul\":13773:14081   */\n      swap2\n      swap1\n      pop\n      jump\t// out\n        /* \"#utility.yul\":14087:14521   */\n    tag_104:\n        /* \"#utility.yul\":14176:14181   */\n      0x00\n        /* \"#utility.yul\":14201:14267   */\n      tag_282\n        /* \"#utility.yul\":14217:14266   */\n      tag_283\n        /* \"#utility.yul\":14259:14265   */\n      dup5\n        /* \"#utility.yul\":14217:14266   */\n      tag_103\n      jump\t// in\n    tag_283:\n        /* \"#utility.yul\":14201:14267   */\n      tag_75\n      jump\t// in\n    tag_282:\n        /* \"#utility.yul\":14192:14267   */\n      swap1\n      pop\n        /* \"#utility.yul\":14290:14296   */\n      dup3\n        /* \"#utility.yul\":14283:14288   */\n      dup2\n        /* \"#utility.yul\":14276:14297   */\n      mstore\n        /* \"#utility.yul\":14328:14332   */\n      0x20\n        /* \"#utility.yul\":14321:14326   */\n      dup2\n        /* \"#utility.yul\":14317:14333   */\n      add\n        /* \"#utility.yul\":14366:14369   */\n      dup5\n        /* \"#utility.yul\":14357:14363   */\n      dup5\n        /* \"#utility.yul\":14352:14355   */\n      dup5\n        /* \"#utility.yul\":14348:14364   */\n      add\n        /* \"#utility.yul\":14345:14370   */\n      gt\n        /* \"#utility.yul\":14342:14454   */\n      iszero\n      tag_284\n      jumpi\n        /* \"#utility.yul\":14373:14452   */\n      tag_285\n      tag_84\n      jump\t// in\n    tag_285:\n        /* \"#utility.yul\":14342:14454   */\n    tag_284:\n        /* \"#utility.yul\":14463:14515   */\n      tag_286\n        /* \"#utility.yul\":14508:14514   */\n      dup5\n        /* \"#utility.yul\":14503:14506   */\n      dup3\n        /* \"#utility.yul\":14498:14501   */\n      dup6\n        /* \"#utility.yul\":14463:14515   */\n      tag_63\n      jump\t// in\n    tag_286:\n        /* \"#utility.yul\":14182:14521   */\n      pop\n        /* \"#utility.yul\":14087:14521   */\n      swap4\n      swap3\n      pop\n      pop\n      pop\n      jump\t// out\n        /* \"#utility.yul\":14541:14896   */\n    tag_105:\n        /* \"#utility.yul\":14608:14613   */\n      0x00\n        /* \"#utility.yul\":14657:14660   */\n      dup3\n        /* \"#utility.yul\":14650:14654   */\n      0x1f\n        /* \"#utility.yul\":14642:14648   */\n      dup4\n        /* \"#utility.yul\":14638:14655   */\n      add\n        /* \"#utility.yul\":14634:14661   */\n      slt\n        /* \"#utility.yul\":14624:14746   */\n      tag_288\n      jumpi\n        /* \"#utility.yul\":14665:14744   */\n      tag_289\n      tag_83\n      jump\t// in\n    tag_289:\n        /* \"#utility.yul\":14624:14746   */\n    tag_288:\n        /* \"#utility.yul\":14775:14781   */\n      dup2\n        /* \"#utility.yul\":14769:14782   */\n      mload\n        /* \"#utility.yul\":14800:14890   */\n      tag_290\n        /* \"#utility.yul\":14886:14889   */\n      dup5\n        /* \"#utility.yul\":14878:14884   */\n      dup3\n        /* \"#utility.yul\":14871:14875   */\n      0x20\n        /* \"#utility.yul\":14863:14869   */\n      dup7\n        /* \"#utility.yul\":14859:14876   */\n      add\n        /* \"#utility.yul\":14800:14890   */\n      tag_104\n      jump\t// in\n    tag_290:\n        /* \"#utility.yul\":14791:14890   */\n      swap2\n      pop\n        /* \"#utility.yul\":14614:14896   */\n      pop\n        /* \"#utility.yul\":14541:14896   */\n      swap3\n      swap2\n      pop\n      pop\n      jump\t// out\n        /* \"#utility.yul\":14902:15426   */\n    tag_50:\n        /* \"#utility.yul\":14982:14988   */\n      0x00\n        /* \"#utility.yul\":15031:15033   */\n      0x20\n        /* \"#utility.yul\":15019:15028   */\n      dup3\n        /* \"#utility.yul\":15010:15017   */\n      dup5\n        /* \"#utility.yul\":15006:15029   */\n      sub\n        /* \"#utility.yul\":15002:15034   */\n      slt\n        /* \"#utility.yul\":14999:15118   */\n      iszero\n      tag_292\n      jumpi\n        /* \"#utility.yul\":15037:15116   */\n      tag_293\n      tag_54\n      jump\t// in\n    tag_293:\n        /* \"#utility.yul\":14999:15118   */\n    tag_292:\n        /* \"#utility.yul\":15178:15179   */\n      0x00\n        /* \"#utility.yul\":15167:15176   */\n      dup3\n        /* \"#utility.yul\":15163:15180   */\n      add\n        /* \"#utility.yul\":15157:15181   */\n      mload\n        /* \"#utility.yul\":15208:15226   */\n      0xffffffffffffffff\n        /* \"#utility.yul\":15200:15206   */\n      dup2\n        /* \"#utility.yul\":15197:15227   */\n      gt\n        /* \"#utility.yul\":15194:15311   */\n      iszero\n      tag_294\n      jumpi\n        /* \"#utility.yul\":15230:15309   */\n      tag_295\n      tag_55\n      jump\t// in\n    tag_295:\n        /* \"#utility.yul\":15194:15311   */\n    tag_294:\n        /* \"#utility.yul\":15335:15409   */\n      tag_296\n        /* \"#utility.yul\":15401:15408   */\n      dup5\n        /* \"#utility.yul\":15392:15398   */\n      dup3\n        /* \"#utility.yul\":15381:15390   */\n      dup6\n        /* \"#utility.yul\":15377:15399   */\n      add\n        /* \"#utility.yul\":15335:15409   */\n      tag_105\n      jump\t// in\n    tag_296:\n        /* \"#utility.yul\":15325:15409   */\n      swap2\n      pop\n        /* \"#utility.yul\":15128:15419   */\n      pop\n        /* \"#utility.yul\":14902:15426   */\n      swap3\n      swap2\n      pop\n      pop\n      jump\t// out\n        /* \"#utility.yul\":15432:15573   */\n    tag_106:\n        /* \"#utility.yul\":15481:15485   */\n      0x00\n        /* \"#utility.yul\":15504:15507   */\n      dup2\n        /* \"#utility.yul\":15496:15507   */\n      swap1\n      pop\n        /* \"#utility.yul\":15527:15530   */\n      dup2\n        /* \"#utility.yul\":15524:15525   */\n      0x00\n        /* \"#utility.yul\":15517:15531   */\n      mstore\n        /* \"#utility.yul\":15561:15565   */\n      0x20\n        /* \"#utility.yul\":15558:15559   */\n      0x00\n        /* \"#utility.yul\":15548:15566   */\n      keccak256\n        /* \"#utility.yul\":15540:15566   */\n      swap1\n      pop\n        /* \"#utility.yul\":15432:15573   */\n      swap2\n      swap1\n      pop\n      jump\t// out\n        /* \"#utility.yul\":15579:15672   */\n    tag_107:\n        /* \"#utility.yul\":15616:15622   */\n      0x00\n        /* \"#utility.yul\":15663:15665   */\n      0x20\n        /* \"#utility.yul\":15658:15660   */\n      0x1f\n        /* \"#utility.yul\":15651:15656   */\n      dup4\n        /* \"#utility.yul\":15647:15661   */\n      add\n        /* \"#utility.yul\":15643:15666   */\n      div\n        /* \"#utility.yul\":15633:15666   */\n      swap1\n      pop\n        /* \"#utility.yul\":15579:15672   */\n      swap2\n      swap1\n      pop\n      jump\t// out\n        /* \"#utility.yul\":15678:15785   */\n    tag_108:\n        /* \"#utility.yul\":15722:15730   */\n      0x00\n        /* \"#utility.yul\":15772:15777   */\n      dup3\n        /* \"#utility.yul\":15766:15770   */\n      dup3\n        /* \"#utility.yul\":15762:15778   */\n      shl\n        /* \"#utility.yul\":15741:15778   */\n      swap1\n      pop\n        /* \"#utility.yul\":15678:15785   */\n      swap3\n      swap2\n      pop\n      pop\n      jump\t// out\n        /* \"#utility.yul\":15791:16184   */\n    tag_109:\n        /* \"#utility.yul\":15860:15866   */\n      0x00\n        /* \"#utility.yul\":15910:15911   */\n      0x08\n        /* \"#utility.yul\":15898:15908   */\n      dup4\n        /* \"#utility.yul\":15894:15912   */\n      mul\n        /* \"#utility.yul\":15933:16030   */\n      tag_301\n        /* \"#utility.yul\":15963:16029   */\n      0xffffffffffffffffffffffffffffffffffffffffffffffffffffffffffffffff\n        /* \"#utility.yul\":15952:15961   */\n      dup3\n        /* \"#utility.yul\":15933:16030   */\n      tag_108\n      jump\t// in\n    tag_301:\n        /* \"#utility.yul\":16051:16090   */\n      tag_302\n        /* \"#utility.yul\":16081:16089   */\n      dup7\n        /* \"#utility.yul\":16070:16079   */\n      dup4\n        /* \"#utility.yul\":16051:16090   */\n      tag_108\n      jump\t// in\n    tag_302:\n        /* \"#utility.yul\":16039:16090   */\n      swap6\n      pop\n        /* \"#utility.yul\":16123:16127   */\n      dup1\n        /* \"#utility.yul\":16119:16128   */\n      not\n        /* \"#utility.yul\":16112:16117   */\n      dup5\n        /* \"#utility.yul\":16108:16129   */\n      and\n        /* \"#utility.yul\":16099:16129   */\n      swap4\n      pop\n        /* \"#utility.yul\":16172:16176   */\n      dup1\n        /* \"#utility.yul\":16162:16170   */\n      dup7\n        /* \"#utility.yul\":16158:16177   */\n      and\n        /* \"#utility.yul\":16151:16156   */\n      dup5\n        /* \"#utility.yul\":16148:16178   */\n      or\n        /* \"#utility.yul\":16138:16178   */\n      swap3\n      pop\n        /* \"#utility.yul\":15867:16184   */\n      pop\n      pop\n        /* \"#utility.yul\":15791:16184   */\n      swap4\n      swap3\n      pop\n      pop\n      pop\n      jump\t// out\n        /* \"#utility.yul\":16190:16250   */\n    tag_110:\n        /* \"#utility.yul\":16218:16221   */\n      0x00\n        /* \"#utility.yul\":16239:16244   */\n      dup2\n        /* \"#utility.yul\":16232:16244   */\n      swap1\n      pop\n        /* \"#utility.yul\":16190:16250   */\n      swap2\n      swap1\n      pop\n      jump\t// out\n        /* \"#utility.yul\":16256:16398   */\n    tag_111:\n        /* \"#utility.yul\":16306:16315   */\n      0x00\n        /* \"#utility.yul\":16339:16392   */\n      tag_305\n        /* \"#utility.yul\":16357:16391   */\n      tag_306\n        /* \"#utility.yul\":16366:16390   */\n      tag_307\n        /* \"#utility.yul\":16384:16389   */\n      dup5\n        /* \"#utility.yul\":16366:16390   */\n      tag_93\n      jump\t// in\n    tag_307:\n        /* \"#utility.yul\":16357:16391   */\n      tag_110\n      jump\t// in\n    tag_306:\n        /* \"#utility.yul\":16339:16392   */\n      tag_93\n      jump\t// in\n    tag_305:\n        /* \"#utility.yul\":16326:16392   */\n      swap1\n      pop\n        /* \"#utility.yul\":16256:16398   */\n      swap2\n      swap1\n      pop\n      jump\t// out\n        /* \"#utility.yul\":16404:16479   */\n    tag_112:\n        /* \"#utility.yul\":16447:16450   */\n      0x00\n        /* \"#utility.yul\":16468:16473   */\n      dup2\n        /* \"#utility.yul\":16461:16473   */\n      swap1\n      pop\n        /* \"#utility.yul\":16404:16479   */\n      swap2\n      swap1\n      pop\n      jump\t// out\n        /* \"#utility.yul\":16485:16754   */\n    tag_113:\n        /* \"#utility.yul\":16595:16634   */\n      tag_310\n        /* \"#utility.yul\":16626:16633   */\n      dup4\n        /* \"#utility.yul\":16595:16634   */\n      tag_111\n      jump\t// in\n    tag_310:\n        /* \"#utility.yul\":16656:16747   */\n      tag_311\n        /* \"#utility.yul\":16705:16746   */\n      tag_312\n        /* \"#utility.yul\":16729:16745   */\n      dup3\n        /* \"#utility.yul\":16705:16746   */\n      tag_112\n      jump\t// in\n    tag_312:\n        /* \"#utility.yul\":16697:16703   */\n      dup5\n        /* \"#utility.yul\":16690:16694   */\n      dup5\n        /* \"#utility.yul\":16684:16695   */\n      sload\n        /* \"#utility.yul\":16656:16747   */\n      tag_109\n      jump\t// in\n    tag_311:\n        /* \"#utility.yul\":16650:16654   */\n      dup3\n        /* \"#utility.yul\":16643:16748   */\n      sstore\n        /* \"#utility.yul\":16561:16754   */\n      pop\n        /* \"#utility.yul\":16485:16754   */\n      pop\n      pop\n      pop\n      jump\t// out\n        /* \"#utility.yul\":16760:16833   */\n    tag_114:\n        /* \"#utility.yul\":16805:16808   */\n      0x00\n        /* \"#utility.yul\":16760:16833   */\n      swap1\n      jump\t// out\n        /* \"#utility.yul\":16839:17028   */\n    tag_115:\n        /* \"#utility.yul\":16916:16948   */\n      tag_315\n      tag_114\n      jump\t// in\n    tag_315:\n        /* \"#utility.yul\":16957:17022   */\n      tag_316\n        /* \"#utility.yul\":17015:17021   */\n      dup2\n        /* \"#utility.yul\":17007:17013   */\n      dup5\n        /* \"#utility.yul\":17001:17005   */\n      dup5\n        /* \"#utility.yul\":16957:17022   */\n      tag_113\n      jump\t// in\n    tag_316:\n        /* \"#utility.yul\":16892:17028   */\n      pop\n        /* \"#utility.yul\":16839:17028   */\n      pop\n      pop\n      jump\t// out\n        /* \"#utility.yul\":17034:17220   */\n    tag_116:\n        /* \"#utility.yul\":17094:17214   */\n    tag_318:\n        /* \"#utility.yul\":17111:17114   */\n      dup2\n        /* \"#utility.yul\":17104:17109   */\n      dup2\n        /* \"#utility.yul\":17101:17115   */\n      lt\n        /* \"#utility.yul\":17094:17214   */\n      iszero\n      tag_320\n      jumpi\n        /* \"#utility.yul\":17165:17204   */\n      tag_321\n        /* \"#utility.yul\":17202:17203   */\n      0x00\n        /* \"#utility.yul\":17195:17200   */\n      dup3\n        /* \"#utility.yul\":17165:17204   */\n      tag_115\n      jump\t// in\n    tag_321:\n        /* \"#utility.yul\":17138:17139   */\n      0x01\n        /* \"#utility.yul\":17131:17136   */\n      dup2\n        /* \"#utility.yul\":17127:17140   */\n      add\n        /* \"#utility.yul\":17118:17140   */\n      swap1\n      pop\n        /* \"#utility.yul\":17094:17214   */\n      jump(tag_318)\n    tag_320:\n        /* \"#utility.yul\":17034:17220   */\n      pop\n      pop\n      jump\t// out\n        /* \"#utility.yul\":17226:17769   */\n    tag_117:\n        /* \"#utility.yul\":17327:17329   */\n      0x1f\n        /* \"#utility.yul\":17322:17325   */\n      dup3\n        /* \"#utility.yul\":17319:17330   */\n      gt\n        /* \"#utility.yul\":17316:17762   */\n      iszero\n      tag_323\n      jumpi\n        /* \"#utility.yul\":17361:17399   */\n      tag_324\n        /* \"#utility.yul\":17393:17398   */\n      dup2\n        /* \"#utility.yul\":17361:17399   */\n      tag_106\n      jump\t// in\n    tag_324:\n        /* \"#utility.yul\":17445:17474   */\n      tag_325\n        /* \"#utility.yul\":17463:17473   */\n      dup5\n        /* \"#utility.yul\":17445:17474   */\n      tag_107\n      jump\t// in\n    tag_325:\n        /* \"#utility.yul\":17435:17443   */\n      dup2\n        /* \"#utility.yul\":17431:17475   */\n      add\n        /* \"#utility.yul\":17628:17630   */\n      0x20\n        /* \"#utility.yul\":17616:17626   */\n      dup6\n        /* \"#utility.yul\":17613:17631   */\n      lt\n        /* \"#utility.yul\":17610:17659   */\n      iszero\n      tag_326\n      jumpi\n        /* \"#utility.yul\":17649:17657   */\n      dup2\n        /* \"#utility.yul\":17634:17657   */\n      swap1\n      pop\n        /* \"#utility.yul\":17610:17659   */\n    tag_326:\n        /* \"#utility.yul\":17672:17752   */\n      tag_327\n        /* \"#utility.yul\":17728:17750   */\n      tag_328\n        /* \"#utility.yul\":17746:17749   */\n      dup6\n        /* \"#utility.yul\":17728:17750   */\n      tag_107\n      jump\t// in\n    tag_328:\n        /* \"#utility.yul\":17718:17726   */\n      dup4\n        /* \"#utility.yul\":17714:17751   */\n      add\n        /* \"#utility.yul\":17701:17712   */\n      dup3\n        /* \"#utility.yul\":17672:17752   */\n      tag_116\n      jump\t// in\n    tag_327:\n        /* \"#utility.yul\":17331:17762   */\n      pop\n      pop\n        /* \"#utility.yul\":17316:17762   */\n    tag_323:\n        /* \"#utility.yul\":17226:17769   */\n      pop\n      pop\n      pop\n      jump\t// out\n        /* \"#utility.yul\":17775:17892   */\n    tag_118:\n        /* \"#utility.yul\":17829:17837   */\n      0x00\n        /* \"#utility.yul\":17879:17884   */\n      dup3\n        /* \"#utility.yul\":17873:17877   */\n      dup3\n        /* \"#utility.yul\":17869:17885   */\n      shr\n        /* \"#utility.yul\":17848:17885   */\n      swap1\n      pop\n        /* \"#utility.yul\":17775:17892   */\n      swap3\n      swap2\n      pop\n      pop\n      jump\t// out\n        /* \"#utility.yul\":17898:18067   */\n    tag_119:\n        /* \"#utility.yul\":17942:17948   */\n      0x00\n        /* \"#utility.yul\":17975:18026   */\n      tag_331\n        /* \"#utility.yul\":18023:18024   */\n      0x00\n        /* \"#utility.yul\":18019:18025   */\n      not\n        /* \"#utility.yul\":18011:18016   */\n      dup5\n        /* \"#utility.yul\":18008:18009   */\n      0x08\n        /* \"#utility.yul\":18004:18017   */\n      mul\n        /* \"#utility.yul\":17975:18026   */\n      tag_118\n      jump\t// in\n    tag_331:\n        /* \"#utility.yul\":17971:18027   */\n      not\n        /* \"#utility.yul\":18056:18060   */\n      dup1\n        /* \"#utility.yul\":18050:18054   */\n      dup4\n        /* \"#utility.yul\":18046:18061   */\n      and\n        /* \"#utility.yul\":18036:18061   */\n      swap2\n      pop\n        /* \"#utility.yul\":17949:18067   */\n      pop\n        /* \"#utility.yul\":17898:18067   */\n      swap3\n      swap2\n      pop\n      pop\n      jump\t// out\n        /* \"#utility.yul\":18072:18367   */\n    tag_120:\n        /* \"#utility.yul\":18148:18152   */\n      0x00\n        /* \"#utility.yul\":18294:18323   */\n      tag_333\n        /* \"#utility.yul\":18319:18322   */\n      dup4\n        /* \"#utility.yul\":18313:18317   */\n      dup4\n        /* \"#utility.yul\":18294:18323   */\n      tag_119\n      jump\t// in\n    tag_333:\n        /* \"#utility.yul\":18286:18323   */\n      swap2\n      pop\n        /* \"#utility.yul\":18356:18359   */\n      dup3\n        /* \"#utility.yul\":18353:18354   */\n      0x02\n        /* \"#utility.yul\":18349:18360   */\n      mul\n        /* \"#utility.yul\":18343:18347   */\n      dup3\n        /* \"#utility.yul\":18340:18361   */\n      or\n        /* \"#utility.yul\":18332:18361   */\n      swap1\n      pop\n        /* \"#utility.yul\":18072:18367   */\n      swap3\n      swap2\n      pop\n      pop\n      jump\t// out\n        /* \"#utility.yul\":18372:19767   */\n    tag_52:\n        /* \"#utility.yul\":18489:18526   */\n      tag_335\n        /* \"#utility.yul\":18522:18525   */\n      dup3\n        /* \"#utility.yul\":18489:18526   */\n      tag_61\n      jump\t// in\n    tag_335:\n        /* \"#utility.yul\":18591:18609   */\n      0xffffffffffffffff\n        /* \"#utility.yul\":18583:18589   */\n      dup2\n        /* \"#utility.yul\":18580:18610   */\n      gt\n        /* \"#utility.yul\":18577:18633   */\n      iszero\n      tag_336\n      jumpi\n        /* \"#utility.yul\":18613:18631   */\n      tag_337\n      tag_73\n      jump\t// in\n    tag_337:\n        /* \"#utility.yul\":18577:18633   */\n    tag_336:\n        /* \"#utility.yul\":18657:18695   */\n      tag_338\n        /* \"#utility.yul\":18689:18693   */\n      dup3\n        /* \"#utility.yul\":18683:18694   */\n      sload\n        /* \"#utility.yul\":18657:18695   */\n      tag_32\n      jump\t// in\n    tag_338:\n        /* \"#utility.yul\":18742:18809   */\n      tag_339\n        /* \"#utility.yul\":18802:18808   */\n      dup3\n        /* \"#utility.yul\":18794:18800   */\n      dup3\n        /* \"#utility.yul\":18788:18792   */\n      dup6\n        /* \"#utility.yul\":18742:18809   */\n      tag_117\n      jump\t// in\n    tag_339:\n        /* \"#utility.yul\":18836:18837   */\n      0x00\n        /* \"#utility.yul\":18860:18864   */\n      0x20\n        /* \"#utility.yul\":18847:18864   */\n      swap1\n      pop\n        /* \"#utility.yul\":18892:18894   */\n      0x1f\n        /* \"#utility.yul\":18884:18890   */\n      dup4\n        /* \"#utility.yul\":18881:18895   */\n      gt\n        /* \"#utility.yul\":18909:18910   */\n      0x01\n        /* \"#utility.yul\":18904:19522   */\n      dup2\n      eq\n      tag_341\n      jumpi\n        /* \"#utility.yul\":19566:19567   */\n      0x00\n        /* \"#utility.yul\":19583:19589   */\n      dup5\n        /* \"#utility.yul\":19580:19657   */\n      iszero\n      tag_342\n      jumpi\n        /* \"#utility.yul\":19632:19641   */\n      dup3\n        /* \"#utility.yul\":19627:19630   */\n      dup8\n        /* \"#utility.yul\":19623:19642   */\n      add\n        /* \"#utility.yul\":19617:19643   */\n      mload\n        /* \"#utility.yul\":19608:19643   */\n      swap1\n      pop\n        /* \"#utility.yul\":19580:19657   */\n    tag_342:\n        /* \"#utility.yul\":19683:19750   */\n      tag_343\n        /* \"#utility.yul\":19743:19749   */\n      dup6\n        /* \"#utility.yul\":19736:19741   */\n      dup3\n        /* \"#utility.yul\":19683:19750   */\n      tag_120\n      jump\t// in\n    tag_343:\n        /* \"#utility.yul\":19677:19681   */\n      dup7\n        /* \"#utility.yul\":19670:19751   */\n      sstore\n        /* \"#utility.yul\":19539:19761   */\n      pop\n        /* \"#utility.yul\":18874:19761   */\n      jump(tag_340)\n        /* \"#utility.yul\":18904:19522   */\n    tag_341:\n        /* \"#utility.yul\":18956:18960   */\n      0x1f\n        /* \"#utility.yul\":18952:18961   */\n      not\n        /* \"#utility.yul\":18944:18950   */\n      dup5\n        /* \"#utility.yul\":18940:18962   */\n      and\n        /* \"#utility.yul\":18990:19027   */\n      tag_344\n        /* \"#utility.yul\":19022:19026   */\n      dup7\n        /* \"#utility.yul\":18990:19027   */\n      tag_106\n      jump\t// in\n    tag_344:\n        /* \"#utility.yul\":19049:19050   */\n      0x00\n        /* \"#utility.yul\":19063:19271   */\n    tag_345:\n        /* \"#utility.yul\":19077:19084   */\n      dup3\n        /* \"#utility.yul\":19074:19075   */\n      dup2\n        /* \"#utility.yul\":19071:19085   */\n      lt\n        /* \"#utility.yul\":19063:19271   */\n      iszero\n      tag_347\n      jumpi\n        /* \"#utility.yul\":19156:19165   */\n      dup5\n        /* \"#utility.yul\":19151:19154   */\n      dup10\n        /* \"#utility.yul\":19147:19166   */\n      add\n        /* \"#utility.yul\":19141:19167   */\n      mload\n        /* \"#utility.yul\":19133:19139   */\n      dup3\n        /* \"#utility.yul\":19126:19168   */\n      sstore\n        /* \"#utility.yul\":19207:19208   */\n      0x01\n        /* \"#utility.yul\":19199:19205   */\n      dup3\n        /* \"#utility.yul\":19195:19209   */\n      add\n        /* \"#utility.yul\":19185:19209   */\n      swap2\n      pop\n        /* \"#utility.yul\":19254:19256   */\n      0x20\n        /* \"#utility.yul\":19243:19252   */\n      dup6\n        /* \"#utility.yul\":19239:19257   */\n      add\n        /* \"#utility.yul\":19226:19257   */\n      swap5\n      pop\n        /* \"#utility.yul\":19100:19104   */\n      0x20\n        /* \"#utility.yul\":19097:19098   */\n      dup2\n        /* \"#utility.yul\":19093:19105   */\n      add\n        /* \"#utility.yul\":19088:19105   */\n      swap1\n      pop\n        /* \"#utility.yul\":19063:19271   */\n      jump(tag_345)\n    tag_347:\n        /* \"#utility.yul\":19299:19305   */\n      dup7\n        /* \"#utility.yul\":19290:19297   */\n      dup4\n        /* \"#utility.yul\":19287:19306   */\n      lt\n        /* \"#utility.yul\":19284:19463   */\n      iszero\n      tag_348\n      jumpi\n        /* \"#utility.yul\":19357:19366   */\n      dup5\n        /* \"#utility.yul\":19352:19355   */\n      dup10\n        /* \"#utility.yul\":19348:19367   */\n      add\n        /* \"#utility.yul\":19342:19368   */\n      mload\n        /* \"#utility.yul\":19400:19448   */\n      tag_349\n        /* \"#utility.yul\":19442:19446   */\n      0x1f\n        /* \"#utility.yul\":19434:19440   */\n      dup10\n        /* \"#utility.yul\":19430:19447   */\n      and\n        /* \"#utility.yul\":19419:19428   */\n      dup3\n        /* \"#utility.yul\":19400:19448   */\n      tag_119\n      jump\t// in\n    tag_349:\n        /* \"#utility.yul\":19392:19398   */\n      dup4\n        /* \"#utility.yul\":19385:19449   */\n      sstore\n        /* \"#utility.yul\":19307:19463   */\n      pop\n        /* \"#utility.yul\":19284:19463   */\n    tag_348:\n        /* \"#utility.yul\":19509:19510   */\n      0x01\n        /* \"#utility.yul\":19505:19506   */\n      0x02\n        /* \"#utility.yul\":19497:19503   */\n      dup9\n        /* \"#utility.yul\":19493:19507   */\n      mul\n        /* \"#utility.yul\":19489:19511   */\n      add\n        /* \"#utility.yul\":19483:19487   */\n      dup9\n        /* \"#utility.yul\":19476:19512   */\n      sstore\n        /* \"#utility.yul\":18911:19522   */\n      pop\n      pop\n      pop\n        /* \"#utility.yul\":18874:19761   */\n    tag_340:\n      pop\n        /* \"#utility.yul\":18464:19767   */\n      pop\n      pop\n      pop\n        /* \"#utility.yul\":18372:19767   */\n      pop\n      pop\n      jump\t// out\n\n    auxdata: 0xa2646970667358221220fa8380ea65e4cdd269d34c7e7acf054a94fb2d01c2928a7949c1bf14805fde6b64736f6c63430008130033\n}\n",
				"bytecode": {
					"linkReferences": {},
					"object": "60a06040523480156200001157600080fd5b506040516200107f3803806200107f833981810160405281019062000037919062000153565b80600073ffffffffffffffffffffffffffffffffffffffff168173ffffffffffffffffffffffffffffffffffffffff1603620000ad5760006040517fd7f73334000000000000000000000000000000000000000000000000000000008152600401620000a4919062000196565b60405180910390fd5b8073ffffffffffffffffffffffffffffffffffffffff1660808173ffffffffffffffffffffffffffffffffffffffff16815250505050620001b3565b600080fd5b600073ffffffffffffffffffffffffffffffffffffffff82169050919050565b60006200011b82620000ee565b9050919050565b6200012d816200010e565b81146200013957600080fd5b50565b6000815190506200014d8162000122565b92915050565b6000602082840312156200016c576200016b620000e9565b5b60006200017c848285016200013c565b91505092915050565b62000190816200010e565b82525050565b6000602082019050620001ad600083018462000185565b92915050565b608051610ea9620001d660003960008181610264015261030b0152610ea96000f3fe608060405234801561001057600080fd5b50600436106100575760003560e01c806301ffc9a71461005c57806334a077981461008c57806385572ffb146100aa578063b0f479a1146100c6578063e1214815146100e4575b600080fd5b61007660048036038101906100719190610440565b610102565b6040516100839190610488565b60405180910390f35b6100946101d4565b6040516100a19190610533565b60405180910390f35b6100c460048036038101906100bf9190610579565b610262565b005b6100ce610307565b6040516100db9190610603565b60405180910390f35b6100ec61032f565b6040516100f99190610603565b60405180910390f35b60007f85572ffb000000000000000000000000000000000000000000000000000000007bffffffffffffffffffffffffffffffffffffffffffffffffffffffff1916827bffffffffffffffffffffffffffffffffffffffffffffffffffffffff191614806101cd57507f01ffc9a7000000000000000000000000000000000000000000000000000000007bffffffffffffffffffffffffffffffffffffffffffffffffffffffff1916827bffffffffffffffffffffffffffffffffffffffffffffffffffffffff1916145b9050919050565b600180546101e19061064d565b80601f016020809104026020016040519081016040528092919081815260200182805461020d9061064d565b801561025a5780601f1061022f5761010080835404028352916020019161025a565b820191906000526020600020905b81548152906001019060200180831161023d57829003601f168201915b505050505081565b7f000000000000000000000000000000000000000000000000000000000000000073ffffffffffffffffffffffffffffffffffffffff163373ffffffffffffffffffffffffffffffffffffffff16146102f257336040517fd7f733340000000000000000000000000000000000000000000000000000000081526004016102e99190610603565b60405180910390fd5b610304816102ff90610a8d565b610353565b50565b60007f0000000000000000000000000000000000000000000000000000000000000000905090565b60008054906101000a900473ffffffffffffffffffffffffffffffffffffffff1681565b806040015180602001905181019061036b9190610ade565b6000806101000a81548173ffffffffffffffffffffffffffffffffffffffff021916908373ffffffffffffffffffffffffffffffffffffffff16021790555080606001518060200190518101906103c29190610bac565b600190816103d09190610da1565b5050565b6000604051905090565b600080fd5b600080fd5b60007fffffffff0000000000000000000000000000000000000000000000000000000082169050919050565b61041d816103e8565b811461042857600080fd5b50565b60008135905061043a81610414565b92915050565b600060208284031215610456576104556103de565b5b60006104648482850161042b565b91505092915050565b60008115159050919050565b6104828161046d565b82525050565b600060208201905061049d6000830184610479565b92915050565b600081519050919050565b600082825260208201905092915050565b60005b838110156104dd5780820151818401526020810190506104c2565b60008484015250505050565b6000601f19601f8301169050919050565b6000610505826104a3565b61050f81856104ae565b935061051f8185602086016104bf565b610528816104e9565b840191505092915050565b6000602082019050818103600083015261054d81846104fa565b905092915050565b600080fd5b600060a082840312156105705761056f610555565b5b81905092915050565b60006020828403121561058f5761058e6103de565b5b600082013567ffffffffffffffff8111156105ad576105ac6103e3565b5b6105b98482850161055a565b91505092915050565b600073ffffffffffffffffffffffffffffffffffffffff82169050919050565b60006105ed826105c2565b9050919050565b6105fd816105e2565b82525050565b600060208201905061061860008301846105f4565b92915050565b7f4e487b7100000000000000000000000000000000000000000000000000000000600052602260045260246000fd5b6000600282049050600182168061066557607f821691505b6020821081036106785761067761061e565b5b50919050565b600080fd5b7f4e487b7100000000000000000000000000000000000000000000000000000000600052604160045260246000fd5b6106bb826104e9565b810181811067ffffffffffffffff821117156106da576106d9610683565b5b80604052505050565b60006106ed6103d4565b90506106f982826106b2565b919050565b600080fd5b6000819050919050565b61071681610703565b811461072157600080fd5b50565b6000813590506107338161070d565b92915050565b600067ffffffffffffffff82169050919050565b61075681610739565b811461076157600080fd5b50565b6000813590506107738161074d565b92915050565b600080fd5b600080fd5b600067ffffffffffffffff82111561079e5761079d610683565b5b6107a7826104e9565b9050602081019050919050565b82818337600083830152505050565b60006107d66107d184610783565b6106e3565b9050828152602081018484840111156107f2576107f161077e565b5b6107fd8482856107b4565b509392505050565b600082601f83011261081a57610819610779565b5b813561082a8482602086016107c3565b91505092915050565b600067ffffffffffffffff82111561084e5761084d610683565b5b602082029050602081019050919050565b600080fd5b61086d816105e2565b811461087857600080fd5b50565b60008135905061088a81610864565b92915050565b6000819050919050565b6108a381610890565b81146108ae57600080fd5b50565b6000813590506108c08161089a565b92915050565b6000604082840312156108dc576108db61067e565b5b6108e660406106e3565b905060006108f68482850161087b565b600083015250602061090a848285016108b1565b60208301525092915050565b600061092961092484610833565b6106e3565b9050808382526020820190506040840283018581111561094c5761094b61085f565b5b835b81811015610975578061096188826108c6565b84526020840193505060408101905061094e565b5050509392505050565b600082601f83011261099457610993610779565b5b81356109a4848260208601610916565b91505092915050565b600060a082840312156109c3576109c261067e565b5b6109cd60a06106e3565b905060006109dd84828501610724565b60008301525060206109f184828501610764565b602083015250604082013567ffffffffffffffff811115610a1557610a146106fe565b5b610a2184828501610805565b604083015250606082013567ffffffffffffffff811115610a4557610a446106fe565b5b610a5184828501610805565b606083015250608082013567ffffffffffffffff811115610a7557610a746106fe565b5b610a818482850161097f565b60808301525092915050565b6000610a9936836109ad565b9050919050565b6000610aab826105c2565b9050919050565b610abb81610aa0565b8114610ac657600080fd5b50565b600081519050610ad881610ab2565b92915050565b600060208284031215610af457610af36103de565b5b6000610b0284828501610ac9565b91505092915050565b600067ffffffffffffffff821115610b2657610b25610683565b5b610b2f826104e9565b9050602081019050919050565b6000610b4f610b4a84610b0b565b6106e3565b905082815260208101848484011115610b6b57610b6a61077e565b5b610b768482856104bf565b509392505050565b600082601f830112610b9357610b92610779565b5b8151610ba3848260208601610b3c565b91505092915050565b600060208284031215610bc257610bc16103de565b5b600082015167ffffffffffffffff811115610be057610bdf6103e3565b5b610bec84828501610b7e565b91505092915050565b60008190508160005260206000209050919050565b60006020601f8301049050919050565b600082821b905092915050565b600060088302610c577fffffffffffffffffffffffffffffffffffffffffffffffffffffffffffffffff82610c1a565b610c618683610c1a565b95508019841693508086168417925050509392505050565b6000819050919050565b6000610c9e610c99610c9484610890565b610c79565b610890565b9050919050565b6000819050919050565b610cb883610c83565b610ccc610cc482610ca5565b848454610c27565b825550505050565b600090565b610ce1610cd4565b610cec818484610caf565b505050565b5b81811015610d1057610d05600082610cd9565b600181019050610cf2565b5050565b601f821115610d5557610d2681610bf5565b610d2f84610c0a565b81016020851015610d3e578190505b610d52610d4a85610c0a565b830182610cf1565b50505b505050565b600082821c905092915050565b6000610d7860001984600802610d5a565b1980831691505092915050565b6000610d918383610d67565b9150826002028217905092915050565b610daa826104a3565b67ffffffffffffffff811115610dc357610dc2610683565b5b610dcd825461064d565b610dd8828285610d14565b600060209050601f831160018114610e0b5760008415610df9578287015190505b610e038582610d85565b865550610e6b565b601f198416610e1986610bf5565b60005b82811015610e4157848901518255600182019150602085019450602081019050610e1c565b86831015610e5e5784890151610e5a601f891682610d67565b8355505b6001600288020188555050505b50505050505056fea2646970667358221220fa8380ea65e4cdd269d34c7e7acf054a94fb2d01c2928a7949c1bf14805fde6b64736f6c63430008130033",
					"opcodes": "PUSH1 0xA0 PUSH1 0x40 MSTORE CALLVALUE DUP1 ISZERO PUSH3 0x11 JUMPI PUSH1 0x0 DUP1 REVERT JUMPDEST POP PUSH1 0x40 MLOAD PUSH3 0x107F CODESIZE SUB DUP1 PUSH3 0x107F DUP4 CODECOPY DUP2 DUP2 ADD PUSH1 0x40 MSTORE DUP2 ADD SWAP1 PUSH3 0x37 SWAP2 SWAP1 PUSH3 0x153 JUMP JUMPDEST DUP1 PUSH1 0x0 PUSH20 0xFFFFFFFFFFFFFFFFFFFFFFFFFFFFFFFFFFFFFFFF AND DUP2 PUSH20 0xFFFFFFFFFFFFFFFFFFFFFFFFFFFFFFFFFFFFFFFF AND SUB PUSH3 0xAD JUMPI PUSH1 0x0 PUSH1 0x40 MLOAD PUSH32 0xD7F7333400000000000000000000000000000000000000000000000000000000 DUP2 MSTORE PUSH1 0x4 ADD PUSH3 0xA4 SWAP2 SWAP1 PUSH3 0x196 JUMP JUMPDEST PUSH1 0x40 MLOAD DUP1 SWAP2 SUB SWAP1 REVERT JUMPDEST DUP1 PUSH20 0xFFFFFFFFFFFFFFFFFFFFFFFFFFFFFFFFFFFFFFFF AND PUSH1 0x80 DUP2 PUSH20 0xFFFFFFFFFFFFFFFFFFFFFFFFFFFFFFFFFFFFFFFF AND DUP2 MSTORE POP POP POP POP PUSH3 0x1B3 JUMP JUMPDEST PUSH1 0x0 DUP1 REVERT JUMPDEST PUSH1 0x0 PUSH20 0xFFFFFFFFFFFFFFFFFFFFFFFFFFFFFFFFFFFFFFFF DUP3 AND SWAP1 POP SWAP2 SWAP1 POP JUMP JUMPDEST PUSH1 0x0 PUSH3 0x11B DUP3 PUSH3 0xEE JUMP JUMPDEST SWAP1 POP SWAP2 SWAP1 POP JUMP JUMPDEST PUSH3 0x12D DUP2 PUSH3 0x10E JUMP JUMPDEST DUP2 EQ PUSH3 0x139 JUMPI PUSH1 0x0 DUP1 REVERT JUMPDEST POP JUMP JUMPDEST PUSH1 0x0 DUP2 MLOAD SWAP1 POP PUSH3 0x14D DUP2 PUSH3 0x122 JUMP JUMPDEST SWAP3 SWAP2 POP POP JUMP JUMPDEST PUSH1 0x0 PUSH1 0x20 DUP3 DUP5 SUB SLT ISZERO PUSH3 0x16C JUMPI PUSH3 0x16B PUSH3 0xE9 JUMP JUMPDEST JUMPDEST PUSH1 0x0 PUSH3 0x17C DUP5 DUP3 DUP6 ADD PUSH3 0x13C JUMP JUMPDEST SWAP2 POP POP SWAP3 SWAP2 POP POP JUMP JUMPDEST PUSH3 0x190 DUP2 PUSH3 0x10E JUMP JUMPDEST DUP3 MSTORE POP POP JUMP JUMPDEST PUSH1 0x0 PUSH1 0x20 DUP3 ADD SWAP1 POP PUSH3 0x1AD PUSH1 0x0 DUP4 ADD DUP5 PUSH3 0x185 JUMP JUMPDEST SWAP3 SWAP2 POP POP JUMP JUMPDEST PUSH1 0x80 MLOAD PUSH2 0xEA9 PUSH3 0x1D6 PUSH1 0x0 CODECOPY PUSH1 0x0 DUP2 DUP2 PUSH2 0x264 ADD MSTORE PUSH2 0x30B ADD MSTORE PUSH2 0xEA9 PUSH1 0x0 RETURN INVALID PUSH1 0x80 PUSH1 0x40 MSTORE CALLVALUE DUP1 ISZERO PUSH2 0x10 JUMPI PUSH1 0x0 DUP1 REVERT JUMPDEST POP PUSH1 0x4 CALLDATASIZE LT PUSH2 0x57 JUMPI PUSH1 0x0 CALLDATALOAD PUSH1 0xE0 SHR DUP1 PUSH4 0x1FFC9A7 EQ PUSH2 0x5C JUMPI DUP1 PUSH4 0x34A07798 EQ PUSH2 0x8C JUMPI DUP1 PUSH4 0x85572FFB EQ PUSH2 0xAA JUMPI DUP1 PUSH4 0xB0F479A1 EQ PUSH2 0xC6 JUMPI DUP1 PUSH4 0xE1214815 EQ PUSH2 0xE4 JUMPI JUMPDEST PUSH1 0x0 DUP1 REVERT JUMPDEST PUSH2 0x76 PUSH1 0x4 DUP1 CALLDATASIZE SUB DUP2 ADD SWAP1 PUSH2 0x71 SWAP2 SWAP1 PUSH2 0x440 JUMP JUMPDEST PUSH2 0x102 JUMP JUMPDEST PUSH1 0x40 MLOAD PUSH2 0x83 SWAP2 SWAP1 PUSH2 0x488 JUMP JUMPDEST PUSH1 0x40 MLOAD DUP1 SWAP2 SUB SWAP1 RETURN JUMPDEST PUSH2 0x94 PUSH2 0x1D4 JUMP JUMPDEST PUSH1 0x40 MLOAD PUSH2 0xA1 SWAP2 SWAP1 PUSH2 0x533 JUMP JUMPDEST PUSH1 0x40 MLOAD DUP1 SWAP2 SUB SWAP1 RETURN JUMPDEST PUSH2 0xC4 PUSH1 0x4 DUP1 CALLDATASIZE SUB DUP2 ADD SWAP1 PUSH2 0xBF SWAP2 SWAP1 PUSH2 0x579 JUMP JUMPDEST PUSH2 0x262 JUMP JUMPDEST STOP JUMPDEST PUSH2 0xCE PUSH2 0x307 JUMP JUMPDEST PUSH1 0x40 MLOAD PUSH2 0xDB SWAP2 SWAP1 PUSH2 0x603 JUMP JUMPDEST PUSH1 0x40 MLOAD DUP1 SWAP2 SUB SWAP1 RETURN JUMPDEST PUSH2 0xEC PUSH2 0x32F JUMP JUMPDEST PUSH1 0x40 MLOAD PUSH2 0xF9 SWAP2 SWAP1 PUSH2 0x603 JUMP JUMPDEST PUSH1 0x40 MLOAD DUP1 SWAP2 SUB SWAP1 RETURN JUMPDEST PUSH1 0x0 PUSH32 0x85572FFB00000000000000000000000000000000000000000000000000000000 PUSH28 0xFFFFFFFFFFFFFFFFFFFFFFFFFFFFFFFFFFFFFFFFFFFFFFFFFFFFFFFF NOT AND DUP3 PUSH28 0xFFFFFFFFFFFFFFFFFFFFFFFFFFFFFFFFFFFFFFFFFFFFFFFFFFFFFFFF NOT AND EQ DUP1 PUSH2 0x1CD JUMPI POP PUSH32 0x1FFC9A700000000000000000000000000000000000000000000000000000000 PUSH28 0xFFFFFFFFFFFFFFFFFFFFFFFFFFFFFFFFFFFFFFFFFFFFFFFFFFFFFFFF NOT AND DUP3 PUSH28 0xFFFFFFFFFFFFFFFFFFFFFFFFFFFFFFFFFFFFFFFFFFFFFFFFFFFFFFFF NOT AND EQ JUMPDEST SWAP1 POP SWAP2 SWAP1 POP JUMP JUMPDEST PUSH1 0x1 DUP1 SLOAD PUSH2 0x1E1 SWAP1 PUSH2 0x64D JUMP JUMPDEST DUP1 PUSH1 0x1F ADD PUSH1 0x20 DUP1 SWAP2 DIV MUL PUSH1 0x20 ADD PUSH1 0x40 MLOAD SWAP1 DUP2 ADD PUSH1 0x40 MSTORE DUP1 SWAP3 SWAP2 SWAP1 DUP2 DUP2 MSTORE PUSH1 0x20 ADD DUP3 DUP1 SLOAD PUSH2 0x20D SWAP1 PUSH2 0x64D JUMP JUMPDEST DUP1 ISZERO PUSH2 0x25A JUMPI DUP1 PUSH1 0x1F LT PUSH2 0x22F JUMPI PUSH2 0x100 DUP1 DUP4 SLOAD DIV MUL DUP4 MSTORE SWAP2 PUSH1 0x20 ADD SWAP2 PUSH2 0x25A JUMP JUMPDEST DUP3 ADD SWAP2 SWAP1 PUSH1 0x0 MSTORE PUSH1 0x20 PUSH1 0x0 KECCAK256 SWAP1 JUMPDEST DUP2 SLOAD DUP2 MSTORE SWAP1 PUSH1 0x1 ADD SWAP1 PUSH1 0x20 ADD DUP1 DUP4 GT PUSH2 0x23D JUMPI DUP3 SWAP1 SUB PUSH1 0x1F AND DUP3 ADD SWAP2 JUMPDEST POP POP POP POP POP DUP2 JUMP JUMPDEST PUSH32 0x0 PUSH20 0xFFFFFFFFFFFFFFFFFFFFFFFFFFFFFFFFFFFFFFFF AND CALLER PUSH20 0xFFFFFFFFFFFFFFFFFFFFFFFFFFFFFFFFFFFFFFFF AND EQ PUSH2 0x2F2 JUMPI CALLER PUSH1 0x40 MLOAD PUSH32 0xD7F7333400000000000000000000000000000000000000000000000000000000 DUP2 MSTORE PUSH1 0x4 ADD PUSH2 0x2E9 SWAP2 SWAP1 PUSH2 0x603 JUMP JUMPDEST PUSH1 0x40 MLOAD DUP1 SWAP2 SUB SWAP1 REVERT JUMPDEST PUSH2 0x304 DUP2 PUSH2 0x2FF SWAP1 PUSH2 0xA8D JUMP JUMPDEST PUSH2 0x353 JUMP JUMPDEST POP JUMP JUMPDEST PUSH1 0x0 PUSH32 0x0 SWAP1 POP SWAP1 JUMP JUMPDEST PUSH1 0x0 DUP1 SLOAD SWAP1 PUSH2 0x100 EXP SWAP1 DIV PUSH20 0xFFFFFFFFFFFFFFFFFFFFFFFFFFFFFFFFFFFFFFFF AND DUP2 JUMP JUMPDEST DUP1 PUSH1 0x40 ADD MLOAD DUP1 PUSH1 0x20 ADD SWAP1 MLOAD DUP2 ADD SWAP1 PUSH2 0x36B SWAP2 SWAP1 PUSH2 0xADE JUMP JUMPDEST PUSH1 0x0 DUP1 PUSH2 0x100 EXP DUP2 SLOAD DUP2 PUSH20 0xFFFFFFFFFFFFFFFFFFFFFFFFFFFFFFFFFFFFFFFF MUL NOT AND SWAP1 DUP4 PUSH20 0xFFFFFFFFFFFFFFFFFFFFFFFFFFFFFFFFFFFFFFFF AND MUL OR SWAP1 SSTORE POP DUP1 PUSH1 0x60 ADD MLOAD DUP1 PUSH1 0x20 ADD SWAP1 MLOAD DUP2 ADD SWAP1 PUSH2 0x3C2 SWAP2 SWAP1 PUSH2 0xBAC JUMP JUMPDEST PUSH1 0x1 SWAP1 DUP2 PUSH2 0x3D0 SWAP2 SWAP1 PUSH2 0xDA1 JUMP JUMPDEST POP POP JUMP JUMPDEST PUSH1 0x0 PUSH1 0x40 MLOAD SWAP1 POP SWAP1 JUMP JUMPDEST PUSH1 0x0 DUP1 REVERT JUMPDEST PUSH1 0x0 DUP1 REVERT JUMPDEST PUSH1 0x0 PUSH32 0xFFFFFFFF00000000000000000000000000000000000000000000000000000000 DUP3 AND SWAP1 POP SWAP2 SWAP1 POP JUMP JUMPDEST PUSH2 0x41D DUP2 PUSH2 0x3E8 JUMP JUMPDEST DUP2 EQ PUSH2 0x428 JUMPI PUSH1 0x0 DUP1 REVERT JUMPDEST POP JUMP JUMPDEST PUSH1 0x0 DUP2 CALLDATALOAD SWAP1 POP PUSH2 0x43A DUP2 PUSH2 0x414 JUMP JUMPDEST SWAP3 SWAP2 POP POP JUMP JUMPDEST PUSH1 0x0 PUSH1 0x20 DUP3 DUP5 SUB SLT ISZERO PUSH2 0x456 JUMPI PUSH2 0x455 PUSH2 0x3DE JUMP JUMPDEST JUMPDEST PUSH1 0x0 PUSH2 0x464 DUP5 DUP3 DUP6 ADD PUSH2 0x42B JUMP JUMPDEST SWAP2 POP POP SWAP3 SWAP2 POP POP JUMP JUMPDEST PUSH1 0x0 DUP2 ISZERO ISZERO SWAP1 POP SWAP2 SWAP1 POP JUMP JUMPDEST PUSH2 0x482 DUP2 PUSH2 0x46D JUMP JUMPDEST DUP3 MSTORE POP POP JUMP JUMPDEST PUSH1 0x0 PUSH1 0x20 DUP3 ADD SWAP1 POP PUSH2 0x49D PUSH1 0x0 DUP4 ADD DUP5 PUSH2 0x479 JUMP JUMPDEST SWAP3 SWAP2 POP POP JUMP JUMPDEST PUSH1 0x0 DUP2 MLOAD SWAP1 POP SWAP2 SWAP1 POP JUMP JUMPDEST PUSH1 0x0 DUP3 DUP3 MSTORE PUSH1 0x20 DUP3 ADD SWAP1 POP SWAP3 SWAP2 POP POP JUMP JUMPDEST PUSH1 0x0 JUMPDEST DUP4 DUP2 LT ISZERO PUSH2 0x4DD JUMPI DUP1 DUP3 ADD MLOAD DUP2 DUP5 ADD MSTORE PUSH1 0x20 DUP2 ADD SWAP1 POP PUSH2 0x4C2 JUMP JUMPDEST PUSH1 0x0 DUP5 DUP5 ADD MSTORE POP POP POP POP JUMP JUMPDEST PUSH1 0x0 PUSH1 0x1F NOT PUSH1 0x1F DUP4 ADD AND SWAP1 POP SWAP2 SWAP1 POP JUMP JUMPDEST PUSH1 0x0 PUSH2 0x505 DUP3 PUSH2 0x4A3 JUMP JUMPDEST PUSH2 0x50F DUP2 DUP6 PUSH2 0x4AE JUMP JUMPDEST SWAP4 POP PUSH2 0x51F DUP2 DUP6 PUSH1 0x20 DUP7 ADD PUSH2 0x4BF JUMP JUMPDEST PUSH2 0x528 DUP2 PUSH2 0x4E9 JUMP JUMPDEST DUP5 ADD SWAP2 POP POP SWAP3 SWAP2 POP POP JUMP JUMPDEST PUSH1 0x0 PUSH1 0x20 DUP3 ADD SWAP1 POP DUP2 DUP2 SUB PUSH1 0x0 DUP4 ADD MSTORE PUSH2 0x54D DUP2 DUP5 PUSH2 0x4FA JUMP JUMPDEST SWAP1 POP SWAP3 SWAP2 POP POP JUMP JUMPDEST PUSH1 0x0 DUP1 REVERT JUMPDEST PUSH1 0x0 PUSH1 0xA0 DUP3 DUP5 SUB SLT ISZERO PUSH2 0x570 JUMPI PUSH2 0x56F PUSH2 0x555 JUMP JUMPDEST JUMPDEST DUP2 SWAP1 POP SWAP3 SWAP2 POP POP JUMP JUMPDEST PUSH1 0x0 PUSH1 0x20 DUP3 DUP5 SUB SLT ISZERO PUSH2 0x58F JUMPI PUSH2 0x58E PUSH2 0x3DE JUMP JUMPDEST JUMPDEST PUSH1 0x0 DUP3 ADD CALLDATALOAD PUSH8 0xFFFFFFFFFFFFFFFF DUP2 GT ISZERO PUSH2 0x5AD JUMPI PUSH2 0x5AC PUSH2 0x3E3 JUMP JUMPDEST JUMPDEST PUSH2 0x5B9 DUP5 DUP3 DUP6 ADD PUSH2 0x55A JUMP JUMPDEST SWAP2 POP POP SWAP3 SWAP2 POP POP JUMP JUMPDEST PUSH1 0x0 PUSH20 0xFFFFFFFFFFFFFFFFFFFFFFFFFFFFFFFFFFFFFFFF DUP3 AND SWAP1 POP SWAP2 SWAP1 POP JUMP JUMPDEST PUSH1 0x0 PUSH2 0x5ED DUP3 PUSH2 0x5C2 JUMP JUMPDEST SWAP1 POP SWAP2 SWAP1 POP JUMP JUMPDEST PUSH2 0x5FD DUP2 PUSH2 0x5E2 JUMP JUMPDEST DUP3 MSTORE POP POP JUMP JUMPDEST PUSH1 0x0 PUSH1 0x20 DUP3 ADD SWAP1 POP PUSH2 0x618 PUSH1 0x0 DUP4 ADD DUP5 PUSH2 0x5F4 JUMP JUMPDEST SWAP3 SWAP2 POP POP JUMP JUMPDEST PUSH32 0x4E487B7100000000000000000000000000000000000000000000000000000000 PUSH1 0x0 MSTORE PUSH1 0x22 PUSH1 0x4 MSTORE PUSH1 0x24 PUSH1 0x0 REVERT JUMPDEST PUSH1 0x0 PUSH1 0x2 DUP3 DIV SWAP1 POP PUSH1 0x1 DUP3 AND DUP1 PUSH2 0x665 JUMPI PUSH1 0x7F DUP3 AND SWAP2 POP JUMPDEST PUSH1 0x20 DUP3 LT DUP2 SUB PUSH2 0x678 JUMPI PUSH2 0x677 PUSH2 0x61E JUMP JUMPDEST JUMPDEST POP SWAP2 SWAP1 POP JUMP JUMPDEST PUSH1 0x0 DUP1 REVERT JUMPDEST PUSH32 0x4E487B7100000000000000000000000000000000000000000000000000000000 PUSH1 0x0 MSTORE PUSH1 0x41 PUSH1 0x4 MSTORE PUSH1 0x24 PUSH1 0x0 REVERT JUMPDEST PUSH2 0x6BB DUP3 PUSH2 0x4E9 JUMP JUMPDEST DUP2 ADD DUP2 DUP2 LT PUSH8 0xFFFFFFFFFFFFFFFF DUP3 GT OR ISZERO PUSH2 0x6DA JUMPI PUSH2 0x6D9 PUSH2 0x683 JUMP JUMPDEST JUMPDEST DUP1 PUSH1 0x40 MSTORE POP POP POP JUMP JUMPDEST PUSH1 0x0 PUSH2 0x6ED PUSH2 0x3D4 JUMP JUMPDEST SWAP1 POP PUSH2 0x6F9 DUP3 DUP3 PUSH2 0x6B2 JUMP JUMPDEST SWAP2 SWAP1 POP JUMP JUMPDEST PUSH1 0x0 DUP1 REVERT JUMPDEST PUSH1 0x0 DUP2 SWAP1 POP SWAP2 SWAP1 POP JUMP JUMPDEST PUSH2 0x716 DUP2 PUSH2 0x703 JUMP JUMPDEST DUP2 EQ PUSH2 0x721 JUMPI PUSH1 0x0 DUP1 REVERT JUMPDEST POP JUMP JUMPDEST PUSH1 0x0 DUP2 CALLDATALOAD SWAP1 POP PUSH2 0x733 DUP2 PUSH2 0x70D JUMP JUMPDEST SWAP3 SWAP2 POP POP JUMP JUMPDEST PUSH1 0x0 PUSH8 0xFFFFFFFFFFFFFFFF DUP3 AND SWAP1 POP SWAP2 SWAP1 POP JUMP JUMPDEST PUSH2 0x756 DUP2 PUSH2 0x739 JUMP JUMPDEST DUP2 EQ PUSH2 0x761 JUMPI PUSH1 0x0 DUP1 REVERT JUMPDEST POP JUMP JUMPDEST PUSH1 0x0 DUP2 CALLDATALOAD SWAP1 POP PUSH2 0x773 DUP2 PUSH2 0x74D JUMP JUMPDEST SWAP3 SWAP2 POP POP JUMP JUMPDEST PUSH1 0x0 DUP1 REVERT JUMPDEST PUSH1 0x0 DUP1 REVERT JUMPDEST PUSH1 0x0 PUSH8 0xFFFFFFFFFFFFFFFF DUP3 GT ISZERO PUSH2 0x79E JUMPI PUSH2 0x79D PUSH2 0x683 JUMP JUMPDEST JUMPDEST PUSH2 0x7A7 DUP3 PUSH2 0x4E9 JUMP JUMPDEST SWAP1 POP PUSH1 0x20 DUP2 ADD SWAP1 POP SWAP2 SWAP1 POP JUMP JUMPDEST DUP3 DUP2 DUP4 CALLDATACOPY PUSH1 0x0 DUP4 DUP4 ADD MSTORE POP POP POP JUMP JUMPDEST PUSH1 0x0 PUSH2 0x7D6 PUSH2 0x7D1 DUP5 PUSH2 0x783 JUMP JUMPDEST PUSH2 0x6E3 JUMP JUMPDEST SWAP1 POP DUP3 DUP2 MSTORE PUSH1 0x20 DUP2 ADD DUP5 DUP5 DUP5 ADD GT ISZERO PUSH2 0x7F2 JUMPI PUSH2 0x7F1 PUSH2 0x77E JUMP JUMPDEST JUMPDEST PUSH2 0x7FD DUP5 DUP3 DUP6 PUSH2 0x7B4 JUMP JUMPDEST POP SWAP4 SWAP3 POP POP POP JUMP JUMPDEST PUSH1 0x0 DUP3 PUSH1 0x1F DUP4 ADD SLT PUSH2 0x81A JUMPI PUSH2 0x819 PUSH2 0x779 JUMP JUMPDEST JUMPDEST DUP2 CALLDATALOAD PUSH2 0x82A DUP5 DUP3 PUSH1 0x20 DUP7 ADD PUSH2 0x7C3 JUMP JUMPDEST SWAP2 POP POP SWAP3 SWAP2 POP POP JUMP JUMPDEST PUSH1 0x0 PUSH8 0xFFFFFFFFFFFFFFFF DUP3 GT ISZERO PUSH2 0x84E JUMPI PUSH2 0x84D PUSH2 0x683 JUMP JUMPDEST JUMPDEST PUSH1 0x20 DUP3 MUL SWAP1 POP PUSH1 0x20 DUP2 ADD SWAP1 POP SWAP2 SWAP1 POP JUMP JUMPDEST PUSH1 0x0 DUP1 REVERT JUMPDEST PUSH2 0x86D DUP2 PUSH2 0x5E2 JUMP JUMPDEST DUP2 EQ PUSH2 0x878 JUMPI PUSH1 0x0 DUP1 REVERT JUMPDEST POP JUMP JUMPDEST PUSH1 0x0 DUP2 CALLDATALOAD SWAP1 POP PUSH2 0x88A DUP2 PUSH2 0x864 JUMP JUMPDEST SWAP3 SWAP2 POP POP JUMP JUMPDEST PUSH1 0x0 DUP2 SWAP1 POP SWAP2 SWAP1 POP JUMP JUMPDEST PUSH2 0x8A3 DUP2 PUSH2 0x890 JUMP JUMPDEST DUP2 EQ PUSH2 0x8AE JUMPI PUSH1 0x0 DUP1 REVERT JUMPDEST POP JUMP JUMPDEST PUSH1 0x0 DUP2 CALLDATALOAD SWAP1 POP PUSH2 0x8C0 DUP2 PUSH2 0x89A JUMP JUMPDEST SWAP3 SWAP2 POP POP JUMP JUMPDEST PUSH1 0x0 PUSH1 0x40 DUP3 DUP5 SUB SLT ISZERO PUSH2 0x8DC JUMPI PUSH2 0x8DB PUSH2 0x67E JUMP JUMPDEST JUMPDEST PUSH2 0x8E6 PUSH1 0x40 PUSH2 0x6E3 JUMP JUMPDEST SWAP1 POP PUSH1 0x0 PUSH2 0x8F6 DUP5 DUP3 DUP6 ADD PUSH2 0x87B JUMP JUMPDEST PUSH1 0x0 DUP4 ADD MSTORE POP PUSH1 0x20 PUSH2 0x90A DUP5 DUP3 DUP6 ADD PUSH2 0x8B1 JUMP JUMPDEST PUSH1 0x20 DUP4 ADD MSTORE POP SWAP3 SWAP2 POP POP JUMP JUMPDEST PUSH1 0x0 PUSH2 0x929 PUSH2 0x924 DUP5 PUSH2 0x833 JUMP JUMPDEST PUSH2 0x6E3 JUMP JUMPDEST SWAP1 POP DUP1 DUP4 DUP3 MSTORE PUSH1 0x20 DUP3 ADD SWAP1 POP PUSH1 0x40 DUP5 MUL DUP4 ADD DUP6 DUP2 GT ISZERO PUSH2 0x94C JUMPI PUSH2 0x94B PUSH2 0x85F JUMP JUMPDEST JUMPDEST DUP4 JUMPDEST DUP2 DUP2 LT ISZERO PUSH2 0x975 JUMPI DUP1 PUSH2 0x961 DUP9 DUP3 PUSH2 0x8C6 JUMP JUMPDEST DUP5 MSTORE PUSH1 0x20 DUP5 ADD SWAP4 POP POP PUSH1 0x40 DUP2 ADD SWAP1 POP PUSH2 0x94E JUMP JUMPDEST POP POP POP SWAP4 SWAP3 POP POP POP JUMP JUMPDEST PUSH1 0x0 DUP3 PUSH1 0x1F DUP4 ADD SLT PUSH2 0x994 JUMPI PUSH2 0x993 PUSH2 0x779 JUMP JUMPDEST JUMPDEST DUP2 CALLDATALOAD PUSH2 0x9A4 DUP5 DUP3 PUSH1 0x20 DUP7 ADD PUSH2 0x916 JUMP JUMPDEST SWAP2 POP POP SWAP3 SWAP2 POP POP JUMP JUMPDEST PUSH1 0x0 PUSH1 0xA0 DUP3 DUP5 SUB SLT ISZERO PUSH2 0x9C3 JUMPI PUSH2 0x9C2 PUSH2 0x67E JUMP JUMPDEST JUMPDEST PUSH2 0x9CD PUSH1 0xA0 PUSH2 0x6E3 JUMP JUMPDEST SWAP1 POP PUSH1 0x0 PUSH2 0x9DD DUP5 DUP3 DUP6 ADD PUSH2 0x724 JUMP JUMPDEST PUSH1 0x0 DUP4 ADD MSTORE POP PUSH1 0x20 PUSH2 0x9F1 DUP5 DUP3 DUP6 ADD PUSH2 0x764 JUMP JUMPDEST PUSH1 0x20 DUP4 ADD MSTORE POP PUSH1 0x40 DUP3 ADD CALLDATALOAD PUSH8 0xFFFFFFFFFFFFFFFF DUP2 GT ISZERO PUSH2 0xA15 JUMPI PUSH2 0xA14 PUSH2 0x6FE JUMP JUMPDEST JUMPDEST PUSH2 0xA21 DUP5 DUP3 DUP6 ADD PUSH2 0x805 JUMP JUMPDEST PUSH1 0x40 DUP4 ADD MSTORE POP PUSH1 0x60 DUP3 ADD CALLDATALOAD PUSH8 0xFFFFFFFFFFFFFFFF DUP2 GT ISZERO PUSH2 0xA45 JUMPI PUSH2 0xA44 PUSH2 0x6FE JUMP JUMPDEST JUMPDEST PUSH2 0xA51 DUP5 DUP3 DUP6 ADD PUSH2 0x805 JUMP JUMPDEST PUSH1 0x60 DUP4 ADD MSTORE POP PUSH1 0x80 DUP3 ADD CALLDATALOAD PUSH8 0xFFFFFFFFFFFFFFFF DUP2 GT ISZERO PUSH2 0xA75 JUMPI PUSH2 0xA74 PUSH2 0x6FE JUMP JUMPDEST JUMPDEST PUSH2 0xA81 DUP5 DUP3 DUP6 ADD PUSH2 0x97F JUMP JUMPDEST PUSH1 0x80 DUP4 ADD MSTORE POP SWAP3 SWAP2 POP POP JUMP JUMPDEST PUSH1 0x0 PUSH2 0xA99 CALLDATASIZE DUP4 PUSH2 0x9AD JUMP JUMPDEST SWAP1 POP SWAP2 SWAP1 POP JUMP JUMPDEST PUSH1 0x0 PUSH2 0xAAB DUP3 PUSH2 0x5C2 JUMP JUMPDEST SWAP1 POP SWAP2 SWAP1 POP JUMP JUMPDEST PUSH2 0xABB DUP2 PUSH2 0xAA0 JUMP JUMPDEST DUP2 EQ PUSH2 0xAC6 JUMPI PUSH1 0x0 DUP1 REVERT JUMPDEST POP JUMP JUMPDEST PUSH1 0x0 DUP2 MLOAD SWAP1 POP PUSH2 0xAD8 DUP2 PUSH2 0xAB2 JUMP JUMPDEST SWAP3 SWAP2 POP POP JUMP JUMPDEST PUSH1 0x0 PUSH1 0x20 DUP3 DUP5 SUB SLT ISZERO PUSH2 0xAF4 JUMPI PUSH2 0xAF3 PUSH2 0x3DE JUMP JUMPDEST JUMPDEST PUSH1 0x0 PUSH2 0xB02 DUP5 DUP3 DUP6 ADD PUSH2 0xAC9 JUMP JUMPDEST SWAP2 POP POP SWAP3 SWAP2 POP POP JUMP JUMPDEST PUSH1 0x0 PUSH8 0xFFFFFFFFFFFFFFFF DUP3 GT ISZERO PUSH2 0xB26 JUMPI PUSH2 0xB25 PUSH2 0x683 JUMP JUMPDEST JUMPDEST PUSH2 0xB2F DUP3 PUSH2 0x4E9 JUMP JUMPDEST SWAP1 POP PUSH1 0x20 DUP2 ADD SWAP1 POP SWAP2 SWAP1 POP JUMP JUMPDEST PUSH1 0x0 PUSH2 0xB4F PUSH2 0xB4A DUP5 PUSH2 0xB0B JUMP JUMPDEST PUSH2 0x6E3 JUMP JUMPDEST SWAP1 POP DUP3 DUP2 MSTORE PUSH1 0x20 DUP2 ADD DUP5 DUP5 DUP5 ADD GT ISZERO PUSH2 0xB6B JUMPI PUSH2 0xB6A PUSH2 0x77E JUMP JUMPDEST JUMPDEST PUSH2 0xB76 DUP5 DUP3 DUP6 PUSH2 0x4BF JUMP JUMPDEST POP SWAP4 SWAP3 POP POP POP JUMP JUMPDEST PUSH1 0x0 DUP3 PUSH1 0x1F DUP4 ADD SLT PUSH2 0xB93 JUMPI PUSH2 0xB92 PUSH2 0x779 JUMP JUMPDEST JUMPDEST DUP2 MLOAD PUSH2 0xBA3 DUP5 DUP3 PUSH1 0x20 DUP7 ADD PUSH2 0xB3C JUMP JUMPDEST SWAP2 POP POP SWAP3 SWAP2 POP POP JUMP JUMPDEST PUSH1 0x0 PUSH1 0x20 DUP3 DUP5 SUB SLT ISZERO PUSH2 0xBC2 JUMPI PUSH2 0xBC1 PUSH2 0x3DE JUMP JUMPDEST JUMPDEST PUSH1 0x0 DUP3 ADD MLOAD PUSH8 0xFFFFFFFFFFFFFFFF DUP2 GT ISZERO PUSH2 0xBE0 JUMPI PUSH2 0xBDF PUSH2 0x3E3 JUMP JUMPDEST JUMPDEST PUSH2 0xBEC DUP5 DUP3 DUP6 ADD PUSH2 0xB7E JUMP JUMPDEST SWAP2 POP POP SWAP3 SWAP2 POP POP JUMP JUMPDEST PUSH1 0x0 DUP2 SWAP1 POP DUP2 PUSH1 0x0 MSTORE PUSH1 0x20 PUSH1 0x0 KECCAK256 SWAP1 POP SWAP2 SWAP1 POP JUMP JUMPDEST PUSH1 0x0 PUSH1 0x20 PUSH1 0x1F DUP4 ADD DIV SWAP1 POP SWAP2 SWAP1 POP JUMP JUMPDEST PUSH1 0x0 DUP3 DUP3 SHL SWAP1 POP SWAP3 SWAP2 POP POP JUMP JUMPDEST PUSH1 0x0 PUSH1 0x8 DUP4 MUL PUSH2 0xC57 PUSH32 0xFFFFFFFFFFFFFFFFFFFFFFFFFFFFFFFFFFFFFFFFFFFFFFFFFFFFFFFFFFFFFFFF DUP3 PUSH2 0xC1A JUMP JUMPDEST PUSH2 0xC61 DUP7 DUP4 PUSH2 0xC1A JUMP JUMPDEST SWAP6 POP DUP1 NOT DUP5 AND SWAP4 POP DUP1 DUP7 AND DUP5 OR SWAP3 POP POP POP SWAP4 SWAP3 POP POP POP JUMP JUMPDEST PUSH1 0x0 DUP2 SWAP1 POP SWAP2 SWAP1 POP JUMP JUMPDEST PUSH1 0x0 PUSH2 0xC9E PUSH2 0xC99 PUSH2 0xC94 DUP5 PUSH2 0x890 JUMP JUMPDEST PUSH2 0xC79 JUMP JUMPDEST PUSH2 0x890 JUMP JUMPDEST SWAP1 POP SWAP2 SWAP1 POP JUMP JUMPDEST PUSH1 0x0 DUP2 SWAP1 POP SWAP2 SWAP1 POP JUMP JUMPDEST PUSH2 0xCB8 DUP4 PUSH2 0xC83 JUMP JUMPDEST PUSH2 0xCCC PUSH2 0xCC4 DUP3 PUSH2 0xCA5 JUMP JUMPDEST DUP5 DUP5 SLOAD PUSH2 0xC27 JUMP JUMPDEST DUP3 SSTORE POP POP POP POP JUMP JUMPDEST PUSH1 0x0 SWAP1 JUMP JUMPDEST PUSH2 0xCE1 PUSH2 0xCD4 JUMP JUMPDEST PUSH2 0xCEC DUP2 DUP5 DUP5 PUSH2 0xCAF JUMP JUMPDEST POP POP POP JUMP JUMPDEST JUMPDEST DUP2 DUP2 LT ISZERO PUSH2 0xD10 JUMPI PUSH2 0xD05 PUSH1 0x0 DUP3 PUSH2 0xCD9 JUMP JUMPDEST PUSH1 0x1 DUP2 ADD SWAP1 POP PUSH2 0xCF2 JUMP JUMPDEST POP POP JUMP JUMPDEST PUSH1 0x1F DUP3 GT ISZERO PUSH2 0xD55 JUMPI PUSH2 0xD26 DUP2 PUSH2 0xBF5 JUMP JUMPDEST PUSH2 0xD2F DUP5 PUSH2 0xC0A JUMP JUMPDEST DUP2 ADD PUSH1 0x20 DUP6 LT ISZERO PUSH2 0xD3E JUMPI DUP2 SWAP1 POP JUMPDEST PUSH2 0xD52 PUSH2 0xD4A DUP6 PUSH2 0xC0A JUMP JUMPDEST DUP4 ADD DUP3 PUSH2 0xCF1 JUMP JUMPDEST POP POP JUMPDEST POP POP POP JUMP JUMPDEST PUSH1 0x0 DUP3 DUP3 SHR SWAP1 POP SWAP3 SWAP2 POP POP JUMP JUMPDEST PUSH1 0x0 PUSH2 0xD78 PUSH1 0x0 NOT DUP5 PUSH1 0x8 MUL PUSH2 0xD5A JUMP JUMPDEST NOT DUP1 DUP4 AND SWAP2 POP POP SWAP3 SWAP2 POP POP JUMP JUMPDEST PUSH1 0x0 PUSH2 0xD91 DUP4 DUP4 PUSH2 0xD67 JUMP JUMPDEST SWAP2 POP DUP3 PUSH1 0x2 MUL DUP3 OR SWAP1 POP SWAP3 SWAP2 POP POP JUMP JUMPDEST PUSH2 0xDAA DUP3 PUSH2 0x4A3 JUMP JUMPDEST PUSH8 0xFFFFFFFFFFFFFFFF DUP2 GT ISZERO PUSH2 0xDC3 JUMPI PUSH2 0xDC2 PUSH2 0x683 JUMP JUMPDEST JUMPDEST PUSH2 0xDCD DUP3 SLOAD PUSH2 0x64D JUMP JUMPDEST PUSH2 0xDD8 DUP3 DUP3 DUP6 PUSH2 0xD14 JUMP JUMPDEST PUSH1 0x0 PUSH1 0x20 SWAP1 POP PUSH1 0x1F DUP4 GT PUSH1 0x1 DUP2 EQ PUSH2 0xE0B JUMPI PUSH1 0x0 DUP5 ISZERO PUSH2 0xDF9 JUMPI DUP3 DUP8 ADD MLOAD SWAP1 POP JUMPDEST PUSH2 0xE03 DUP6 DUP3 PUSH2 0xD85 JUMP JUMPDEST DUP7 SSTORE POP PUSH2 0xE6B JUMP JUMPDEST PUSH1 0x1F NOT DUP5 AND PUSH2 0xE19 DUP7 PUSH2 0xBF5 JUMP JUMPDEST PUSH1 0x0 JUMPDEST DUP3 DUP2 LT ISZERO PUSH2 0xE41 JUMPI DUP5 DUP10 ADD MLOAD DUP3 SSTORE PUSH1 0x1 DUP3 ADD SWAP2 POP PUSH1 0x20 DUP6 ADD SWAP5 POP PUSH1 0x20 DUP2 ADD SWAP1 POP PUSH2 0xE1C JUMP JUMPDEST DUP7 DUP4 LT ISZERO PUSH2 0xE5E JUMPI DUP5 DUP10 ADD MLOAD PUSH2 0xE5A PUSH1 0x1F DUP10 AND DUP3 PUSH2 0xD67 JUMP JUMPDEST DUP4 SSTORE POP JUMPDEST PUSH1 0x1 PUSH1 0x2 DUP9 MUL ADD DUP9 SSTORE POP POP POP JUMPDEST POP POP POP POP POP POP JUMP INVALID LOG2 PUSH5 0x6970667358 0x22 SLT KECCAK256 STATICCALL DUP4 DUP1 0xEA PUSH6 0xE4CDD269D34C PUSH31 0x7ACF054A94FB2D01C2928A7949C1BF14805FDE6B64736F6C63430008130033 "
				},
				"gasEstimates": {
					"creation": {
						"codeDepositCost": "750600",
						"executionCost": "infinite",
						"totalCost": "infinite"
					},
					"external": {
						"ccipReceive((bytes32,uint64,bytes,bytes,(address,uint256)[]))": "infinite",
						"getRouter()": "infinite",
						"latestMessage()": "infinite",
						"latestSender()": "2577",
						"supportsInterface(bytes4)": "662"
					},
					"internal": {
						"_ccipReceive(struct Client.Any2EVMMessage memory)": "infinite"
					}
				},
				"methodIdentifiers": {
					"ccipReceive((bytes32,uint64,bytes,bytes,(address,uint256)[]))": "85572ffb",
					"getRouter()": "b0f479a1",
					"latestMessage()": "34a07798",
					"latestSender()": "e1214815",
					"supportsInterface(bytes4)": "01ffc9a7"
				}
			},
			"storageLayout": {
				"storage": [
					{
						"astId": 211,
						"contract": "CCIPReceiver_Unsafe.sol:CCIPReceiver_Unsafe",
						"label": "latestSender",
						"offset": 0,
						"slot": "0",
						"type": "t_address"
					},
					{
						"astId": 213,
						"contract": "CCIPReceiver_Unsafe.sol:CCIPReceiver_Unsafe",
						"label": "latestMessage",
						"offset": 0,
						"slot": "1",
						"type": "t_string_storage"
					}
				],
				"types": {
					"t_address": {
						"encoding": "inplace",
						"label": "address",
						"numberOfBytes": "20"
					},
					"t_string_storage": {
						"encoding": "bytes",
						"label": "string",
						"numberOfBytes": "32"
					}
				}
			},
			"userdoc": {
				"kind": "user",
				"methods": {
					"ccipReceive((bytes32,uint64,bytes,bytes,(address,uint256)[]))": {
						"notice": "Called by the Router to deliver a message. If this reverts, any token transfers also revert. The message will move to a FAILED state and become available for manual execution."
					},
					"getRouter()": {
						"notice": "Return the current router"
					},
					"supportsInterface(bytes4)": {
						"notice": "IERC165 supports an interfaceId"
					}
				},
				"version": 1
			}
		}
	}
}