{
	"data": {
		"bytecode": {
			"linkReferences": {},
			"object": "60806040523480156200001157600080fd5b50338060006040518060400160405280600581526020017f4d794e46540000000000000000000000000000000000000000000000000000008152506040518060400160405280600481526020017f4d4e465400000000000000000000000000000000000000000000000000000000815250816000908162000093919062000556565b508060019081620000a5919062000556565b505050600073ffffffffffffffffffffffffffffffffffffffff168273ffffffffffffffffffffffffffffffffffffffff16036200011a576040517f08c379a000000000000000000000000000000000000000000000000000000000815260040162000111906200069e565b60405180910390fd5b81600760006101000a81548173ffffffffffffffffffffffffffffffffffffffff021916908373ffffffffffffffffffffffffffffffffffffffff160217905550600073ffffffffffffffffffffffffffffffffffffffff168173ffffffffffffffffffffffffffffffffffffffff1614620001a257620001a181620001ab60201b60201c565b5b50505062000732565b3373ffffffffffffffffffffffffffffffffffffffff168173ffffffffffffffffffffffffffffffffffffffff16036200021c576040517f08c379a0000000000000000000000000000000000000000000000000000000008152600401620002139062000710565b60405180910390fd5b80600860006101000a81548173ffffffffffffffffffffffffffffffffffffffff021916908373ffffffffffffffffffffffffffffffffffffffff1602179055508073ffffffffffffffffffffffffffffffffffffffff16600760009054906101000a900473ffffffffffffffffffffffffffffffffffffffff1673ffffffffffffffffffffffffffffffffffffffff167fed8889f560326eb138920d842192f0eb3dd22b4f139c87a2c57538e05bae127860405160405180910390a350565b600081519050919050565b7f4e487b7100000000000000000000000000000000000000000000000000000000600052604160045260246000fd5b7f4e487b7100000000000000000000000000000000000000000000000000000000600052602260045260246000fd5b600060028204905060018216806200035e57607f821691505b60208210810362000374576200037362000316565b5b50919050565b60008190508160005260206000209050919050565b60006020601f8301049050919050565b600082821b905092915050565b600060088302620003de7fffffffffffffffffffffffffffffffffffffffffffffffffffffffffffffffff826200039f565b620003ea86836200039f565b95508019841693508086168417925050509392505050565b6000819050919050565b6000819050919050565b600062000437620004316200042b8462000402565b6200040c565b62000402565b9050919050565b6000819050919050565b620004538362000416565b6200046b62000462826200043e565b848454620003ac565b825550505050565b600090565b6200048262000473565b6200048f81848462000448565b505050565b5b81811015620004b757620004ab60008262000478565b60018101905062000495565b5050565b601f8211156200050657620004d0816200037a565b620004db846200038f565b81016020851015620004eb578190505b62000503620004fa856200038f565b83018262000494565b50505b505050565b600082821c905092915050565b60006200052b600019846008026200050b565b1980831691505092915050565b600062000546838362000518565b9150826002028217905092915050565b6200056182620002dc565b67ffffffffffffffff8111156200057d576200057c620002e7565b5b62000589825462000345565b62000596828285620004bb565b600060209050601f831160018114620005ce5760008415620005b9578287015190505b620005c5858262000538565b86555062000635565b601f198416620005de866200037a565b60005b828110156200060857848901518255600182019150602085019450602081019050620005e1565b8683101562000628578489015162000624601f89168262000518565b8355505b6001600288020188555050505b505050505050565b600082825260208201905092915050565b7f43616e6e6f7420736574206f776e657220746f207a65726f0000000000000000600082015250565b6000620006866018836200063d565b915062000693826200064e565b602082019050919050565b60006020820190508181036000830152620006b98162000677565b9050919050565b7f43616e6e6f74207472616e7366657220746f2073656c66000000000000000000600082015250565b6000620006f86017836200063d565b91506200070582620006c0565b602082019050919050565b600060208201905081810360008301526200072b81620006e9565b9050919050565b612fcb80620007426000396000f3fe608060405234801561001057600080fd5b506004361061010b5760003560e01c806370a08231116100a2578063a22cb46511610071578063a22cb465146102a4578063b88d4fde146102c0578063c87b56dd146102dc578063e985e9c51461030c578063f2fde38b1461033c5761010b565b806370a082311461022e57806379ba50971461025e5780638da5cb5b1461026857806395d89b41146102865761010b565b806323b872dd116100de57806323b872dd146101aa57806342842e0e146101c65780636352211e146101e25780636a627842146102125761010b565b806301ffc9a71461011057806306fdde0314610140578063081812fc1461015e578063095ea7b31461018e575b600080fd5b61012a60048036038101906101259190611e1f565b610358565b6040516101379190611e67565b60405180910390f35b6101486103b9565b6040516101559190611f12565b60405180910390f35b61017860048036038101906101739190611f6a565b61044b565b6040516101859190611fd8565b60405180910390f35b6101a860048036038101906101a3919061201f565b610491565b005b6101c460048036038101906101bf919061205f565b6105a8565b005b6101e060048036038101906101db919061205f565b610608565b005b6101fc60048036038101906101f79190611f6a565b610628565b6040516102099190611fd8565b60405180910390f35b61022c600480360381019061022791906120b2565b6106ae565b005b610248600480360381019061024391906120b2565b6106fb565b60405161025591906120ee565b60405180910390f35b6102666107b2565b005b610270610949565b60405161027d9190611fd8565b60405180910390f35b61028e610973565b60405161029b9190611f12565b60405180910390f35b6102be60048036038101906102b99190612135565b610a05565b005b6102da60048036038101906102d591906122aa565b610a1b565b005b6102f660048036038101906102f19190611f6a565b610a7d565b6040516103039190611f12565b60405180910390f35b6103266004803603810190610321919061232d565b610b8f565b6040516103339190611e67565b60405180910390f35b610356600480360381019061035191906120b2565b610c23565b005b6000634906490660e01b7bffffffffffffffffffffffffffffffffffffffffffffffffffffffff1916827bffffffffffffffffffffffffffffffffffffffffffffffffffffffff191614806103b257506103b182610c37565b5b9050919050565b6060600080546103c89061239c565b80601f01602080910402602001604051908101604052809291908181526020018280546103f49061239c565b80156104415780601f1061041657610100808354040283529160200191610441565b820191906000526020600020905b81548152906001019060200180831161042457829003601f168201915b5050505050905090565b600061045682610d19565b6004600083815260200190815260200160002060009054906101000a900473ffffffffffffffffffffffffffffffffffffffff169050919050565b600061049c82610628565b90508073ffffffffffffffffffffffffffffffffffffffff168373ffffffffffffffffffffffffffffffffffffffff160361050c576040517f08c379a00000000000000000000000000000000000000000000000000000000081526004016105039061243f565b60405180910390fd5b8073ffffffffffffffffffffffffffffffffffffffff1661052b610d64565b73ffffffffffffffffffffffffffffffffffffffff16148061055a575061055981610554610d64565b610b8f565b5b610599576040517f08c379a0000000000000000000000000000000000000000000000000000000008152600401610590906124d1565b60405180910390fd5b6105a38383610d6c565b505050565b6105b96105b3610d64565b82610e25565b6105f8576040517f08c379a00000000000000000000000000000000000000000000000000000000081526004016105ef90612563565b60405180910390fd5b610603838383610eba565b505050565b61062383838360405180602001604052806000815250610a1b565b505050565b600080610634836111b3565b9050600073ffffffffffffffffffffffffffffffffffffffff168173ffffffffffffffffffffffffffffffffffffffff16036106a5576040517f08c379a000000000000000000000000000000000000000000000000000000000815260040161069c906125cf565b60405180910390fd5b80915050919050565b6106b66111f0565b6106c281600954611282565b6106e6600954604051806080016040528060548152602001612f42605491396112a0565b60096000815480929190600101919050555050565b60008073ffffffffffffffffffffffffffffffffffffffff168273ffffffffffffffffffffffffffffffffffffffff160361076b576040517f08c379a000000000000000000000000000000000000000000000000000000000815260040161076290612661565b60405180910390fd5b600360008373ffffffffffffffffffffffffffffffffffffffff1673ffffffffffffffffffffffffffffffffffffffff168152602001908152602001600020549050919050565b600860009054906101000a900473ffffffffffffffffffffffffffffffffffffffff1673ffffffffffffffffffffffffffffffffffffffff163373ffffffffffffffffffffffffffffffffffffffff1614610842576040517f08c379a0000000000000000000000000000000000000000000000000000000008152600401610839906126cd565b60405180910390fd5b6000600760009054906101000a900473ffffffffffffffffffffffffffffffffffffffff16905033600760006101000a81548173ffffffffffffffffffffffffffffffffffffffff021916908373ffffffffffffffffffffffffffffffffffffffff1602179055506000600860006101000a81548173ffffffffffffffffffffffffffffffffffffffff021916908373ffffffffffffffffffffffffffffffffffffffff1602179055503373ffffffffffffffffffffffffffffffffffffffff168173ffffffffffffffffffffffffffffffffffffffff167f8be0079c531659141344cd1fd0a4f28419497f9722a3daafe3b4186f6b6457e060405160405180910390a350565b6000600760009054906101000a900473ffffffffffffffffffffffffffffffffffffffff16905090565b6060600180546109829061239c565b80601f01602080910402602001604051908101604052809291908181526020018280546109ae9061239c565b80156109fb5780601f106109d0576101008083540402835291602001916109fb565b820191906000526020600020905b8154815290600101906020018083116109de57829003601f168201915b5050505050905090565b610a17610a10610d64565b8383611344565b5050565b610a2c610a26610d64565b83610e25565b610a6b576040517f08c379a0000000000000000000000000000000000000000000000000000000008152600401610a6290612563565b60405180910390fd5b610a77848484846114b0565b50505050565b6060610a8882610d19565b6000600660008481526020019081526020016000208054610aa89061239c565b80601f0160208091040260200160405190810160405280929190818152602001828054610ad49061239c565b8015610b215780601f10610af657610100808354040283529160200191610b21565b820191906000526020600020905b815481529060010190602001808311610b0457829003601f168201915b505050505090506000610b3261150c565b90506000815103610b47578192505050610b8a565b600082511115610b7c578082604051602001610b64929190612729565b60405160208183030381529060405292505050610b8a565b610b8584611523565b925050505b919050565b6000600560008473ffffffffffffffffffffffffffffffffffffffff1673ffffffffffffffffffffffffffffffffffffffff16815260200190815260200160002060008373ffffffffffffffffffffffffffffffffffffffff1673ffffffffffffffffffffffffffffffffffffffff16815260200190815260200160002060009054906101000a900460ff16905092915050565b610c2b6111f0565b610c348161158b565b50565b60007f80ac58cd000000000000000000000000000000000000000000000000000000007bffffffffffffffffffffffffffffffffffffffffffffffffffffffff1916827bffffffffffffffffffffffffffffffffffffffffffffffffffffffff19161480610d0257507f5b5e139f000000000000000000000000000000000000000000000000000000007bffffffffffffffffffffffffffffffffffffffffffffffffffffffff1916827bffffffffffffffffffffffffffffffffffffffffffffffffffffffff1916145b80610d125750610d11826116b9565b5b9050919050565b610d2281611723565b610d61576040517f08c379a0000000000000000000000000000000000000000000000000000000008152600401610d58906125cf565b60405180910390fd5b50565b600033905090565b816004600083815260200190815260200160002060006101000a81548173ffffffffffffffffffffffffffffffffffffffff021916908373ffffffffffffffffffffffffffffffffffffffff160217905550808273ffffffffffffffffffffffffffffffffffffffff16610ddf83610628565b73ffffffffffffffffffffffffffffffffffffffff167f8c5be1e5ebec7d5bd14f71427d1e84f3dd0314c0f7b2291e5b200ac8c7c3b92560405160405180910390a45050565b600080610e3183610628565b90508073ffffffffffffffffffffffffffffffffffffffff168473ffffffffffffffffffffffffffffffffffffffff161480610e735750610e728185610b8f565b5b80610eb157508373ffffffffffffffffffffffffffffffffffffffff16610e998461044b565b73ffffffffffffffffffffffffffffffffffffffff16145b91505092915050565b8273ffffffffffffffffffffffffffffffffffffffff16610eda82610628565b73ffffffffffffffffffffffffffffffffffffffff1614610f30576040517f08c379a0000000000000000000000000000000000000000000000000000000008152600401610f27906127bf565b60405180910390fd5b600073ffffffffffffffffffffffffffffffffffffffff168273ffffffffffffffffffffffffffffffffffffffff1603610f9f576040517f08c379a0000000000000000000000000000000000000000000000000000000008152600401610f9690612851565b60405180910390fd5b610fac8383836001611764565b8273ffffffffffffffffffffffffffffffffffffffff16610fcc82610628565b73ffffffffffffffffffffffffffffffffffffffff1614611022576040517f08c379a0000000000000000000000000000000000000000000000000000000008152600401611019906127bf565b60405180910390fd5b6004600082815260200190815260200160002060006101000a81549073ffffffffffffffffffffffffffffffffffffffff02191690556001600360008573ffffffffffffffffffffffffffffffffffffffff1673ffffffffffffffffffffffffffffffffffffffff168152602001908152602001600020600082825403925050819055506001600360008473ffffffffffffffffffffffffffffffffffffffff1673ffffffffffffffffffffffffffffffffffffffff16815260200190815260200160002060008282540192505081905550816002600083815260200190815260200160002060006101000a81548173ffffffffffffffffffffffffffffffffffffffff021916908373ffffffffffffffffffffffffffffffffffffffff160217905550808273ffffffffffffffffffffffffffffffffffffffff168473ffffffffffffffffffffffffffffffffffffffff167fddf252ad1be2c89b69c2b068fc378daa952ba7f163c4a11628f55a4df523b3ef60405160405180910390a46111ae838383600161176a565b505050565b60006002600083815260200190815260200160002060009054906101000a900473ffffffffffffffffffffffffffffffffffffffff169050919050565b600760009054906101000a900473ffffffffffffffffffffffffffffffffffffffff1673ffffffffffffffffffffffffffffffffffffffff163373ffffffffffffffffffffffffffffffffffffffff1614611280576040517f08c379a0000000000000000000000000000000000000000000000000000000008152600401611277906128bd565b60405180910390fd5b565b61129c828260405180602001604052806000815250611770565b5050565b6112a982611723565b6112e8576040517f08c379a00000000000000000000000000000000000000000000000000000000081526004016112df9061294f565b60405180910390fd5b806006600084815260200190815260200160002090816113089190612b1b565b507ff8e1a15aba9398e019f0b49df1a4fde98ee17ae345cb5f6b5e2c27f5033e8ce78260405161133891906120ee565b60405180910390a15050565b8173ffffffffffffffffffffffffffffffffffffffff168373ffffffffffffffffffffffffffffffffffffffff16036113b2576040517f08c379a00000000000000000000000000000000000000000000000000000000081526004016113a990612c39565b60405180910390fd5b80600560008573ffffffffffffffffffffffffffffffffffffffff1673ffffffffffffffffffffffffffffffffffffffff16815260200190815260200160002060008473ffffffffffffffffffffffffffffffffffffffff1673ffffffffffffffffffffffffffffffffffffffff16815260200190815260200160002060006101000a81548160ff0219169083151502179055508173ffffffffffffffffffffffffffffffffffffffff168373ffffffffffffffffffffffffffffffffffffffff167f17307eab39ab6107e8899845ad3d59bd9653f200f220920489ca2b5937696c31836040516114a39190611e67565b60405180910390a3505050565b6114bb848484610eba565b6114c7848484846117cb565b611506576040517f08c379a00000000000000000000000000000000000000000000000000000000081526004016114fd90612ccb565b60405180910390fd5b50505050565b606060405180602001604052806000815250905090565b606061152e82610d19565b600061153861150c565b905060008151116115585760405180602001604052806000815250611583565b8061156284611952565b604051602001611573929190612729565b6040516020818303038152906040525b915050919050565b3373ffffffffffffffffffffffffffffffffffffffff168173ffffffffffffffffffffffffffffffffffffffff16036115f9576040517f08c379a00000000000000000000000000000000000000000000000000000000081526004016115f090612d37565b60405180910390fd5b80600860006101000a81548173ffffffffffffffffffffffffffffffffffffffff021916908373ffffffffffffffffffffffffffffffffffffffff1602179055508073ffffffffffffffffffffffffffffffffffffffff16600760009054906101000a900473ffffffffffffffffffffffffffffffffffffffff1673ffffffffffffffffffffffffffffffffffffffff167fed8889f560326eb138920d842192f0eb3dd22b4f139c87a2c57538e05bae127860405160405180910390a350565b60007f01ffc9a7000000000000000000000000000000000000000000000000000000007bffffffffffffffffffffffffffffffffffffffffffffffffffffffff1916827bffffffffffffffffffffffffffffffffffffffffffffffffffffffff1916149050919050565b60008073ffffffffffffffffffffffffffffffffffffffff16611745836111b3565b73ffffffffffffffffffffffffffffffffffffffff1614159050919050565b50505050565b50505050565b61177a8383611a20565b61178760008484846117cb565b6117c6576040517f08c379a00000000000000000000000000000000000000000000000000000000081526004016117bd90612ccb565b60405180910390fd5b505050565b60006117ec8473ffffffffffffffffffffffffffffffffffffffff16611c3d565b15611945578373ffffffffffffffffffffffffffffffffffffffff1663150b7a02611815610d64565b8786866040518563ffffffff1660e01b81526004016118379493929190612dac565b6020604051808303816000875af192505050801561187357506040513d601f19601f820116820180604052508101906118709190612e0d565b60015b6118f5573d80600081146118a3576040519150601f19603f3d011682016040523d82523d6000602084013e6118a8565b606091505b5060008151036118ed576040517f08c379a00000000000000000000000000000000000000000000000000000000081526004016118e490612ccb565b60405180910390fd5b805181602001fd5b63150b7a0260e01b7bffffffffffffffffffffffffffffffffffffffffffffffffffffffff1916817bffffffffffffffffffffffffffffffffffffffffffffffffffffffff19161491505061194a565b600190505b949350505050565b60606000600161196184611c60565b01905060008167ffffffffffffffff8111156119805761197f61217f565b5b6040519080825280601f01601f1916602001820160405280156119b25781602001600182028036833780820191505090505b509050600082602001820190505b600115611a15578080600190039150507f3031323334353637383961626364656600000000000000000000000000000000600a86061a8153600a8581611a0957611a08612e3a565b5b049450600085036119c0575b819350505050919050565b600073ffffffffffffffffffffffffffffffffffffffff168273ffffffffffffffffffffffffffffffffffffffff1603611a8f576040517f08c379a0000000000000000000000000000000000000000000000000000000008152600401611a8690612eb5565b60405180910390fd5b611a9881611723565b15611ad8576040517f08c379a0000000000000000000000000000000000000000000000000000000008152600401611acf90612f21565b60405180910390fd5b611ae6600083836001611764565b611aef81611723565b15611b2f576040517f08c379a0000000000000000000000000000000000000000000000000000000008152600401611b2690612f21565b60405180910390fd5b6001600360008473ffffffffffffffffffffffffffffffffffffffff1673ffffffffffffffffffffffffffffffffffffffff16815260200190815260200160002060008282540192505081905550816002600083815260200190815260200160002060006101000a81548173ffffffffffffffffffffffffffffffffffffffff021916908373ffffffffffffffffffffffffffffffffffffffff160217905550808273ffffffffffffffffffffffffffffffffffffffff16600073ffffffffffffffffffffffffffffffffffffffff167fddf252ad1be2c89b69c2b068fc378daa952ba7f163c4a11628f55a4df523b3ef60405160405180910390a4611c3960008383600161176a565b5050565b6000808273ffffffffffffffffffffffffffffffffffffffff163b119050919050565b600080600090507a184f03e93ff9f4daa797ed6e38ed64bf6a1f0100000000000000008310611cbe577a184f03e93ff9f4daa797ed6e38ed64bf6a1f0100000000000000008381611cb457611cb3612e3a565b5b0492506040810190505b6d04ee2d6d415b85acef81000000008310611cfb576d04ee2d6d415b85acef81000000008381611cf157611cf0612e3a565b5b0492506020810190505b662386f26fc100008310611d2a57662386f26fc100008381611d2057611d1f612e3a565b5b0492506010810190505b6305f5e1008310611d53576305f5e1008381611d4957611d48612e3a565b5b0492506008810190505b6127108310611d78576127108381611d6e57611d6d612e3a565b5b0492506004810190505b60648310611d9b5760648381611d9157611d90612e3a565b5b0492506002810190505b600a8310611daa576001810190505b80915050919050565b6000604051905090565b600080fd5b600080fd5b60007fffffffff0000000000000000000000000000000000000000000000000000000082169050919050565b611dfc81611dc7565b8114611e0757600080fd5b50565b600081359050611e1981611df3565b92915050565b600060208284031215611e3557611e34611dbd565b5b6000611e4384828501611e0a565b91505092915050565b60008115159050919050565b611e6181611e4c565b82525050565b6000602082019050611e7c6000830184611e58565b92915050565b600081519050919050565b600082825260208201905092915050565b60005b83811015611ebc578082015181840152602081019050611ea1565b60008484015250505050565b6000601f19601f8301169050919050565b6000611ee482611e82565b611eee8185611e8d565b9350611efe818560208601611e9e565b611f0781611ec8565b840191505092915050565b60006020820190508181036000830152611f2c8184611ed9565b905092915050565b6000819050919050565b611f4781611f34565b8114611f5257600080fd5b50565b600081359050611f6481611f3e565b92915050565b600060208284031215611f8057611f7f611dbd565b5b6000611f8e84828501611f55565b91505092915050565b600073ffffffffffffffffffffffffffffffffffffffff82169050919050565b6000611fc282611f97565b9050919050565b611fd281611fb7565b82525050565b6000602082019050611fed6000830184611fc9565b92915050565b611ffc81611fb7565b811461200757600080fd5b50565b60008135905061201981611ff3565b92915050565b6000806040838503121561203657612035611dbd565b5b60006120448582860161200a565b925050602061205585828601611f55565b9150509250929050565b60008060006060848603121561207857612077611dbd565b5b60006120868682870161200a565b93505060206120978682870161200a565b92505060406120a886828701611f55565b9150509250925092565b6000602082840312156120c8576120c7611dbd565b5b60006120d68482850161200a565b91505092915050565b6120e881611f34565b82525050565b600060208201905061210360008301846120df565b92915050565b61211281611e4c565b811461211d57600080fd5b50565b60008135905061212f81612109565b92915050565b6000806040838503121561214c5761214b611dbd565b5b600061215a8582860161200a565b925050602061216b85828601612120565b9150509250929050565b600080fd5b600080fd5b7f4e487b7100000000000000000000000000000000000000000000000000000000600052604160045260246000fd5b6121b782611ec8565b810181811067ffffffffffffffff821117156121d6576121d561217f565b5b80604052505050565b60006121e9611db3565b90506121f582826121ae565b919050565b600067ffffffffffffffff8211156122155761221461217f565b5b61221e82611ec8565b9050602081019050919050565b82818337600083830152505050565b600061224d612248846121fa565b6121df565b9050828152602081018484840111156122695761226861217a565b5b61227484828561222b565b509392505050565b600082601f83011261229157612290612175565b5b81356122a184826020860161223a565b91505092915050565b600080600080608085870312156122c4576122c3611dbd565b5b60006122d28782880161200a565b94505060206122e38782880161200a565b93505060406122f487828801611f55565b925050606085013567ffffffffffffffff81111561231557612314611dc2565b5b6123218782880161227c565b91505092959194509250565b6000806040838503121561234457612343611dbd565b5b60006123528582860161200a565b92505060206123638582860161200a565b9150509250929050565b7f4e487b7100000000000000000000000000000000000000000000000000000000600052602260045260246000fd5b600060028204905060018216806123b457607f821691505b6020821081036123c7576123c661236d565b5b50919050565b7f4552433732313a20617070726f76616c20746f2063757272656e74206f776e6560008201527f7200000000000000000000000000000000000000000000000000000000000000602082015250565b6000612429602183611e8d565b9150612434826123cd565b604082019050919050565b600060208201905081810360008301526124588161241c565b9050919050565b7f4552433732313a20617070726f76652063616c6c6572206973206e6f7420746f60008201527f6b656e206f776e6572206f7220617070726f76656420666f7220616c6c000000602082015250565b60006124bb603d83611e8d565b91506124c68261245f565b604082019050919050565b600060208201905081810360008301526124ea816124ae565b9050919050565b7f4552433732313a2063616c6c6572206973206e6f7420746f6b656e206f776e6560008201527f72206f7220617070726f76656400000000000000000000000000000000000000602082015250565b600061254d602d83611e8d565b9150612558826124f1565b604082019050919050565b6000602082019050818103600083015261257c81612540565b9050919050565b7f4552433732313a20696e76616c696420746f6b656e2049440000000000000000600082015250565b60006125b9601883611e8d565b91506125c482612583565b602082019050919050565b600060208201905081810360008301526125e8816125ac565b9050919050565b7f4552433732313a2061646472657373207a65726f206973206e6f74206120766160008201527f6c6964206f776e65720000000000000000000000000000000000000000000000602082015250565b600061264b602983611e8d565b9150612656826125ef565b604082019050919050565b6000602082019050818103600083015261267a8161263e565b9050919050565b7f4d7573742062652070726f706f736564206f776e657200000000000000000000600082015250565b60006126b7601683611e8d565b91506126c282612681565b602082019050919050565b600060208201905081810360008301526126e6816126aa565b9050919050565b600081905092915050565b600061270382611e82565b61270d81856126ed565b935061271d818560208601611e9e565b80840191505092915050565b600061273582856126f8565b915061274182846126f8565b91508190509392505050565b7f4552433732313a207472616e736665722066726f6d20696e636f72726563742060008201527f6f776e6572000000000000000000000000000000000000000000000000000000602082015250565b60006127a9602583611e8d565b91506127b48261274d565b604082019050919050565b600060208201905081810360008301526127d88161279c565b9050919050565b7f4552433732313a207472616e7366657220746f20746865207a65726f2061646460008201527f7265737300000000000000000000000000000000000000000000000000000000602082015250565b600061283b602483611e8d565b9150612846826127df565b604082019050919050565b6000602082019050818103600083015261286a8161282e565b9050919050565b7f4f6e6c792063616c6c61626c65206279206f776e657200000000000000000000600082015250565b60006128a7601683611e8d565b91506128b282612871565b602082019050919050565b600060208201905081810360008301526128d68161289a565b9050919050565b7f45524337323155524953746f726167653a2055524920736574206f66206e6f6e60008201527f6578697374656e7420746f6b656e000000000000000000000000000000000000602082015250565b6000612939602e83611e8d565b9150612944826128dd565b604082019050919050565b600060208201905081810360008301526129688161292c565b9050919050565b60008190508160005260206000209050919050565b60006020601f8301049050919050565b600082821b905092915050565b6000600883026129d17fffffffffffffffffffffffffffffffffffffffffffffffffffffffffffffffff82612994565b6129db8683612994565b95508019841693508086168417925050509392505050565b6000819050919050565b6000612a18612a13612a0e84611f34565b6129f3565b611f34565b9050919050565b6000819050919050565b612a32836129fd565b612a46612a3e82612a1f565b8484546129a1565b825550505050565b600090565b612a5b612a4e565b612a66818484612a29565b505050565b5b81811015612a8a57612a7f600082612a53565b600181019050612a6c565b5050565b601f821115612acf57612aa08161296f565b612aa984612984565b81016020851015612ab8578190505b612acc612ac485612984565b830182612a6b565b50505b505050565b600082821c905092915050565b6000612af260001984600802612ad4565b1980831691505092915050565b6000612b0b8383612ae1565b9150826002028217905092915050565b612b2482611e82565b67ffffffffffffffff811115612b3d57612b3c61217f565b5b612b47825461239c565b612b52828285612a8e565b600060209050601f831160018114612b855760008415612b73578287015190505b612b7d8582612aff565b865550612be5565b601f198416612b938661296f565b60005b82811015612bbb57848901518255600182019150602085019450602081019050612b96565b86831015612bd85784890151612bd4601f891682612ae1565b8355505b6001600288020188555050505b505050505050565b7f4552433732313a20617070726f766520746f2063616c6c657200000000000000600082015250565b6000612c23601983611e8d565b9150612c2e82612bed565b602082019050919050565b60006020820190508181036000830152612c5281612c16565b9050919050565b7f4552433732313a207472616e7366657220746f206e6f6e20455243373231526560008201527f63656976657220696d706c656d656e7465720000000000000000000000000000602082015250565b6000612cb5603283611e8d565b9150612cc082612c59565b604082019050919050565b60006020820190508181036000830152612ce481612ca8565b9050919050565b7f43616e6e6f74207472616e7366657220746f2073656c66000000000000000000600082015250565b6000612d21601783611e8d565b9150612d2c82612ceb565b602082019050919050565b60006020820190508181036000830152612d5081612d14565b9050919050565b600081519050919050565b600082825260208201905092915050565b6000612d7e82612d57565b612d888185612d62565b9350612d98818560208601611e9e565b612da181611ec8565b840191505092915050565b6000608082019050612dc16000830187611fc9565b612dce6020830186611fc9565b612ddb60408301856120df565b8181036060830152612ded8184612d73565b905095945050505050565b600081519050612e0781611df3565b92915050565b600060208284031215612e2357612e22611dbd565b5b6000612e3184828501612df8565b91505092915050565b7f4e487b7100000000000000000000000000000000000000000000000000000000600052601260045260246000fd5b7f4552433732313a206d696e7420746f20746865207a65726f2061646472657373600082015250565b6000612e9f602083611e8d565b9150612eaa82612e69565b602082019050919050565b60006020820190508181036000830152612ece81612e92565b9050919050565b7f4552433732313a20746f6b656e20616c7265616479206d696e74656400000000600082015250565b6000612f0b601c83611e8d565b9150612f1682612ed5565b602082019050919050565b60006020820190508181036000830152612f3a81612efe565b905091905056fe68747470733a2f2f697066732e696f2f697066732f516d59754b593435417138374c654c315235646862316871484c70365a46624a614350386a78714b4d314d5836792f626162655f727574685f312e6a736f6ea26469706673582212207d7dab3d8b273f096a0bdf6d8b9bef6ba3690482d5f317b2d5d39f82972cdea964736f6c63430008130033",
			"opcodes": "PUSH1 0x80 PUSH1 0x40 MSTORE CALLVALUE DUP1 ISZERO PUSH3 0x11 JUMPI PUSH1 0x0 DUP1 REVERT JUMPDEST POP CALLER DUP1 PUSH1 0x0 PUSH1 0x40 MLOAD DUP1 PUSH1 0x40 ADD PUSH1 0x40 MSTORE DUP1 PUSH1 0x5 DUP2 MSTORE PUSH1 0x20 ADD PUSH32 0x4D794E4654000000000000000000000000000000000000000000000000000000 DUP2 MSTORE POP PUSH1 0x40 MLOAD DUP1 PUSH1 0x40 ADD PUSH1 0x40 MSTORE DUP1 PUSH1 0x4 DUP2 MSTORE PUSH1 0x20 ADD PUSH32 0x4D4E465400000000000000000000000000000000000000000000000000000000 DUP2 MSTORE POP DUP2 PUSH1 0x0 SWAP1 DUP2 PUSH3 0x93 SWAP2 SWAP1 PUSH3 0x556 JUMP JUMPDEST POP DUP1 PUSH1 0x1 SWAP1 DUP2 PUSH3 0xA5 SWAP2 SWAP1 PUSH3 0x556 JUMP JUMPDEST POP POP POP PUSH1 0x0 PUSH20 0xFFFFFFFFFFFFFFFFFFFFFFFFFFFFFFFFFFFFFFFF AND DUP3 PUSH20 0xFFFFFFFFFFFFFFFFFFFFFFFFFFFFFFFFFFFFFFFF AND SUB PUSH3 0x11A JUMPI PUSH1 0x40 MLOAD PUSH32 0x8C379A000000000000000000000000000000000000000000000000000000000 DUP2 MSTORE PUSH1 0x4 ADD PUSH3 0x111 SWAP1 PUSH3 0x69E JUMP JUMPDEST PUSH1 0x40 MLOAD DUP1 SWAP2 SUB SWAP1 REVERT JUMPDEST DUP2 PUSH1 0x7 PUSH1 0x0 PUSH2 0x100 EXP DUP2 SLOAD DUP2 PUSH20 0xFFFFFFFFFFFFFFFFFFFFFFFFFFFFFFFFFFFFFFFF MUL NOT AND SWAP1 DUP4 PUSH20 0xFFFFFFFFFFFFFFFFFFFFFFFFFFFFFFFFFFFFFFFF AND MUL OR SWAP1 SSTORE POP PUSH1 0x0 PUSH20 0xFFFFFFFFFFFFFFFFFFFFFFFFFFFFFFFFFFFFFFFF AND DUP2 PUSH20 0xFFFFFFFFFFFFFFFFFFFFFFFFFFFFFFFFFFFFFFFF AND EQ PUSH3 0x1A2 JUMPI PUSH3 0x1A1 DUP2 PUSH3 0x1AB PUSH1 0x20 SHL PUSH1 0x20 SHR JUMP JUMPDEST JUMPDEST POP POP POP PUSH3 0x732 JUMP JUMPDEST CALLER PUSH20 0xFFFFFFFFFFFFFFFFFFFFFFFFFFFFFFFFFFFFFFFF AND DUP2 PUSH20 0xFFFFFFFFFFFFFFFFFFFFFFFFFFFFFFFFFFFFFFFF AND SUB PUSH3 0x21C JUMPI PUSH1 0x40 MLOAD PUSH32 0x8C379A000000000000000000000000000000000000000000000000000000000 DUP2 MSTORE PUSH1 0x4 ADD PUSH3 0x213 SWAP1 PUSH3 0x710 JUMP JUMPDEST PUSH1 0x40 MLOAD DUP1 SWAP2 SUB SWAP1 REVERT JUMPDEST DUP1 PUSH1 0x8 PUSH1 0x0 PUSH2 0x100 EXP DUP2 SLOAD DUP2 PUSH20 0xFFFFFFFFFFFFFFFFFFFFFFFFFFFFFFFFFFFFFFFF MUL NOT AND SWAP1 DUP4 PUSH20 0xFFFFFFFFFFFFFFFFFFFFFFFFFFFFFFFFFFFFFFFF AND MUL OR SWAP1 SSTORE POP DUP1 PUSH20 0xFFFFFFFFFFFFFFFFFFFFFFFFFFFFFFFFFFFFFFFF AND PUSH1 0x7 PUSH1 0x0 SWAP1 SLOAD SWAP1 PUSH2 0x100 EXP SWAP1 DIV PUSH20 0xFFFFFFFFFFFFFFFFFFFFFFFFFFFFFFFFFFFFFFFF AND PUSH20 0xFFFFFFFFFFFFFFFFFFFFFFFFFFFFFFFFFFFFFFFF AND PUSH32 0xED8889F560326EB138920D842192F0EB3DD22B4F139C87A2C57538E05BAE1278 PUSH1 0x40 MLOAD PUSH1 0x40 MLOAD DUP1 SWAP2 SUB SWAP1 LOG3 POP JUMP JUMPDEST PUSH1 0x0 DUP2 MLOAD SWAP1 POP SWAP2 SWAP1 POP JUMP JUMPDEST PUSH32 0x4E487B7100000000000000000000000000000000000000000000000000000000 PUSH1 0x0 MSTORE PUSH1 0x41 PUSH1 0x4 MSTORE PUSH1 0x24 PUSH1 0x0 REVERT JUMPDEST PUSH32 0x4E487B7100000000000000000000000000000000000000000000000000000000 PUSH1 0x0 MSTORE PUSH1 0x22 PUSH1 0x4 MSTORE PUSH1 0x24 PUSH1 0x0 REVERT JUMPDEST PUSH1 0x0 PUSH1 0x2 DUP3 DIV SWAP1 POP PUSH1 0x1 DUP3 AND DUP1 PUSH3 0x35E JUMPI PUSH1 0x7F DUP3 AND SWAP2 POP JUMPDEST PUSH1 0x20 DUP3 LT DUP2 SUB PUSH3 0x374 JUMPI PUSH3 0x373 PUSH3 0x316 JUMP JUMPDEST JUMPDEST POP SWAP2 SWAP1 POP JUMP JUMPDEST PUSH1 0x0 DUP2 SWAP1 POP DUP2 PUSH1 0x0 MSTORE PUSH1 0x20 PUSH1 0x0 KECCAK256 SWAP1 POP SWAP2 SWAP1 POP JUMP JUMPDEST PUSH1 0x0 PUSH1 0x20 PUSH1 0x1F DUP4 ADD DIV SWAP1 POP SWAP2 SWAP1 POP JUMP JUMPDEST PUSH1 0x0 DUP3 DUP3 SHL SWAP1 POP SWAP3 SWAP2 POP POP JUMP JUMPDEST PUSH1 0x0 PUSH1 0x8 DUP4 MUL PUSH3 0x3DE PUSH32 0xFFFFFFFFFFFFFFFFFFFFFFFFFFFFFFFFFFFFFFFFFFFFFFFFFFFFFFFFFFFFFFFF DUP3 PUSH3 0x39F JUMP JUMPDEST PUSH3 0x3EA DUP7 DUP4 PUSH3 0x39F JUMP JUMPDEST SWAP6 POP DUP1 NOT DUP5 AND SWAP4 POP DUP1 DUP7 AND DUP5 OR SWAP3 POP POP POP SWAP4 SWAP3 POP POP POP JUMP JUMPDEST PUSH1 0x0 DUP2 SWAP1 POP SWAP2 SWAP1 POP JUMP JUMPDEST PUSH1 0x0 DUP2 SWAP1 POP SWAP2 SWAP1 POP JUMP JUMPDEST PUSH1 0x0 PUSH3 0x437 PUSH3 0x431 PUSH3 0x42B DUP5 PUSH3 0x402 JUMP JUMPDEST PUSH3 0x40C JUMP JUMPDEST PUSH3 0x402 JUMP JUMPDEST SWAP1 POP SWAP2 SWAP1 POP JUMP JUMPDEST PUSH1 0x0 DUP2 SWAP1 POP SWAP2 SWAP1 POP JUMP JUMPDEST PUSH3 0x453 DUP4 PUSH3 0x416 JUMP JUMPDEST PUSH3 0x46B PUSH3 0x462 DUP3 PUSH3 0x43E JUMP JUMPDEST DUP5 DUP5 SLOAD PUSH3 0x3AC JUMP JUMPDEST DUP3 SSTORE POP POP POP POP JUMP JUMPDEST PUSH1 0x0 SWAP1 JUMP JUMPDEST PUSH3 0x482 PUSH3 0x473 JUMP JUMPDEST PUSH3 0x48F DUP2 DUP5 DUP5 PUSH3 0x448 JUMP JUMPDEST POP POP POP JUMP JUMPDEST JUMPDEST DUP2 DUP2 LT ISZERO PUSH3 0x4B7 JUMPI PUSH3 0x4AB PUSH1 0x0 DUP3 PUSH3 0x478 JUMP JUMPDEST PUSH1 0x1 DUP2 ADD SWAP1 POP PUSH3 0x495 JUMP JUMPDEST POP POP JUMP JUMPDEST PUSH1 0x1F DUP3 GT ISZERO PUSH3 0x506 JUMPI PUSH3 0x4D0 DUP2 PUSH3 0x37A JUMP JUMPDEST PUSH3 0x4DB DUP5 PUSH3 0x38F JUMP JUMPDEST DUP2 ADD PUSH1 0x20 DUP6 LT ISZERO PUSH3 0x4EB JUMPI DUP2 SWAP1 POP JUMPDEST PUSH3 0x503 PUSH3 0x4FA DUP6 PUSH3 0x38F JUMP JUMPDEST DUP4 ADD DUP3 PUSH3 0x494 JUMP JUMPDEST POP POP JUMPDEST POP POP POP JUMP JUMPDEST PUSH1 0x0 DUP3 DUP3 SHR SWAP1 POP SWAP3 SWAP2 POP POP JUMP JUMPDEST PUSH1 0x0 PUSH3 0x52B PUSH1 0x0 NOT DUP5 PUSH1 0x8 MUL PUSH3 0x50B JUMP JUMPDEST NOT DUP1 DUP4 AND SWAP2 POP POP SWAP3 SWAP2 POP POP JUMP JUMPDEST PUSH1 0x0 PUSH3 0x546 DUP4 DUP4 PUSH3 0x518 JUMP JUMPDEST SWAP2 POP DUP3 PUSH1 0x2 MUL DUP3 OR SWAP1 POP SWAP3 SWAP2 POP POP JUMP JUMPDEST PUSH3 0x561 DUP3 PUSH3 0x2DC JUMP JUMPDEST PUSH8 0xFFFFFFFFFFFFFFFF DUP2 GT ISZERO PUSH3 0x57D JUMPI PUSH3 0x57C PUSH3 0x2E7 JUMP JUMPDEST JUMPDEST PUSH3 0x589 DUP3 SLOAD PUSH3 0x345 JUMP JUMPDEST PUSH3 0x596 DUP3 DUP3 DUP6 PUSH3 0x4BB JUMP JUMPDEST PUSH1 0x0 PUSH1 0x20 SWAP1 POP PUSH1 0x1F DUP4 GT PUSH1 0x1 DUP2 EQ PUSH3 0x5CE JUMPI PUSH1 0x0 DUP5 ISZERO PUSH3 0x5B9 JUMPI DUP3 DUP8 ADD MLOAD SWAP1 POP JUMPDEST PUSH3 0x5C5 DUP6 DUP3 PUSH3 0x538 JUMP JUMPDEST DUP7 SSTORE POP PUSH3 0x635 JUMP JUMPDEST PUSH1 0x1F NOT DUP5 AND PUSH3 0x5DE DUP7 PUSH3 0x37A JUMP JUMPDEST PUSH1 0x0 JUMPDEST DUP3 DUP2 LT ISZERO PUSH3 0x608 JUMPI DUP5 DUP10 ADD MLOAD DUP3 SSTORE PUSH1 0x1 DUP3 ADD SWAP2 POP PUSH1 0x20 DUP6 ADD SWAP5 POP PUSH1 0x20 DUP2 ADD SWAP1 POP PUSH3 0x5E1 JUMP JUMPDEST DUP7 DUP4 LT ISZERO PUSH3 0x628 JUMPI DUP5 DUP10 ADD MLOAD PUSH3 0x624 PUSH1 0x1F DUP10 AND DUP3 PUSH3 0x518 JUMP JUMPDEST DUP4 SSTORE POP JUMPDEST PUSH1 0x1 PUSH1 0x2 DUP9 MUL ADD DUP9 SSTORE POP POP POP JUMPDEST POP POP POP POP POP POP JUMP JUMPDEST PUSH1 0x0 DUP3 DUP3 MSTORE PUSH1 0x20 DUP3 ADD SWAP1 POP SWAP3 SWAP2 POP POP JUMP JUMPDEST PUSH32 0x43616E6E6F7420736574206F776E657220746F207A65726F0000000000000000 PUSH1 0x0 DUP3 ADD MSTORE POP JUMP JUMPDEST PUSH1 0x0 PUSH3 0x686 PUSH1 0x18 DUP4 PUSH3 0x63D JUMP JUMPDEST SWAP2 POP PUSH3 0x693 DUP3 PUSH3 0x64E JUMP JUMPDEST PUSH1 0x20 DUP3 ADD SWAP1 POP SWAP2 SWAP1 POP JUMP JUMPDEST PUSH1 0x0 PUSH1 0x20 DUP3 ADD SWAP1 POP DUP2 DUP2 SUB PUSH1 0x0 DUP4 ADD MSTORE PUSH3 0x6B9 DUP2 PUSH3 0x677 JUMP JUMPDEST SWAP1 POP SWAP2 SWAP1 POP JUMP JUMPDEST PUSH32 0x43616E6E6F74207472616E7366657220746F2073656C66000000000000000000 PUSH1 0x0 DUP3 ADD MSTORE POP JUMP JUMPDEST PUSH1 0x0 PUSH3 0x6F8 PUSH1 0x17 DUP4 PUSH3 0x63D JUMP JUMPDEST SWAP2 POP PUSH3 0x705 DUP3 PUSH3 0x6C0 JUMP JUMPDEST PUSH1 0x20 DUP3 ADD SWAP1 POP SWAP2 SWAP1 POP JUMP JUMPDEST PUSH1 0x0 PUSH1 0x20 DUP3 ADD SWAP1 POP DUP2 DUP2 SUB PUSH1 0x0 DUP4 ADD MSTORE PUSH3 0x72B DUP2 PUSH3 0x6E9 JUMP JUMPDEST SWAP1 POP SWAP2 SWAP1 POP JUMP JUMPDEST PUSH2 0x2FCB DUP1 PUSH3 0x742 PUSH1 0x0 CODECOPY PUSH1 0x0 RETURN INVALID PUSH1 0x80 PUSH1 0x40 MSTORE CALLVALUE DUP1 ISZERO PUSH2 0x10 JUMPI PUSH1 0x0 DUP1 REVERT JUMPDEST POP PUSH1 0x4 CALLDATASIZE LT PUSH2 0x10B JUMPI PUSH1 0x0 CALLDATALOAD PUSH1 0xE0 SHR DUP1 PUSH4 0x70A08231 GT PUSH2 0xA2 JUMPI DUP1 PUSH4 0xA22CB465 GT PUSH2 0x71 JUMPI DUP1 PUSH4 0xA22CB465 EQ PUSH2 0x2A4 JUMPI DUP1 PUSH4 0xB88D4FDE EQ PUSH2 0x2C0 JUMPI DUP1 PUSH4 0xC87B56DD EQ PUSH2 0x2DC JUMPI DUP1 PUSH4 0xE985E9C5 EQ PUSH2 0x30C JUMPI DUP1 PUSH4 0xF2FDE38B EQ PUSH2 0x33C JUMPI PUSH2 0x10B JUMP JUMPDEST DUP1 PUSH4 0x70A08231 EQ PUSH2 0x22E JUMPI DUP1 PUSH4 0x79BA5097 EQ PUSH2 0x25E JUMPI DUP1 PUSH4 0x8DA5CB5B EQ PUSH2 0x268 JUMPI DUP1 PUSH4 0x95D89B41 EQ PUSH2 0x286 JUMPI PUSH2 0x10B JUMP JUMPDEST DUP1 PUSH4 0x23B872DD GT PUSH2 0xDE JUMPI DUP1 PUSH4 0x23B872DD EQ PUSH2 0x1AA JUMPI DUP1 PUSH4 0x42842E0E EQ PUSH2 0x1C6 JUMPI DUP1 PUSH4 0x6352211E EQ PUSH2 0x1E2 JUMPI DUP1 PUSH4 0x6A627842 EQ PUSH2 0x212 JUMPI PUSH2 0x10B JUMP JUMPDEST DUP1 PUSH4 0x1FFC9A7 EQ PUSH2 0x110 JUMPI DUP1 PUSH4 0x6FDDE03 EQ PUSH2 0x140 JUMPI DUP1 PUSH4 0x81812FC EQ PUSH2 0x15E JUMPI DUP1 PUSH4 0x95EA7B3 EQ PUSH2 0x18E JUMPI JUMPDEST PUSH1 0x0 DUP1 REVERT JUMPDEST PUSH2 0x12A PUSH1 0x4 DUP1 CALLDATASIZE SUB DUP2 ADD SWAP1 PUSH2 0x125 SWAP2 SWAP1 PUSH2 0x1E1F JUMP JUMPDEST PUSH2 0x358 JUMP JUMPDEST PUSH1 0x40 MLOAD PUSH2 0x137 SWAP2 SWAP1 PUSH2 0x1E67 JUMP JUMPDEST PUSH1 0x40 MLOAD DUP1 SWAP2 SUB SWAP1 RETURN JUMPDEST PUSH2 0x148 PUSH2 0x3B9 JUMP JUMPDEST PUSH1 0x40 MLOAD PUSH2 0x155 SWAP2 SWAP1 PUSH2 0x1F12 JUMP JUMPDEST PUSH1 0x40 MLOAD DUP1 SWAP2 SUB SWAP1 RETURN JUMPDEST PUSH2 0x178 PUSH1 0x4 DUP1 CALLDATASIZE SUB DUP2 ADD SWAP1 PUSH2 0x173 SWAP2 SWAP1 PUSH2 0x1F6A JUMP JUMPDEST PUSH2 0x44B JUMP JUMPDEST PUSH1 0x40 MLOAD PUSH2 0x185 SWAP2 SWAP1 PUSH2 0x1FD8 JUMP JUMPDEST PUSH1 0x40 MLOAD DUP1 SWAP2 SUB SWAP1 RETURN JUMPDEST PUSH2 0x1A8 PUSH1 0x4 DUP1 CALLDATASIZE SUB DUP2 ADD SWAP1 PUSH2 0x1A3 SWAP2 SWAP1 PUSH2 0x201F JUMP JUMPDEST PUSH2 0x491 JUMP JUMPDEST STOP JUMPDEST PUSH2 0x1C4 PUSH1 0x4 DUP1 CALLDATASIZE SUB DUP2 ADD SWAP1 PUSH2 0x1BF SWAP2 SWAP1 PUSH2 0x205F JUMP JUMPDEST PUSH2 0x5A8 JUMP JUMPDEST STOP JUMPDEST PUSH2 0x1E0 PUSH1 0x4 DUP1 CALLDATASIZE SUB DUP2 ADD SWAP1 PUSH2 0x1DB SWAP2 SWAP1 PUSH2 0x205F JUMP JUMPDEST PUSH2 0x608 JUMP JUMPDEST STOP JUMPDEST PUSH2 0x1FC PUSH1 0x4 DUP1 CALLDATASIZE SUB DUP2 ADD SWAP1 PUSH2 0x1F7 SWAP2 SWAP1 PUSH2 0x1F6A JUMP JUMPDEST PUSH2 0x628 JUMP JUMPDEST PUSH1 0x40 MLOAD PUSH2 0x209 SWAP2 SWAP1 PUSH2 0x1FD8 JUMP JUMPDEST PUSH1 0x40 MLOAD DUP1 SWAP2 SUB SWAP1 RETURN JUMPDEST PUSH2 0x22C PUSH1 0x4 DUP1 CALLDATASIZE SUB DUP2 ADD SWAP1 PUSH2 0x227 SWAP2 SWAP1 PUSH2 0x20B2 JUMP JUMPDEST PUSH2 0x6AE JUMP JUMPDEST STOP JUMPDEST PUSH2 0x248 PUSH1 0x4 DUP1 CALLDATASIZE SUB DUP2 ADD SWAP1 PUSH2 0x243 SWAP2 SWAP1 PUSH2 0x20B2 JUMP JUMPDEST PUSH2 0x6FB JUMP JUMPDEST PUSH1 0x40 MLOAD PUSH2 0x255 SWAP2 SWAP1 PUSH2 0x20EE JUMP JUMPDEST PUSH1 0x40 MLOAD DUP1 SWAP2 SUB SWAP1 RETURN JUMPDEST PUSH2 0x266 PUSH2 0x7B2 JUMP JUMPDEST STOP JUMPDEST PUSH2 0x270 PUSH2 0x949 JUMP JUMPDEST PUSH1 0x40 MLOAD PUSH2 0x27D SWAP2 SWAP1 PUSH2 0x1FD8 JUMP JUMPDEST PUSH1 0x40 MLOAD DUP1 SWAP2 SUB SWAP1 RETURN JUMPDEST PUSH2 0x28E PUSH2 0x973 JUMP JUMPDEST PUSH1 0x40 MLOAD PUSH2 0x29B SWAP2 SWAP1 PUSH2 0x1F12 JUMP JUMPDEST PUSH1 0x40 MLOAD DUP1 SWAP2 SUB SWAP1 RETURN JUMPDEST PUSH2 0x2BE PUSH1 0x4 DUP1 CALLDATASIZE SUB DUP2 ADD SWAP1 PUSH2 0x2B9 SWAP2 SWAP1 PUSH2 0x2135 JUMP JUMPDEST PUSH2 0xA05 JUMP JUMPDEST STOP JUMPDEST PUSH2 0x2DA PUSH1 0x4 DUP1 CALLDATASIZE SUB DUP2 ADD SWAP1 PUSH2 0x2D5 SWAP2 SWAP1 PUSH2 0x22AA JUMP JUMPDEST PUSH2 0xA1B JUMP JUMPDEST STOP JUMPDEST PUSH2 0x2F6 PUSH1 0x4 DUP1 CALLDATASIZE SUB DUP2 ADD SWAP1 PUSH2 0x2F1 SWAP2 SWAP1 PUSH2 0x1F6A JUMP JUMPDEST PUSH2 0xA7D JUMP JUMPDEST PUSH1 0x40 MLOAD PUSH2 0x303 SWAP2 SWAP1 PUSH2 0x1F12 JUMP JUMPDEST PUSH1 0x40 MLOAD DUP1 SWAP2 SUB SWAP1 RETURN JUMPDEST PUSH2 0x326 PUSH1 0x4 DUP1 CALLDATASIZE SUB DUP2 ADD SWAP1 PUSH2 0x321 SWAP2 SWAP1 PUSH2 0x232D JUMP JUMPDEST PUSH2 0xB8F JUMP JUMPDEST PUSH1 0x40 MLOAD PUSH2 0x333 SWAP2 SWAP1 PUSH2 0x1E67 JUMP JUMPDEST PUSH1 0x40 MLOAD DUP1 SWAP2 SUB SWAP1 RETURN JUMPDEST PUSH2 0x356 PUSH1 0x4 DUP1 CALLDATASIZE SUB DUP2 ADD SWAP1 PUSH2 0x351 SWAP2 SWAP1 PUSH2 0x20B2 JUMP JUMPDEST PUSH2 0xC23 JUMP JUMPDEST STOP JUMPDEST PUSH1 0x0 PUSH4 0x49064906 PUSH1 0xE0 SHL PUSH28 0xFFFFFFFFFFFFFFFFFFFFFFFFFFFFFFFFFFFFFFFFFFFFFFFFFFFFFFFF NOT AND DUP3 PUSH28 0xFFFFFFFFFFFFFFFFFFFFFFFFFFFFFFFFFFFFFFFFFFFFFFFFFFFFFFFF NOT AND EQ DUP1 PUSH2 0x3B2 JUMPI POP PUSH2 0x3B1 DUP3 PUSH2 0xC37 JUMP JUMPDEST JUMPDEST SWAP1 POP SWAP2 SWAP1 POP JUMP JUMPDEST PUSH1 0x60 PUSH1 0x0 DUP1 SLOAD PUSH2 0x3C8 SWAP1 PUSH2 0x239C JUMP JUMPDEST DUP1 PUSH1 0x1F ADD PUSH1 0x20 DUP1 SWAP2 DIV MUL PUSH1 0x20 ADD PUSH1 0x40 MLOAD SWAP1 DUP2 ADD PUSH1 0x40 MSTORE DUP1 SWAP3 SWAP2 SWAP1 DUP2 DUP2 MSTORE PUSH1 0x20 ADD DUP3 DUP1 SLOAD PUSH2 0x3F4 SWAP1 PUSH2 0x239C JUMP JUMPDEST DUP1 ISZERO PUSH2 0x441 JUMPI DUP1 PUSH1 0x1F LT PUSH2 0x416 JUMPI PUSH2 0x100 DUP1 DUP4 SLOAD DIV MUL DUP4 MSTORE SWAP2 PUSH1 0x20 ADD SWAP2 PUSH2 0x441 JUMP JUMPDEST DUP3 ADD SWAP2 SWAP1 PUSH1 0x0 MSTORE PUSH1 0x20 PUSH1 0x0 KECCAK256 SWAP1 JUMPDEST DUP2 SLOAD DUP2 MSTORE SWAP1 PUSH1 0x1 ADD SWAP1 PUSH1 0x20 ADD DUP1 DUP4 GT PUSH2 0x424 JUMPI DUP3 SWAP1 SUB PUSH1 0x1F AND DUP3 ADD SWAP2 JUMPDEST POP POP POP POP POP SWAP1 POP SWAP1 JUMP JUMPDEST PUSH1 0x0 PUSH2 0x456 DUP3 PUSH2 0xD19 JUMP JUMPDEST PUSH1 0x4 PUSH1 0x0 DUP4 DUP2 MSTORE PUSH1 0x20 ADD SWAP1 DUP2 MSTORE PUSH1 0x20 ADD PUSH1 0x0 KECCAK256 PUSH1 0x0 SWAP1 SLOAD SWAP1 PUSH2 0x100 EXP SWAP1 DIV PUSH20 0xFFFFFFFFFFFFFFFFFFFFFFFFFFFFFFFFFFFFFFFF AND SWAP1 POP SWAP2 SWAP1 POP JUMP JUMPDEST PUSH1 0x0 PUSH2 0x49C DUP3 PUSH2 0x628 JUMP JUMPDEST SWAP1 POP DUP1 PUSH20 0xFFFFFFFFFFFFFFFFFFFFFFFFFFFFFFFFFFFFFFFF AND DUP4 PUSH20 0xFFFFFFFFFFFFFFFFFFFFFFFFFFFFFFFFFFFFFFFF AND SUB PUSH2 0x50C JUMPI PUSH1 0x40 MLOAD PUSH32 0x8C379A000000000000000000000000000000000000000000000000000000000 DUP2 MSTORE PUSH1 0x4 ADD PUSH2 0x503 SWAP1 PUSH2 0x243F JUMP JUMPDEST PUSH1 0x40 MLOAD DUP1 SWAP2 SUB SWAP1 REVERT JUMPDEST DUP1 PUSH20 0xFFFFFFFFFFFFFFFFFFFFFFFFFFFFFFFFFFFFFFFF AND PUSH2 0x52B PUSH2 0xD64 JUMP JUMPDEST PUSH20 0xFFFFFFFFFFFFFFFFFFFFFFFFFFFFFFFFFFFFFFFF AND EQ DUP1 PUSH2 0x55A JUMPI POP PUSH2 0x559 DUP2 PUSH2 0x554 PUSH2 0xD64 JUMP JUMPDEST PUSH2 0xB8F JUMP JUMPDEST JUMPDEST PUSH2 0x599 JUMPI PUSH1 0x40 MLOAD PUSH32 0x8C379A000000000000000000000000000000000000000000000000000000000 DUP2 MSTORE PUSH1 0x4 ADD PUSH2 0x590 SWAP1 PUSH2 0x24D1 JUMP JUMPDEST PUSH1 0x40 MLOAD DUP1 SWAP2 SUB SWAP1 REVERT JUMPDEST PUSH2 0x5A3 DUP4 DUP4 PUSH2 0xD6C JUMP JUMPDEST POP POP POP JUMP JUMPDEST PUSH2 0x5B9 PUSH2 0x5B3 PUSH2 0xD64 JUMP JUMPDEST DUP3 PUSH2 0xE25 JUMP JUMPDEST PUSH2 0x5F8 JUMPI PUSH1 0x40 MLOAD PUSH32 0x8C379A000000000000000000000000000000000000000000000000000000000 DUP2 MSTORE PUSH1 0x4 ADD PUSH2 0x5EF SWAP1 PUSH2 0x2563 JUMP JUMPDEST PUSH1 0x40 MLOAD DUP1 SWAP2 SUB SWAP1 REVERT JUMPDEST PUSH2 0x603 DUP4 DUP4 DUP4 PUSH2 0xEBA JUMP JUMPDEST POP POP POP JUMP JUMPDEST PUSH2 0x623 DUP4 DUP4 DUP4 PUSH1 0x40 MLOAD DUP1 PUSH1 0x20 ADD PUSH1 0x40 MSTORE DUP1 PUSH1 0x0 DUP2 MSTORE POP PUSH2 0xA1B JUMP JUMPDEST POP POP POP JUMP JUMPDEST PUSH1 0x0 DUP1 PUSH2 0x634 DUP4 PUSH2 0x11B3 JUMP JUMPDEST SWAP1 POP PUSH1 0x0 PUSH20 0xFFFFFFFFFFFFFFFFFFFFFFFFFFFFFFFFFFFFFFFF AND DUP2 PUSH20 0xFFFFFFFFFFFFFFFFFFFFFFFFFFFFFFFFFFFFFFFF AND SUB PUSH2 0x6A5 JUMPI PUSH1 0x40 MLOAD PUSH32 0x8C379A000000000000000000000000000000000000000000000000000000000 DUP2 MSTORE PUSH1 0x4 ADD PUSH2 0x69C SWAP1 PUSH2 0x25CF JUMP JUMPDEST PUSH1 0x40 MLOAD DUP1 SWAP2 SUB SWAP1 REVERT JUMPDEST DUP1 SWAP2 POP POP SWAP2 SWAP1 POP JUMP JUMPDEST PUSH2 0x6B6 PUSH2 0x11F0 JUMP JUMPDEST PUSH2 0x6C2 DUP2 PUSH1 0x9 SLOAD PUSH2 0x1282 JUMP JUMPDEST PUSH2 0x6E6 PUSH1 0x9 SLOAD PUSH1 0x40 MLOAD DUP1 PUSH1 0x80 ADD PUSH1 0x40 MSTORE DUP1 PUSH1 0x54 DUP2 MSTORE PUSH1 0x20 ADD PUSH2 0x2F42 PUSH1 0x54 SWAP2 CODECOPY PUSH2 0x12A0 JUMP JUMPDEST PUSH1 0x9 PUSH1 0x0 DUP2 SLOAD DUP1 SWAP3 SWAP2 SWAP1 PUSH1 0x1 ADD SWAP2 SWAP1 POP SSTORE POP POP JUMP JUMPDEST PUSH1 0x0 DUP1 PUSH20 0xFFFFFFFFFFFFFFFFFFFFFFFFFFFFFFFFFFFFFFFF AND DUP3 PUSH20 0xFFFFFFFFFFFFFFFFFFFFFFFFFFFFFFFFFFFFFFFF AND SUB PUSH2 0x76B JUMPI PUSH1 0x40 MLOAD PUSH32 0x8C379A000000000000000000000000000000000000000000000000000000000 DUP2 MSTORE PUSH1 0x4 ADD PUSH2 0x762 SWAP1 PUSH2 0x2661 JUMP JUMPDEST PUSH1 0x40 MLOAD DUP1 SWAP2 SUB SWAP1 REVERT JUMPDEST PUSH1 0x3 PUSH1 0x0 DUP4 PUSH20 0xFFFFFFFFFFFFFFFFFFFFFFFFFFFFFFFFFFFFFFFF AND PUSH20 0xFFFFFFFFFFFFFFFFFFFFFFFFFFFFFFFFFFFFFFFF AND DUP2 MSTORE PUSH1 0x20 ADD SWAP1 DUP2 MSTORE PUSH1 0x20 ADD PUSH1 0x0 KECCAK256 SLOAD SWAP1 POP SWAP2 SWAP1 POP JUMP JUMPDEST PUSH1 0x8 PUSH1 0x0 SWAP1 SLOAD SWAP1 PUSH2 0x100 EXP SWAP1 DIV PUSH20 0xFFFFFFFFFFFFFFFFFFFFFFFFFFFFFFFFFFFFFFFF AND PUSH20 0xFFFFFFFFFFFFFFFFFFFFFFFFFFFFFFFFFFFFFFFF AND CALLER PUSH20 0xFFFFFFFFFFFFFFFFFFFFFFFFFFFFFFFFFFFFFFFF AND EQ PUSH2 0x842 JUMPI PUSH1 0x40 MLOAD PUSH32 0x8C379A000000000000000000000000000000000000000000000000000000000 DUP2 MSTORE PUSH1 0x4 ADD PUSH2 0x839 SWAP1 PUSH2 0x26CD JUMP JUMPDEST PUSH1 0x40 MLOAD DUP1 SWAP2 SUB SWAP1 REVERT JUMPDEST PUSH1 0x0 PUSH1 0x7 PUSH1 0x0 SWAP1 SLOAD SWAP1 PUSH2 0x100 EXP SWAP1 DIV PUSH20 0xFFFFFFFFFFFFFFFFFFFFFFFFFFFFFFFFFFFFFFFF AND SWAP1 POP CALLER PUSH1 0x7 PUSH1 0x0 PUSH2 0x100 EXP DUP2 SLOAD DUP2 PUSH20 0xFFFFFFFFFFFFFFFFFFFFFFFFFFFFFFFFFFFFFFFF MUL NOT AND SWAP1 DUP4 PUSH20 0xFFFFFFFFFFFFFFFFFFFFFFFFFFFFFFFFFFFFFFFF AND MUL OR SWAP1 SSTORE POP PUSH1 0x0 PUSH1 0x8 PUSH1 0x0 PUSH2 0x100 EXP DUP2 SLOAD DUP2 PUSH20 0xFFFFFFFFFFFFFFFFFFFFFFFFFFFFFFFFFFFFFFFF MUL NOT AND SWAP1 DUP4 PUSH20 0xFFFFFFFFFFFFFFFFFFFFFFFFFFFFFFFFFFFFFFFF AND MUL OR SWAP1 SSTORE POP CALLER PUSH20 0xFFFFFFFFFFFFFFFFFFFFFFFFFFFFFFFFFFFFFFFF AND DUP2 PUSH20 0xFFFFFFFFFFFFFFFFFFFFFFFFFFFFFFFFFFFFFFFF AND PUSH32 0x8BE0079C531659141344CD1FD0A4F28419497F9722A3DAAFE3B4186F6B6457E0 PUSH1 0x40 MLOAD PUSH1 0x40 MLOAD DUP1 SWAP2 SUB SWAP1 LOG3 POP JUMP JUMPDEST PUSH1 0x0 PUSH1 0x7 PUSH1 0x0 SWAP1 SLOAD SWAP1 PUSH2 0x100 EXP SWAP1 DIV PUSH20 0xFFFFFFFFFFFFFFFFFFFFFFFFFFFFFFFFFFFFFFFF AND SWAP1 POP SWAP1 JUMP JUMPDEST PUSH1 0x60 PUSH1 0x1 DUP1 SLOAD PUSH2 0x982 SWAP1 PUSH2 0x239C JUMP JUMPDEST DUP1 PUSH1 0x1F ADD PUSH1 0x20 DUP1 SWAP2 DIV MUL PUSH1 0x20 ADD PUSH1 0x40 MLOAD SWAP1 DUP2 ADD PUSH1 0x40 MSTORE DUP1 SWAP3 SWAP2 SWAP1 DUP2 DUP2 MSTORE PUSH1 0x20 ADD DUP3 DUP1 SLOAD PUSH2 0x9AE SWAP1 PUSH2 0x239C JUMP JUMPDEST DUP1 ISZERO PUSH2 0x9FB JUMPI DUP1 PUSH1 0x1F LT PUSH2 0x9D0 JUMPI PUSH2 0x100 DUP1 DUP4 SLOAD DIV MUL DUP4 MSTORE SWAP2 PUSH1 0x20 ADD SWAP2 PUSH2 0x9FB JUMP JUMPDEST DUP3 ADD SWAP2 SWAP1 PUSH1 0x0 MSTORE PUSH1 0x20 PUSH1 0x0 KECCAK256 SWAP1 JUMPDEST DUP2 SLOAD DUP2 MSTORE SWAP1 PUSH1 0x1 ADD SWAP1 PUSH1 0x20 ADD DUP1 DUP4 GT PUSH2 0x9DE JUMPI DUP3 SWAP1 SUB PUSH1 0x1F AND DUP3 ADD SWAP2 JUMPDEST POP POP POP POP POP SWAP1 POP SWAP1 JUMP JUMPDEST PUSH2 0xA17 PUSH2 0xA10 PUSH2 0xD64 JUMP JUMPDEST DUP4 DUP4 PUSH2 0x1344 JUMP JUMPDEST POP POP JUMP JUMPDEST PUSH2 0xA2C PUSH2 0xA26 PUSH2 0xD64 JUMP JUMPDEST DUP4 PUSH2 0xE25 JUMP JUMPDEST PUSH2 0xA6B JUMPI PUSH1 0x40 MLOAD PUSH32 0x8C379A000000000000000000000000000000000000000000000000000000000 DUP2 MSTORE PUSH1 0x4 ADD PUSH2 0xA62 SWAP1 PUSH2 0x2563 JUMP JUMPDEST PUSH1 0x40 MLOAD DUP1 SWAP2 SUB SWAP1 REVERT JUMPDEST PUSH2 0xA77 DUP5 DUP5 DUP5 DUP5 PUSH2 0x14B0 JUMP JUMPDEST POP POP POP POP JUMP JUMPDEST PUSH1 0x60 PUSH2 0xA88 DUP3 PUSH2 0xD19 JUMP JUMPDEST PUSH1 0x0 PUSH1 0x6 PUSH1 0x0 DUP5 DUP2 MSTORE PUSH1 0x20 ADD SWAP1 DUP2 MSTORE PUSH1 0x20 ADD PUSH1 0x0 KECCAK256 DUP1 SLOAD PUSH2 0xAA8 SWAP1 PUSH2 0x239C JUMP JUMPDEST DUP1 PUSH1 0x1F ADD PUSH1 0x20 DUP1 SWAP2 DIV MUL PUSH1 0x20 ADD PUSH1 0x40 MLOAD SWAP1 DUP2 ADD PUSH1 0x40 MSTORE DUP1 SWAP3 SWAP2 SWAP1 DUP2 DUP2 MSTORE PUSH1 0x20 ADD DUP3 DUP1 SLOAD PUSH2 0xAD4 SWAP1 PUSH2 0x239C JUMP JUMPDEST DUP1 ISZERO PUSH2 0xB21 JUMPI DUP1 PUSH1 0x1F LT PUSH2 0xAF6 JUMPI PUSH2 0x100 DUP1 DUP4 SLOAD DIV MUL DUP4 MSTORE SWAP2 PUSH1 0x20 ADD SWAP2 PUSH2 0xB21 JUMP JUMPDEST DUP3 ADD SWAP2 SWAP1 PUSH1 0x0 MSTORE PUSH1 0x20 PUSH1 0x0 KECCAK256 SWAP1 JUMPDEST DUP2 SLOAD DUP2 MSTORE SWAP1 PUSH1 0x1 ADD SWAP1 PUSH1 0x20 ADD DUP1 DUP4 GT PUSH2 0xB04 JUMPI DUP3 SWAP1 SUB PUSH1 0x1F AND DUP3 ADD SWAP2 JUMPDEST POP POP POP POP POP SWAP1 POP PUSH1 0x0 PUSH2 0xB32 PUSH2 0x150C JUMP JUMPDEST SWAP1 POP PUSH1 0x0 DUP2 MLOAD SUB PUSH2 0xB47 JUMPI DUP2 SWAP3 POP POP POP PUSH2 0xB8A JUMP JUMPDEST PUSH1 0x0 DUP3 MLOAD GT ISZERO PUSH2 0xB7C JUMPI DUP1 DUP3 PUSH1 0x40 MLOAD PUSH1 0x20 ADD PUSH2 0xB64 SWAP3 SWAP2 SWAP1 PUSH2 0x2729 JUMP JUMPDEST PUSH1 0x40 MLOAD PUSH1 0x20 DUP2 DUP4 SUB SUB DUP2 MSTORE SWAP1 PUSH1 0x40 MSTORE SWAP3 POP POP POP PUSH2 0xB8A JUMP JUMPDEST PUSH2 0xB85 DUP5 PUSH2 0x1523 JUMP JUMPDEST SWAP3 POP POP POP JUMPDEST SWAP2 SWAP1 POP JUMP JUMPDEST PUSH1 0x0 PUSH1 0x5 PUSH1 0x0 DUP5 PUSH20 0xFFFFFFFFFFFFFFFFFFFFFFFFFFFFFFFFFFFFFFFF AND PUSH20 0xFFFFFFFFFFFFFFFFFFFFFFFFFFFFFFFFFFFFFFFF AND DUP2 MSTORE PUSH1 0x20 ADD SWAP1 DUP2 MSTORE PUSH1 0x20 ADD PUSH1 0x0 KECCAK256 PUSH1 0x0 DUP4 PUSH20 0xFFFFFFFFFFFFFFFFFFFFFFFFFFFFFFFFFFFFFFFF AND PUSH20 0xFFFFFFFFFFFFFFFFFFFFFFFFFFFFFFFFFFFFFFFF AND DUP2 MSTORE PUSH1 0x20 ADD SWAP1 DUP2 MSTORE PUSH1 0x20 ADD PUSH1 0x0 KECCAK256 PUSH1 0x0 SWAP1 SLOAD SWAP1 PUSH2 0x100 EXP SWAP1 DIV PUSH1 0xFF AND SWAP1 POP SWAP3 SWAP2 POP POP JUMP JUMPDEST PUSH2 0xC2B PUSH2 0x11F0 JUMP JUMPDEST PUSH2 0xC34 DUP2 PUSH2 0x158B JUMP JUMPDEST POP JUMP JUMPDEST PUSH1 0x0 PUSH32 0x80AC58CD00000000000000000000000000000000000000000000000000000000 PUSH28 0xFFFFFFFFFFFFFFFFFFFFFFFFFFFFFFFFFFFFFFFFFFFFFFFFFFFFFFFF NOT AND DUP3 PUSH28 0xFFFFFFFFFFFFFFFFFFFFFFFFFFFFFFFFFFFFFFFFFFFFFFFFFFFFFFFF NOT AND EQ DUP1 PUSH2 0xD02 JUMPI POP PUSH32 0x5B5E139F00000000000000000000000000000000000000000000000000000000 PUSH28 0xFFFFFFFFFFFFFFFFFFFFFFFFFFFFFFFFFFFFFFFFFFFFFFFFFFFFFFFF NOT AND DUP3 PUSH28 0xFFFFFFFFFFFFFFFFFFFFFFFFFFFFFFFFFFFFFFFFFFFFFFFFFFFFFFFF NOT AND EQ JUMPDEST DUP1 PUSH2 0xD12 JUMPI POP PUSH2 0xD11 DUP3 PUSH2 0x16B9 JUMP JUMPDEST JUMPDEST SWAP1 POP SWAP2 SWAP1 POP JUMP JUMPDEST PUSH2 0xD22 DUP2 PUSH2 0x1723 JUMP JUMPDEST PUSH2 0xD61 JUMPI PUSH1 0x40 MLOAD PUSH32 0x8C379A000000000000000000000000000000000000000000000000000000000 DUP2 MSTORE PUSH1 0x4 ADD PUSH2 0xD58 SWAP1 PUSH2 0x25CF JUMP JUMPDEST PUSH1 0x40 MLOAD DUP1 SWAP2 SUB SWAP1 REVERT JUMPDEST POP JUMP JUMPDEST PUSH1 0x0 CALLER SWAP1 POP SWAP1 JUMP JUMPDEST DUP2 PUSH1 0x4 PUSH1 0x0 DUP4 DUP2 MSTORE PUSH1 0x20 ADD SWAP1 DUP2 MSTORE PUSH1 0x20 ADD PUSH1 0x0 KECCAK256 PUSH1 0x0 PUSH2 0x100 EXP DUP2 SLOAD DUP2 PUSH20 0xFFFFFFFFFFFFFFFFFFFFFFFFFFFFFFFFFFFFFFFF MUL NOT AND SWAP1 DUP4 PUSH20 0xFFFFFFFFFFFFFFFFFFFFFFFFFFFFFFFFFFFFFFFF AND MUL OR SWAP1 SSTORE POP DUP1 DUP3 PUSH20 0xFFFFFFFFFFFFFFFFFFFFFFFFFFFFFFFFFFFFFFFF AND PUSH2 0xDDF DUP4 PUSH2 0x628 JUMP JUMPDEST PUSH20 0xFFFFFFFFFFFFFFFFFFFFFFFFFFFFFFFFFFFFFFFF AND PUSH32 0x8C5BE1E5EBEC7D5BD14F71427D1E84F3DD0314C0F7B2291E5B200AC8C7C3B925 PUSH1 0x40 MLOAD PUSH1 0x40 MLOAD DUP1 SWAP2 SUB SWAP1 LOG4 POP POP JUMP JUMPDEST PUSH1 0x0 DUP1 PUSH2 0xE31 DUP4 PUSH2 0x628 JUMP JUMPDEST SWAP1 POP DUP1 PUSH20 0xFFFFFFFFFFFFFFFFFFFFFFFFFFFFFFFFFFFFFFFF AND DUP5 PUSH20 0xFFFFFFFFFFFFFFFFFFFFFFFFFFFFFFFFFFFFFFFF AND EQ DUP1 PUSH2 0xE73 JUMPI POP PUSH2 0xE72 DUP2 DUP6 PUSH2 0xB8F JUMP JUMPDEST JUMPDEST DUP1 PUSH2 0xEB1 JUMPI POP DUP4 PUSH20 0xFFFFFFFFFFFFFFFFFFFFFFFFFFFFFFFFFFFFFFFF AND PUSH2 0xE99 DUP5 PUSH2 0x44B JUMP JUMPDEST PUSH20 0xFFFFFFFFFFFFFFFFFFFFFFFFFFFFFFFFFFFFFFFF AND EQ JUMPDEST SWAP2 POP POP SWAP3 SWAP2 POP POP JUMP JUMPDEST DUP3 PUSH20 0xFFFFFFFFFFFFFFFFFFFFFFFFFFFFFFFFFFFFFFFF AND PUSH2 0xEDA DUP3 PUSH2 0x628 JUMP JUMPDEST PUSH20 0xFFFFFFFFFFFFFFFFFFFFFFFFFFFFFFFFFFFFFFFF AND EQ PUSH2 0xF30 JUMPI PUSH1 0x40 MLOAD PUSH32 0x8C379A000000000000000000000000000000000000000000000000000000000 DUP2 MSTORE PUSH1 0x4 ADD PUSH2 0xF27 SWAP1 PUSH2 0x27BF JUMP JUMPDEST PUSH1 0x40 MLOAD DUP1 SWAP2 SUB SWAP1 REVERT JUMPDEST PUSH1 0x0 PUSH20 0xFFFFFFFFFFFFFFFFFFFFFFFFFFFFFFFFFFFFFFFF AND DUP3 PUSH20 0xFFFFFFFFFFFFFFFFFFFFFFFFFFFFFFFFFFFFFFFF AND SUB PUSH2 0xF9F JUMPI PUSH1 0x40 MLOAD PUSH32 0x8C379A000000000000000000000000000000000000000000000000000000000 DUP2 MSTORE PUSH1 0x4 ADD PUSH2 0xF96 SWAP1 PUSH2 0x2851 JUMP JUMPDEST PUSH1 0x40 MLOAD DUP1 SWAP2 SUB SWAP1 REVERT JUMPDEST PUSH2 0xFAC DUP4 DUP4 DUP4 PUSH1 0x1 PUSH2 0x1764 JUMP JUMPDEST DUP3 PUSH20 0xFFFFFFFFFFFFFFFFFFFFFFFFFFFFFFFFFFFFFFFF AND PUSH2 0xFCC DUP3 PUSH2 0x628 JUMP JUMPDEST PUSH20 0xFFFFFFFFFFFFFFFFFFFFFFFFFFFFFFFFFFFFFFFF AND EQ PUSH2 0x1022 JUMPI PUSH1 0x40 MLOAD PUSH32 0x8C379A000000000000000000000000000000000000000000000000000000000 DUP2 MSTORE PUSH1 0x4 ADD PUSH2 0x1019 SWAP1 PUSH2 0x27BF JUMP JUMPDEST PUSH1 0x40 MLOAD DUP1 SWAP2 SUB SWAP1 REVERT JUMPDEST PUSH1 0x4 PUSH1 0x0 DUP3 DUP2 MSTORE PUSH1 0x20 ADD SWAP1 DUP2 MSTORE PUSH1 0x20 ADD PUSH1 0x0 KECCAK256 PUSH1 0x0 PUSH2 0x100 EXP DUP2 SLOAD SWAP1 PUSH20 0xFFFFFFFFFFFFFFFFFFFFFFFFFFFFFFFFFFFFFFFF MUL NOT AND SWAP1 SSTORE PUSH1 0x1 PUSH1 0x3 PUSH1 0x0 DUP6 PUSH20 0xFFFFFFFFFFFFFFFFFFFFFFFFFFFFFFFFFFFFFFFF AND PUSH20 0xFFFFFFFFFFFFFFFFFFFFFFFFFFFFFFFFFFFFFFFF AND DUP2 MSTORE PUSH1 0x20 ADD SWAP1 DUP2 MSTORE PUSH1 0x20 ADD PUSH1 0x0 KECCAK256 PUSH1 0x0 DUP3 DUP3 SLOAD SUB SWAP3 POP POP DUP2 SWAP1 SSTORE POP PUSH1 0x1 PUSH1 0x3 PUSH1 0x0 DUP5 PUSH20 0xFFFFFFFFFFFFFFFFFFFFFFFFFFFFFFFFFFFFFFFF AND PUSH20 0xFFFFFFFFFFFFFFFFFFFFFFFFFFFFFFFFFFFFFFFF AND DUP2 MSTORE PUSH1 0x20 ADD SWAP1 DUP2 MSTORE PUSH1 0x20 ADD PUSH1 0x0 KECCAK256 PUSH1 0x0 DUP3 DUP3 SLOAD ADD SWAP3 POP POP DUP2 SWAP1 SSTORE POP DUP2 PUSH1 0x2 PUSH1 0x0 DUP4 DUP2 MSTORE PUSH1 0x20 ADD SWAP1 DUP2 MSTORE PUSH1 0x20 ADD PUSH1 0x0 KECCAK256 PUSH1 0x0 PUSH2 0x100 EXP DUP2 SLOAD DUP2 PUSH20 0xFFFFFFFFFFFFFFFFFFFFFFFFFFFFFFFFFFFFFFFF MUL NOT AND SWAP1 DUP4 PUSH20 0xFFFFFFFFFFFFFFFFFFFFFFFFFFFFFFFFFFFFFFFF AND MUL OR SWAP1 SSTORE POP DUP1 DUP3 PUSH20 0xFFFFFFFFFFFFFFFFFFFFFFFFFFFFFFFFFFFFFFFF AND DUP5 PUSH20 0xFFFFFFFFFFFFFFFFFFFFFFFFFFFFFFFFFFFFFFFF AND PUSH32 0xDDF252AD1BE2C89B69C2B068FC378DAA952BA7F163C4A11628F55A4DF523B3EF PUSH1 0x40 MLOAD PUSH1 0x40 MLOAD DUP1 SWAP2 SUB SWAP1 LOG4 PUSH2 0x11AE DUP4 DUP4 DUP4 PUSH1 0x1 PUSH2 0x176A JUMP JUMPDEST POP POP POP JUMP JUMPDEST PUSH1 0x0 PUSH1 0x2 PUSH1 0x0 DUP4 DUP2 MSTORE PUSH1 0x20 ADD SWAP1 DUP2 MSTORE PUSH1 0x20 ADD PUSH1 0x0 KECCAK256 PUSH1 0x0 SWAP1 SLOAD SWAP1 PUSH2 0x100 EXP SWAP1 DIV PUSH20 0xFFFFFFFFFFFFFFFFFFFFFFFFFFFFFFFFFFFFFFFF AND SWAP1 POP SWAP2 SWAP1 POP JUMP JUMPDEST PUSH1 0x7 PUSH1 0x0 SWAP1 SLOAD SWAP1 PUSH2 0x100 EXP SWAP1 DIV PUSH20 0xFFFFFFFFFFFFFFFFFFFFFFFFFFFFFFFFFFFFFFFF AND PUSH20 0xFFFFFFFFFFFFFFFFFFFFFFFFFFFFFFFFFFFFFFFF AND CALLER PUSH20 0xFFFFFFFFFFFFFFFFFFFFFFFFFFFFFFFFFFFFFFFF AND EQ PUSH2 0x1280 JUMPI PUSH1 0x40 MLOAD PUSH32 0x8C379A000000000000000000000000000000000000000000000000000000000 DUP2 MSTORE PUSH1 0x4 ADD PUSH2 0x1277 SWAP1 PUSH2 0x28BD JUMP JUMPDEST PUSH1 0x40 MLOAD DUP1 SWAP2 SUB SWAP1 REVERT JUMPDEST JUMP JUMPDEST PUSH2 0x129C DUP3 DUP3 PUSH1 0x40 MLOAD DUP1 PUSH1 0x20 ADD PUSH1 0x40 MSTORE DUP1 PUSH1 0x0 DUP2 MSTORE POP PUSH2 0x1770 JUMP JUMPDEST POP POP JUMP JUMPDEST PUSH2 0x12A9 DUP3 PUSH2 0x1723 JUMP JUMPDEST PUSH2 0x12E8 JUMPI PUSH1 0x40 MLOAD PUSH32 0x8C379A000000000000000000000000000000000000000000000000000000000 DUP2 MSTORE PUSH1 0x4 ADD PUSH2 0x12DF SWAP1 PUSH2 0x294F JUMP JUMPDEST PUSH1 0x40 MLOAD DUP1 SWAP2 SUB SWAP1 REVERT JUMPDEST DUP1 PUSH1 0x6 PUSH1 0x0 DUP5 DUP2 MSTORE PUSH1 0x20 ADD SWAP1 DUP2 MSTORE PUSH1 0x20 ADD PUSH1 0x0 KECCAK256 SWAP1 DUP2 PUSH2 0x1308 SWAP2 SWAP1 PUSH2 0x2B1B JUMP JUMPDEST POP PUSH32 0xF8E1A15ABA9398E019F0B49DF1A4FDE98EE17AE345CB5F6B5E2C27F5033E8CE7 DUP3 PUSH1 0x40 MLOAD PUSH2 0x1338 SWAP2 SWAP1 PUSH2 0x20EE JUMP JUMPDEST PUSH1 0x40 MLOAD DUP1 SWAP2 SUB SWAP1 LOG1 POP POP JUMP JUMPDEST DUP2 PUSH20 0xFFFFFFFFFFFFFFFFFFFFFFFFFFFFFFFFFFFFFFFF AND DUP4 PUSH20 0xFFFFFFFFFFFFFFFFFFFFFFFFFFFFFFFFFFFFFFFF AND SUB PUSH2 0x13B2 JUMPI PUSH1 0x40 MLOAD PUSH32 0x8C379A000000000000000000000000000000000000000000000000000000000 DUP2 MSTORE PUSH1 0x4 ADD PUSH2 0x13A9 SWAP1 PUSH2 0x2C39 JUMP JUMPDEST PUSH1 0x40 MLOAD DUP1 SWAP2 SUB SWAP1 REVERT JUMPDEST DUP1 PUSH1 0x5 PUSH1 0x0 DUP6 PUSH20 0xFFFFFFFFFFFFFFFFFFFFFFFFFFFFFFFFFFFFFFFF AND PUSH20 0xFFFFFFFFFFFFFFFFFFFFFFFFFFFFFFFFFFFFFFFF AND DUP2 MSTORE PUSH1 0x20 ADD SWAP1 DUP2 MSTORE PUSH1 0x20 ADD PUSH1 0x0 KECCAK256 PUSH1 0x0 DUP5 PUSH20 0xFFFFFFFFFFFFFFFFFFFFFFFFFFFFFFFFFFFFFFFF AND PUSH20 0xFFFFFFFFFFFFFFFFFFFFFFFFFFFFFFFFFFFFFFFF AND DUP2 MSTORE PUSH1 0x20 ADD SWAP1 DUP2 MSTORE PUSH1 0x20 ADD PUSH1 0x0 KECCAK256 PUSH1 0x0 PUSH2 0x100 EXP DUP2 SLOAD DUP2 PUSH1 0xFF MUL NOT AND SWAP1 DUP4 ISZERO ISZERO MUL OR SWAP1 SSTORE POP DUP2 PUSH20 0xFFFFFFFFFFFFFFFFFFFFFFFFFFFFFFFFFFFFFFFF AND DUP4 PUSH20 0xFFFFFFFFFFFFFFFFFFFFFFFFFFFFFFFFFFFFFFFF AND PUSH32 0x17307EAB39AB6107E8899845AD3D59BD9653F200F220920489CA2B5937696C31 DUP4 PUSH1 0x40 MLOAD PUSH2 0x14A3 SWAP2 SWAP1 PUSH2 0x1E67 JUMP JUMPDEST PUSH1 0x40 MLOAD DUP1 SWAP2 SUB SWAP1 LOG3 POP POP POP JUMP JUMPDEST PUSH2 0x14BB DUP5 DUP5 DUP5 PUSH2 0xEBA JUMP JUMPDEST PUSH2 0x14C7 DUP5 DUP5 DUP5 DUP5 PUSH2 0x17CB JUMP JUMPDEST PUSH2 0x1506 JUMPI PUSH1 0x40 MLOAD PUSH32 0x8C379A000000000000000000000000000000000000000000000000000000000 DUP2 MSTORE PUSH1 0x4 ADD PUSH2 0x14FD SWAP1 PUSH2 0x2CCB JUMP JUMPDEST PUSH1 0x40 MLOAD DUP1 SWAP2 SUB SWAP1 REVERT JUMPDEST POP POP POP POP JUMP JUMPDEST PUSH1 0x60 PUSH1 0x40 MLOAD DUP1 PUSH1 0x20 ADD PUSH1 0x40 MSTORE DUP1 PUSH1 0x0 DUP2 MSTORE POP SWAP1 POP SWAP1 JUMP JUMPDEST PUSH1 0x60 PUSH2 0x152E DUP3 PUSH2 0xD19 JUMP JUMPDEST PUSH1 0x0 PUSH2 0x1538 PUSH2 0x150C JUMP JUMPDEST SWAP1 POP PUSH1 0x0 DUP2 MLOAD GT PUSH2 0x1558 JUMPI PUSH1 0x40 MLOAD DUP1 PUSH1 0x20 ADD PUSH1 0x40 MSTORE DUP1 PUSH1 0x0 DUP2 MSTORE POP PUSH2 0x1583 JUMP JUMPDEST DUP1 PUSH2 0x1562 DUP5 PUSH2 0x1952 JUMP JUMPDEST PUSH1 0x40 MLOAD PUSH1 0x20 ADD PUSH2 0x1573 SWAP3 SWAP2 SWAP1 PUSH2 0x2729 JUMP JUMPDEST PUSH1 0x40 MLOAD PUSH1 0x20 DUP2 DUP4 SUB SUB DUP2 MSTORE SWAP1 PUSH1 0x40 MSTORE JUMPDEST SWAP2 POP POP SWAP2 SWAP1 POP JUMP JUMPDEST CALLER PUSH20 0xFFFFFFFFFFFFFFFFFFFFFFFFFFFFFFFFFFFFFFFF AND DUP2 PUSH20 0xFFFFFFFFFFFFFFFFFFFFFFFFFFFFFFFFFFFFFFFF AND SUB PUSH2 0x15F9 JUMPI PUSH1 0x40 MLOAD PUSH32 0x8C379A000000000000000000000000000000000000000000000000000000000 DUP2 MSTORE PUSH1 0x4 ADD PUSH2 0x15F0 SWAP1 PUSH2 0x2D37 JUMP JUMPDEST PUSH1 0x40 MLOAD DUP1 SWAP2 SUB SWAP1 REVERT JUMPDEST DUP1 PUSH1 0x8 PUSH1 0x0 PUSH2 0x100 EXP DUP2 SLOAD DUP2 PUSH20 0xFFFFFFFFFFFFFFFFFFFFFFFFFFFFFFFFFFFFFFFF MUL NOT AND SWAP1 DUP4 PUSH20 0xFFFFFFFFFFFFFFFFFFFFFFFFFFFFFFFFFFFFFFFF AND MUL OR SWAP1 SSTORE POP DUP1 PUSH20 0xFFFFFFFFFFFFFFFFFFFFFFFFFFFFFFFFFFFFFFFF AND PUSH1 0x7 PUSH1 0x0 SWAP1 SLOAD SWAP1 PUSH2 0x100 EXP SWAP1 DIV PUSH20 0xFFFFFFFFFFFFFFFFFFFFFFFFFFFFFFFFFFFFFFFF AND PUSH20 0xFFFFFFFFFFFFFFFFFFFFFFFFFFFFFFFFFFFFFFFF AND PUSH32 0xED8889F560326EB138920D842192F0EB3DD22B4F139C87A2C57538E05BAE1278 PUSH1 0x40 MLOAD PUSH1 0x40 MLOAD DUP1 SWAP2 SUB SWAP1 LOG3 POP JUMP JUMPDEST PUSH1 0x0 PUSH32 0x1FFC9A700000000000000000000000000000000000000000000000000000000 PUSH28 0xFFFFFFFFFFFFFFFFFFFFFFFFFFFFFFFFFFFFFFFFFFFFFFFFFFFFFFFF NOT AND DUP3 PUSH28 0xFFFFFFFFFFFFFFFFFFFFFFFFFFFFFFFFFFFFFFFFFFFFFFFFFFFFFFFF NOT AND EQ SWAP1 POP SWAP2 SWAP1 POP JUMP JUMPDEST PUSH1 0x0 DUP1 PUSH20 0xFFFFFFFFFFFFFFFFFFFFFFFFFFFFFFFFFFFFFFFF AND PUSH2 0x1745 DUP4 PUSH2 0x11B3 JUMP JUMPDEST PUSH20 0xFFFFFFFFFFFFFFFFFFFFFFFFFFFFFFFFFFFFFFFF AND EQ ISZERO SWAP1 POP SWAP2 SWAP1 POP JUMP JUMPDEST POP POP POP POP JUMP JUMPDEST POP POP POP POP JUMP JUMPDEST PUSH2 0x177A DUP4 DUP4 PUSH2 0x1A20 JUMP JUMPDEST PUSH2 0x1787 PUSH1 0x0 DUP5 DUP5 DUP5 PUSH2 0x17CB JUMP JUMPDEST PUSH2 0x17C6 JUMPI PUSH1 0x40 MLOAD PUSH32 0x8C379A000000000000000000000000000000000000000000000000000000000 DUP2 MSTORE PUSH1 0x4 ADD PUSH2 0x17BD SWAP1 PUSH2 0x2CCB JUMP JUMPDEST PUSH1 0x40 MLOAD DUP1 SWAP2 SUB SWAP1 REVERT JUMPDEST POP POP POP JUMP JUMPDEST PUSH1 0x0 PUSH2 0x17EC DUP5 PUSH20 0xFFFFFFFFFFFFFFFFFFFFFFFFFFFFFFFFFFFFFFFF AND PUSH2 0x1C3D JUMP JUMPDEST ISZERO PUSH2 0x1945 JUMPI DUP4 PUSH20 0xFFFFFFFFFFFFFFFFFFFFFFFFFFFFFFFFFFFFFFFF AND PUSH4 0x150B7A02 PUSH2 0x1815 PUSH2 0xD64 JUMP JUMPDEST DUP8 DUP7 DUP7 PUSH1 0x40 MLOAD DUP6 PUSH4 0xFFFFFFFF AND PUSH1 0xE0 SHL DUP2 MSTORE PUSH1 0x4 ADD PUSH2 0x1837 SWAP5 SWAP4 SWAP3 SWAP2 SWAP1 PUSH2 0x2DAC JUMP JUMPDEST PUSH1 0x20 PUSH1 0x40 MLOAD DUP1 DUP4 SUB DUP2 PUSH1 0x0 DUP8 GAS CALL SWAP3 POP POP POP DUP1 ISZERO PUSH2 0x1873 JUMPI POP PUSH1 0x40 MLOAD RETURNDATASIZE PUSH1 0x1F NOT PUSH1 0x1F DUP3 ADD AND DUP3 ADD DUP1 PUSH1 0x40 MSTORE POP DUP2 ADD SWAP1 PUSH2 0x1870 SWAP2 SWAP1 PUSH2 0x2E0D JUMP JUMPDEST PUSH1 0x1 JUMPDEST PUSH2 0x18F5 JUMPI RETURNDATASIZE DUP1 PUSH1 0x0 DUP2 EQ PUSH2 0x18A3 JUMPI PUSH1 0x40 MLOAD SWAP2 POP PUSH1 0x1F NOT PUSH1 0x3F RETURNDATASIZE ADD AND DUP3 ADD PUSH1 0x40 MSTORE RETURNDATASIZE DUP3 MSTORE RETURNDATASIZE PUSH1 0x0 PUSH1 0x20 DUP5 ADD RETURNDATACOPY PUSH2 0x18A8 JUMP JUMPDEST PUSH1 0x60 SWAP2 POP JUMPDEST POP PUSH1 0x0 DUP2 MLOAD SUB PUSH2 0x18ED JUMPI PUSH1 0x40 MLOAD PUSH32 0x8C379A000000000000000000000000000000000000000000000000000000000 DUP2 MSTORE PUSH1 0x4 ADD PUSH2 0x18E4 SWAP1 PUSH2 0x2CCB JUMP JUMPDEST PUSH1 0x40 MLOAD DUP1 SWAP2 SUB SWAP1 REVERT JUMPDEST DUP1 MLOAD DUP2 PUSH1 0x20 ADD REVERT JUMPDEST PUSH4 0x150B7A02 PUSH1 0xE0 SHL PUSH28 0xFFFFFFFFFFFFFFFFFFFFFFFFFFFFFFFFFFFFFFFFFFFFFFFFFFFFFFFF NOT AND DUP2 PUSH28 0xFFFFFFFFFFFFFFFFFFFFFFFFFFFFFFFFFFFFFFFFFFFFFFFFFFFFFFFF NOT AND EQ SWAP2 POP POP PUSH2 0x194A JUMP JUMPDEST PUSH1 0x1 SWAP1 POP JUMPDEST SWAP5 SWAP4 POP POP POP POP JUMP JUMPDEST PUSH1 0x60 PUSH1 0x0 PUSH1 0x1 PUSH2 0x1961 DUP5 PUSH2 0x1C60 JUMP JUMPDEST ADD SWAP1 POP PUSH1 0x0 DUP2 PUSH8 0xFFFFFFFFFFFFFFFF DUP2 GT ISZERO PUSH2 0x1980 JUMPI PUSH2 0x197F PUSH2 0x217F JUMP JUMPDEST JUMPDEST PUSH1 0x40 MLOAD SWAP1 DUP1 DUP3 MSTORE DUP1 PUSH1 0x1F ADD PUSH1 0x1F NOT AND PUSH1 0x20 ADD DUP3 ADD PUSH1 0x40 MSTORE DUP1 ISZERO PUSH2 0x19B2 JUMPI DUP2 PUSH1 0x20 ADD PUSH1 0x1 DUP3 MUL DUP1 CALLDATASIZE DUP4 CALLDATACOPY DUP1 DUP3 ADD SWAP2 POP POP SWAP1 POP JUMPDEST POP SWAP1 POP PUSH1 0x0 DUP3 PUSH1 0x20 ADD DUP3 ADD SWAP1 POP JUMPDEST PUSH1 0x1 ISZERO PUSH2 0x1A15 JUMPI DUP1 DUP1 PUSH1 0x1 SWAP1 SUB SWAP2 POP POP PUSH32 0x3031323334353637383961626364656600000000000000000000000000000000 PUSH1 0xA DUP7 MOD BYTE DUP2 MSTORE8 PUSH1 0xA DUP6 DUP2 PUSH2 0x1A09 JUMPI PUSH2 0x1A08 PUSH2 0x2E3A JUMP JUMPDEST JUMPDEST DIV SWAP5 POP PUSH1 0x0 DUP6 SUB PUSH2 0x19C0 JUMPI JUMPDEST DUP2 SWAP4 POP POP POP POP SWAP2 SWAP1 POP JUMP JUMPDEST PUSH1 0x0 PUSH20 0xFFFFFFFFFFFFFFFFFFFFFFFFFFFFFFFFFFFFFFFF AND DUP3 PUSH20 0xFFFFFFFFFFFFFFFFFFFFFFFFFFFFFFFFFFFFFFFF AND SUB PUSH2 0x1A8F JUMPI PUSH1 0x40 MLOAD PUSH32 0x8C379A000000000000000000000000000000000000000000000000000000000 DUP2 MSTORE PUSH1 0x4 ADD PUSH2 0x1A86 SWAP1 PUSH2 0x2EB5 JUMP JUMPDEST PUSH1 0x40 MLOAD DUP1 SWAP2 SUB SWAP1 REVERT JUMPDEST PUSH2 0x1A98 DUP2 PUSH2 0x1723 JUMP JUMPDEST ISZERO PUSH2 0x1AD8 JUMPI PUSH1 0x40 MLOAD PUSH32 0x8C379A000000000000000000000000000000000000000000000000000000000 DUP2 MSTORE PUSH1 0x4 ADD PUSH2 0x1ACF SWAP1 PUSH2 0x2F21 JUMP JUMPDEST PUSH1 0x40 MLOAD DUP1 SWAP2 SUB SWAP1 REVERT JUMPDEST PUSH2 0x1AE6 PUSH1 0x0 DUP4 DUP4 PUSH1 0x1 PUSH2 0x1764 JUMP JUMPDEST PUSH2 0x1AEF DUP2 PUSH2 0x1723 JUMP JUMPDEST ISZERO PUSH2 0x1B2F JUMPI PUSH1 0x40 MLOAD PUSH32 0x8C379A000000000000000000000000000000000000000000000000000000000 DUP2 MSTORE PUSH1 0x4 ADD PUSH2 0x1B26 SWAP1 PUSH2 0x2F21 JUMP JUMPDEST PUSH1 0x40 MLOAD DUP1 SWAP2 SUB SWAP1 REVERT JUMPDEST PUSH1 0x1 PUSH1 0x3 PUSH1 0x0 DUP5 PUSH20 0xFFFFFFFFFFFFFFFFFFFFFFFFFFFFFFFFFFFFFFFF AND PUSH20 0xFFFFFFFFFFFFFFFFFFFFFFFFFFFFFFFFFFFFFFFF AND DUP2 MSTORE PUSH1 0x20 ADD SWAP1 DUP2 MSTORE PUSH1 0x20 ADD PUSH1 0x0 KECCAK256 PUSH1 0x0 DUP3 DUP3 SLOAD ADD SWAP3 POP POP DUP2 SWAP1 SSTORE POP DUP2 PUSH1 0x2 PUSH1 0x0 DUP4 DUP2 MSTORE PUSH1 0x20 ADD SWAP1 DUP2 MSTORE PUSH1 0x20 ADD PUSH1 0x0 KECCAK256 PUSH1 0x0 PUSH2 0x100 EXP DUP2 SLOAD DUP2 PUSH20 0xFFFFFFFFFFFFFFFFFFFFFFFFFFFFFFFFFFFFFFFF MUL NOT AND SWAP1 DUP4 PUSH20 0xFFFFFFFFFFFFFFFFFFFFFFFFFFFFFFFFFFFFFFFF AND MUL OR SWAP1 SSTORE POP DUP1 DUP3 PUSH20 0xFFFFFFFFFFFFFFFFFFFFFFFFFFFFFFFFFFFFFFFF AND PUSH1 0x0 PUSH20 0xFFFFFFFFFFFFFFFFFFFFFFFFFFFFFFFFFFFFFFFF AND PUSH32 0xDDF252AD1BE2C89B69C2B068FC378DAA952BA7F163C4A11628F55A4DF523B3EF PUSH1 0x40 MLOAD PUSH1 0x40 MLOAD DUP1 SWAP2 SUB SWAP1 LOG4 PUSH2 0x1C39 PUSH1 0x0 DUP4 DUP4 PUSH1 0x1 PUSH2 0x176A JUMP JUMPDEST POP POP JUMP JUMPDEST PUSH1 0x0 DUP1 DUP3 PUSH20 0xFFFFFFFFFFFFFFFFFFFFFFFFFFFFFFFFFFFFFFFF AND EXTCODESIZE GT SWAP1 POP SWAP2 SWAP1 POP JUMP JUMPDEST PUSH1 0x0 DUP1 PUSH1 0x0 SWAP1 POP PUSH27 0x184F03E93FF9F4DAA797ED6E38ED64BF6A1F010000000000000000 DUP4 LT PUSH2 0x1CBE JUMPI PUSH27 0x184F03E93FF9F4DAA797ED6E38ED64BF6A1F010000000000000000 DUP4 DUP2 PUSH2 0x1CB4 JUMPI PUSH2 0x1CB3 PUSH2 0x2E3A JUMP JUMPDEST JUMPDEST DIV SWAP3 POP PUSH1 0x40 DUP2 ADD SWAP1 POP JUMPDEST PUSH14 0x4EE2D6D415B85ACEF8100000000 DUP4 LT PUSH2 0x1CFB JUMPI PUSH14 0x4EE2D6D415B85ACEF8100000000 DUP4 DUP2 PUSH2 0x1CF1 JUMPI PUSH2 0x1CF0 PUSH2 0x2E3A JUMP JUMPDEST JUMPDEST DIV SWAP3 POP PUSH1 0x20 DUP2 ADD SWAP1 POP JUMPDEST PUSH7 0x2386F26FC10000 DUP4 LT PUSH2 0x1D2A JUMPI PUSH7 0x2386F26FC10000 DUP4 DUP2 PUSH2 0x1D20 JUMPI PUSH2 0x1D1F PUSH2 0x2E3A JUMP JUMPDEST JUMPDEST DIV SWAP3 POP PUSH1 0x10 DUP2 ADD SWAP1 POP JUMPDEST PUSH4 0x5F5E100 DUP4 LT PUSH2 0x1D53 JUMPI PUSH4 0x5F5E100 DUP4 DUP2 PUSH2 0x1D49 JUMPI PUSH2 0x1D48 PUSH2 0x2E3A JUMP JUMPDEST JUMPDEST DIV SWAP3 POP PUSH1 0x8 DUP2 ADD SWAP1 POP JUMPDEST PUSH2 0x2710 DUP4 LT PUSH2 0x1D78 JUMPI PUSH2 0x2710 DUP4 DUP2 PUSH2 0x1D6E JUMPI PUSH2 0x1D6D PUSH2 0x2E3A JUMP JUMPDEST JUMPDEST DIV SWAP3 POP PUSH1 0x4 DUP2 ADD SWAP1 POP JUMPDEST PUSH1 0x64 DUP4 LT PUSH2 0x1D9B JUMPI PUSH1 0x64 DUP4 DUP2 PUSH2 0x1D91 JUMPI PUSH2 0x1D90 PUSH2 0x2E3A JUMP JUMPDEST JUMPDEST DIV SWAP3 POP PUSH1 0x2 DUP2 ADD SWAP1 POP JUMPDEST PUSH1 0xA DUP4 LT PUSH2 0x1DAA JUMPI PUSH1 0x1 DUP2 ADD SWAP1 POP JUMPDEST DUP1 SWAP2 POP POP SWAP2 SWAP1 POP JUMP JUMPDEST PUSH1 0x0 PUSH1 0x40 MLOAD SWAP1 POP SWAP1 JUMP JUMPDEST PUSH1 0x0 DUP1 REVERT JUMPDEST PUSH1 0x0 DUP1 REVERT JUMPDEST PUSH1 0x0 PUSH32 0xFFFFFFFF00000000000000000000000000000000000000000000000000000000 DUP3 AND SWAP1 POP SWAP2 SWAP1 POP JUMP JUMPDEST PUSH2 0x1DFC DUP2 PUSH2 0x1DC7 JUMP JUMPDEST DUP2 EQ PUSH2 0x1E07 JUMPI PUSH1 0x0 DUP1 REVERT JUMPDEST POP JUMP JUMPDEST PUSH1 0x0 DUP2 CALLDATALOAD SWAP1 POP PUSH2 0x1E19 DUP2 PUSH2 0x1DF3 JUMP JUMPDEST SWAP3 SWAP2 POP POP JUMP JUMPDEST PUSH1 0x0 PUSH1 0x20 DUP3 DUP5 SUB SLT ISZERO PUSH2 0x1E35 JUMPI PUSH2 0x1E34 PUSH2 0x1DBD JUMP JUMPDEST JUMPDEST PUSH1 0x0 PUSH2 0x1E43 DUP5 DUP3 DUP6 ADD PUSH2 0x1E0A JUMP JUMPDEST SWAP2 POP POP SWAP3 SWAP2 POP POP JUMP JUMPDEST PUSH1 0x0 DUP2 ISZERO ISZERO SWAP1 POP SWAP2 SWAP1 POP JUMP JUMPDEST PUSH2 0x1E61 DUP2 PUSH2 0x1E4C JUMP JUMPDEST DUP3 MSTORE POP POP JUMP JUMPDEST PUSH1 0x0 PUSH1 0x20 DUP3 ADD SWAP1 POP PUSH2 0x1E7C PUSH1 0x0 DUP4 ADD DUP5 PUSH2 0x1E58 JUMP JUMPDEST SWAP3 SWAP2 POP POP JUMP JUMPDEST PUSH1 0x0 DUP2 MLOAD SWAP1 POP SWAP2 SWAP1 POP JUMP JUMPDEST PUSH1 0x0 DUP3 DUP3 MSTORE PUSH1 0x20 DUP3 ADD SWAP1 POP SWAP3 SWAP2 POP POP JUMP JUMPDEST PUSH1 0x0 JUMPDEST DUP4 DUP2 LT ISZERO PUSH2 0x1EBC JUMPI DUP1 DUP3 ADD MLOAD DUP2 DUP5 ADD MSTORE PUSH1 0x20 DUP2 ADD SWAP1 POP PUSH2 0x1EA1 JUMP JUMPDEST PUSH1 0x0 DUP5 DUP5 ADD MSTORE POP POP POP POP JUMP JUMPDEST PUSH1 0x0 PUSH1 0x1F NOT PUSH1 0x1F DUP4 ADD AND SWAP1 POP SWAP2 SWAP1 POP JUMP JUMPDEST PUSH1 0x0 PUSH2 0x1EE4 DUP3 PUSH2 0x1E82 JUMP JUMPDEST PUSH2 0x1EEE DUP2 DUP6 PUSH2 0x1E8D JUMP JUMPDEST SWAP4 POP PUSH2 0x1EFE DUP2 DUP6 PUSH1 0x20 DUP7 ADD PUSH2 0x1E9E JUMP JUMPDEST PUSH2 0x1F07 DUP2 PUSH2 0x1EC8 JUMP JUMPDEST DUP5 ADD SWAP2 POP POP SWAP3 SWAP2 POP POP JUMP JUMPDEST PUSH1 0x0 PUSH1 0x20 DUP3 ADD SWAP1 POP DUP2 DUP2 SUB PUSH1 0x0 DUP4 ADD MSTORE PUSH2 0x1F2C DUP2 DUP5 PUSH2 0x1ED9 JUMP JUMPDEST SWAP1 POP SWAP3 SWAP2 POP POP JUMP JUMPDEST PUSH1 0x0 DUP2 SWAP1 POP SWAP2 SWAP1 POP JUMP JUMPDEST PUSH2 0x1F47 DUP2 PUSH2 0x1F34 JUMP JUMPDEST DUP2 EQ PUSH2 0x1F52 JUMPI PUSH1 0x0 DUP1 REVERT JUMPDEST POP JUMP JUMPDEST PUSH1 0x0 DUP2 CALLDATALOAD SWAP1 POP PUSH2 0x1F64 DUP2 PUSH2 0x1F3E JUMP JUMPDEST SWAP3 SWAP2 POP POP JUMP JUMPDEST PUSH1 0x0 PUSH1 0x20 DUP3 DUP5 SUB SLT ISZERO PUSH2 0x1F80 JUMPI PUSH2 0x1F7F PUSH2 0x1DBD JUMP JUMPDEST JUMPDEST PUSH1 0x0 PUSH2 0x1F8E DUP5 DUP3 DUP6 ADD PUSH2 0x1F55 JUMP JUMPDEST SWAP2 POP POP SWAP3 SWAP2 POP POP JUMP JUMPDEST PUSH1 0x0 PUSH20 0xFFFFFFFFFFFFFFFFFFFFFFFFFFFFFFFFFFFFFFFF DUP3 AND SWAP1 POP SWAP2 SWAP1 POP JUMP JUMPDEST PUSH1 0x0 PUSH2 0x1FC2 DUP3 PUSH2 0x1F97 JUMP JUMPDEST SWAP1 POP SWAP2 SWAP1 POP JUMP JUMPDEST PUSH2 0x1FD2 DUP2 PUSH2 0x1FB7 JUMP JUMPDEST DUP3 MSTORE POP POP JUMP JUMPDEST PUSH1 0x0 PUSH1 0x20 DUP3 ADD SWAP1 POP PUSH2 0x1FED PUSH1 0x0 DUP4 ADD DUP5 PUSH2 0x1FC9 JUMP JUMPDEST SWAP3 SWAP2 POP POP JUMP JUMPDEST PUSH2 0x1FFC DUP2 PUSH2 0x1FB7 JUMP JUMPDEST DUP2 EQ PUSH2 0x2007 JUMPI PUSH1 0x0 DUP1 REVERT JUMPDEST POP JUMP JUMPDEST PUSH1 0x0 DUP2 CALLDATALOAD SWAP1 POP PUSH2 0x2019 DUP2 PUSH2 0x1FF3 JUMP JUMPDEST SWAP3 SWAP2 POP POP JUMP JUMPDEST PUSH1 0x0 DUP1 PUSH1 0x40 DUP4 DUP6 SUB SLT ISZERO PUSH2 0x2036 JUMPI PUSH2 0x2035 PUSH2 0x1DBD JUMP JUMPDEST JUMPDEST PUSH1 0x0 PUSH2 0x2044 DUP6 DUP3 DUP7 ADD PUSH2 0x200A JUMP JUMPDEST SWAP3 POP POP PUSH1 0x20 PUSH2 0x2055 DUP6 DUP3 DUP7 ADD PUSH2 0x1F55 JUMP JUMPDEST SWAP2 POP POP SWAP3 POP SWAP3 SWAP1 POP JUMP JUMPDEST PUSH1 0x0 DUP1 PUSH1 0x0 PUSH1 0x60 DUP5 DUP7 SUB SLT ISZERO PUSH2 0x2078 JUMPI PUSH2 0x2077 PUSH2 0x1DBD JUMP JUMPDEST JUMPDEST PUSH1 0x0 PUSH2 0x2086 DUP7 DUP3 DUP8 ADD PUSH2 0x200A JUMP JUMPDEST SWAP4 POP POP PUSH1 0x20 PUSH2 0x2097 DUP7 DUP3 DUP8 ADD PUSH2 0x200A JUMP JUMPDEST SWAP3 POP POP PUSH1 0x40 PUSH2 0x20A8 DUP7 DUP3 DUP8 ADD PUSH2 0x1F55 JUMP JUMPDEST SWAP2 POP POP SWAP3 POP SWAP3 POP SWAP3 JUMP JUMPDEST PUSH1 0x0 PUSH1 0x20 DUP3 DUP5 SUB SLT ISZERO PUSH2 0x20C8 JUMPI PUSH2 0x20C7 PUSH2 0x1DBD JUMP JUMPDEST JUMPDEST PUSH1 0x0 PUSH2 0x20D6 DUP5 DUP3 DUP6 ADD PUSH2 0x200A JUMP JUMPDEST SWAP2 POP POP SWAP3 SWAP2 POP POP JUMP JUMPDEST PUSH2 0x20E8 DUP2 PUSH2 0x1F34 JUMP JUMPDEST DUP3 MSTORE POP POP JUMP JUMPDEST PUSH1 0x0 PUSH1 0x20 DUP3 ADD SWAP1 POP PUSH2 0x2103 PUSH1 0x0 DUP4 ADD DUP5 PUSH2 0x20DF JUMP JUMPDEST SWAP3 SWAP2 POP POP JUMP JUMPDEST PUSH2 0x2112 DUP2 PUSH2 0x1E4C JUMP JUMPDEST DUP2 EQ PUSH2 0x211D JUMPI PUSH1 0x0 DUP1 REVERT JUMPDEST POP JUMP JUMPDEST PUSH1 0x0 DUP2 CALLDATALOAD SWAP1 POP PUSH2 0x212F DUP2 PUSH2 0x2109 JUMP JUMPDEST SWAP3 SWAP2 POP POP JUMP JUMPDEST PUSH1 0x0 DUP1 PUSH1 0x40 DUP4 DUP6 SUB SLT ISZERO PUSH2 0x214C JUMPI PUSH2 0x214B PUSH2 0x1DBD JUMP JUMPDEST JUMPDEST PUSH1 0x0 PUSH2 0x215A DUP6 DUP3 DUP7 ADD PUSH2 0x200A JUMP JUMPDEST SWAP3 POP POP PUSH1 0x20 PUSH2 0x216B DUP6 DUP3 DUP7 ADD PUSH2 0x2120 JUMP JUMPDEST SWAP2 POP POP SWAP3 POP SWAP3 SWAP1 POP JUMP JUMPDEST PUSH1 0x0 DUP1 REVERT JUMPDEST PUSH1 0x0 DUP1 REVERT JUMPDEST PUSH32 0x4E487B7100000000000000000000000000000000000000000000000000000000 PUSH1 0x0 MSTORE PUSH1 0x41 PUSH1 0x4 MSTORE PUSH1 0x24 PUSH1 0x0 REVERT JUMPDEST PUSH2 0x21B7 DUP3 PUSH2 0x1EC8 JUMP JUMPDEST DUP2 ADD DUP2 DUP2 LT PUSH8 0xFFFFFFFFFFFFFFFF DUP3 GT OR ISZERO PUSH2 0x21D6 JUMPI PUSH2 0x21D5 PUSH2 0x217F JUMP JUMPDEST JUMPDEST DUP1 PUSH1 0x40 MSTORE POP POP POP JUMP JUMPDEST PUSH1 0x0 PUSH2 0x21E9 PUSH2 0x1DB3 JUMP JUMPDEST SWAP1 POP PUSH2 0x21F5 DUP3 DUP3 PUSH2 0x21AE JUMP JUMPDEST SWAP2 SWAP1 POP JUMP JUMPDEST PUSH1 0x0 PUSH8 0xFFFFFFFFFFFFFFFF DUP3 GT ISZERO PUSH2 0x2215 JUMPI PUSH2 0x2214 PUSH2 0x217F JUMP JUMPDEST JUMPDEST PUSH2 0x221E DUP3 PUSH2 0x1EC8 JUMP JUMPDEST SWAP1 POP PUSH1 0x20 DUP2 ADD SWAP1 POP SWAP2 SWAP1 POP JUMP JUMPDEST DUP3 DUP2 DUP4 CALLDATACOPY PUSH1 0x0 DUP4 DUP4 ADD MSTORE POP POP POP JUMP JUMPDEST PUSH1 0x0 PUSH2 0x224D PUSH2 0x2248 DUP5 PUSH2 0x21FA JUMP JUMPDEST PUSH2 0x21DF JUMP JUMPDEST SWAP1 POP DUP3 DUP2 MSTORE PUSH1 0x20 DUP2 ADD DUP5 DUP5 DUP5 ADD GT ISZERO PUSH2 0x2269 JUMPI PUSH2 0x2268 PUSH2 0x217A JUMP JUMPDEST JUMPDEST PUSH2 0x2274 DUP5 DUP3 DUP6 PUSH2 0x222B JUMP JUMPDEST POP SWAP4 SWAP3 POP POP POP JUMP JUMPDEST PUSH1 0x0 DUP3 PUSH1 0x1F DUP4 ADD SLT PUSH2 0x2291 JUMPI PUSH2 0x2290 PUSH2 0x2175 JUMP JUMPDEST JUMPDEST DUP2 CALLDATALOAD PUSH2 0x22A1 DUP5 DUP3 PUSH1 0x20 DUP7 ADD PUSH2 0x223A JUMP JUMPDEST SWAP2 POP POP SWAP3 SWAP2 POP POP JUMP JUMPDEST PUSH1 0x0 DUP1 PUSH1 0x0 DUP1 PUSH1 0x80 DUP6 DUP8 SUB SLT ISZERO PUSH2 0x22C4 JUMPI PUSH2 0x22C3 PUSH2 0x1DBD JUMP JUMPDEST JUMPDEST PUSH1 0x0 PUSH2 0x22D2 DUP8 DUP3 DUP9 ADD PUSH2 0x200A JUMP JUMPDEST SWAP5 POP POP PUSH1 0x20 PUSH2 0x22E3 DUP8 DUP3 DUP9 ADD PUSH2 0x200A JUMP JUMPDEST SWAP4 POP POP PUSH1 0x40 PUSH2 0x22F4 DUP8 DUP3 DUP9 ADD PUSH2 0x1F55 JUMP JUMPDEST SWAP3 POP POP PUSH1 0x60 DUP6 ADD CALLDATALOAD PUSH8 0xFFFFFFFFFFFFFFFF DUP2 GT ISZERO PUSH2 0x2315 JUMPI PUSH2 0x2314 PUSH2 0x1DC2 JUMP JUMPDEST JUMPDEST PUSH2 0x2321 DUP8 DUP3 DUP9 ADD PUSH2 0x227C JUMP JUMPDEST SWAP2 POP POP SWAP3 SWAP6 SWAP2 SWAP5 POP SWAP3 POP JUMP JUMPDEST PUSH1 0x0 DUP1 PUSH1 0x40 DUP4 DUP6 SUB SLT ISZERO PUSH2 0x2344 JUMPI PUSH2 0x2343 PUSH2 0x1DBD JUMP JUMPDEST JUMPDEST PUSH1 0x0 PUSH2 0x2352 DUP6 DUP3 DUP7 ADD PUSH2 0x200A JUMP JUMPDEST SWAP3 POP POP PUSH1 0x20 PUSH2 0x2363 DUP6 DUP3 DUP7 ADD PUSH2 0x200A JUMP JUMPDEST SWAP2 POP POP SWAP3 POP SWAP3 SWAP1 POP JUMP JUMPDEST PUSH32 0x4E487B7100000000000000000000000000000000000000000000000000000000 PUSH1 0x0 MSTORE PUSH1 0x22 PUSH1 0x4 MSTORE PUSH1 0x24 PUSH1 0x0 REVERT JUMPDEST PUSH1 0x0 PUSH1 0x2 DUP3 DIV SWAP1 POP PUSH1 0x1 DUP3 AND DUP1 PUSH2 0x23B4 JUMPI PUSH1 0x7F DUP3 AND SWAP2 POP JUMPDEST PUSH1 0x20 DUP3 LT DUP2 SUB PUSH2 0x23C7 JUMPI PUSH2 0x23C6 PUSH2 0x236D JUMP JUMPDEST JUMPDEST POP SWAP2 SWAP1 POP JUMP JUMPDEST PUSH32 0x4552433732313A20617070726F76616C20746F2063757272656E74206F776E65 PUSH1 0x0 DUP3 ADD MSTORE PUSH32 0x7200000000000000000000000000000000000000000000000000000000000000 PUSH1 0x20 DUP3 ADD MSTORE POP JUMP JUMPDEST PUSH1 0x0 PUSH2 0x2429 PUSH1 0x21 DUP4 PUSH2 0x1E8D JUMP JUMPDEST SWAP2 POP PUSH2 0x2434 DUP3 PUSH2 0x23CD JUMP JUMPDEST PUSH1 0x40 DUP3 ADD SWAP1 POP SWAP2 SWAP1 POP JUMP JUMPDEST PUSH1 0x0 PUSH1 0x20 DUP3 ADD SWAP1 POP DUP2 DUP2 SUB PUSH1 0x0 DUP4 ADD MSTORE PUSH2 0x2458 DUP2 PUSH2 0x241C JUMP JUMPDEST SWAP1 POP SWAP2 SWAP1 POP JUMP JUMPDEST PUSH32 0x4552433732313A20617070726F76652063616C6C6572206973206E6F7420746F PUSH1 0x0 DUP3 ADD MSTORE PUSH32 0x6B656E206F776E6572206F7220617070726F76656420666F7220616C6C000000 PUSH1 0x20 DUP3 ADD MSTORE POP JUMP JUMPDEST PUSH1 0x0 PUSH2 0x24BB PUSH1 0x3D DUP4 PUSH2 0x1E8D JUMP JUMPDEST SWAP2 POP PUSH2 0x24C6 DUP3 PUSH2 0x245F JUMP JUMPDEST PUSH1 0x40 DUP3 ADD SWAP1 POP SWAP2 SWAP1 POP JUMP JUMPDEST PUSH1 0x0 PUSH1 0x20 DUP3 ADD SWAP1 POP DUP2 DUP2 SUB PUSH1 0x0 DUP4 ADD MSTORE PUSH2 0x24EA DUP2 PUSH2 0x24AE JUMP JUMPDEST SWAP1 POP SWAP2 SWAP1 POP JUMP JUMPDEST PUSH32 0x4552433732313A2063616C6C6572206973206E6F7420746F6B656E206F776E65 PUSH1 0x0 DUP3 ADD MSTORE PUSH32 0x72206F7220617070726F76656400000000000000000000000000000000000000 PUSH1 0x20 DUP3 ADD MSTORE POP JUMP JUMPDEST PUSH1 0x0 PUSH2 0x254D PUSH1 0x2D DUP4 PUSH2 0x1E8D JUMP JUMPDEST SWAP2 POP PUSH2 0x2558 DUP3 PUSH2 0x24F1 JUMP JUMPDEST PUSH1 0x40 DUP3 ADD SWAP1 POP SWAP2 SWAP1 POP JUMP JUMPDEST PUSH1 0x0 PUSH1 0x20 DUP3 ADD SWAP1 POP DUP2 DUP2 SUB PUSH1 0x0 DUP4 ADD MSTORE PUSH2 0x257C DUP2 PUSH2 0x2540 JUMP JUMPDEST SWAP1 POP SWAP2 SWAP1 POP JUMP JUMPDEST PUSH32 0x4552433732313A20696E76616C696420746F6B656E2049440000000000000000 PUSH1 0x0 DUP3 ADD MSTORE POP JUMP JUMPDEST PUSH1 0x0 PUSH2 0x25B9 PUSH1 0x18 DUP4 PUSH2 0x1E8D JUMP JUMPDEST SWAP2 POP PUSH2 0x25C4 DUP3 PUSH2 0x2583 JUMP JUMPDEST PUSH1 0x20 DUP3 ADD SWAP1 POP SWAP2 SWAP1 POP JUMP JUMPDEST PUSH1 0x0 PUSH1 0x20 DUP3 ADD SWAP1 POP DUP2 DUP2 SUB PUSH1 0x0 DUP4 ADD MSTORE PUSH2 0x25E8 DUP2 PUSH2 0x25AC JUMP JUMPDEST SWAP1 POP SWAP2 SWAP1 POP JUMP JUMPDEST PUSH32 0x4552433732313A2061646472657373207A65726F206973206E6F742061207661 PUSH1 0x0 DUP3 ADD MSTORE PUSH32 0x6C6964206F776E65720000000000000000000000000000000000000000000000 PUSH1 0x20 DUP3 ADD MSTORE POP JUMP JUMPDEST PUSH1 0x0 PUSH2 0x264B PUSH1 0x29 DUP4 PUSH2 0x1E8D JUMP JUMPDEST SWAP2 POP PUSH2 0x2656 DUP3 PUSH2 0x25EF JUMP JUMPDEST PUSH1 0x40 DUP3 ADD SWAP1 POP SWAP2 SWAP1 POP JUMP JUMPDEST PUSH1 0x0 PUSH1 0x20 DUP3 ADD SWAP1 POP DUP2 DUP2 SUB PUSH1 0x0 DUP4 ADD MSTORE PUSH2 0x267A DUP2 PUSH2 0x263E JUMP JUMPDEST SWAP1 POP SWAP2 SWAP1 POP JUMP JUMPDEST PUSH32 0x4D7573742062652070726F706F736564206F776E657200000000000000000000 PUSH1 0x0 DUP3 ADD MSTORE POP JUMP JUMPDEST PUSH1 0x0 PUSH2 0x26B7 PUSH1 0x16 DUP4 PUSH2 0x1E8D JUMP JUMPDEST SWAP2 POP PUSH2 0x26C2 DUP3 PUSH2 0x2681 JUMP JUMPDEST PUSH1 0x20 DUP3 ADD SWAP1 POP SWAP2 SWAP1 POP JUMP JUMPDEST PUSH1 0x0 PUSH1 0x20 DUP3 ADD SWAP1 POP DUP2 DUP2 SUB PUSH1 0x0 DUP4 ADD MSTORE PUSH2 0x26E6 DUP2 PUSH2 0x26AA JUMP JUMPDEST SWAP1 POP SWAP2 SWAP1 POP JUMP JUMPDEST PUSH1 0x0 DUP2 SWAP1 POP SWAP3 SWAP2 POP POP JUMP JUMPDEST PUSH1 0x0 PUSH2 0x2703 DUP3 PUSH2 0x1E82 JUMP JUMPDEST PUSH2 0x270D DUP2 DUP6 PUSH2 0x26ED JUMP JUMPDEST SWAP4 POP PUSH2 0x271D DUP2 DUP6 PUSH1 0x20 DUP7 ADD PUSH2 0x1E9E JUMP JUMPDEST DUP1 DUP5 ADD SWAP2 POP POP SWAP3 SWAP2 POP POP JUMP JUMPDEST PUSH1 0x0 PUSH2 0x2735 DUP3 DUP6 PUSH2 0x26F8 JUMP JUMPDEST SWAP2 POP PUSH2 0x2741 DUP3 DUP5 PUSH2 0x26F8 JUMP JUMPDEST SWAP2 POP DUP2 SWAP1 POP SWAP4 SWAP3 POP POP POP JUMP JUMPDEST PUSH32 0x4552433732313A207472616E736665722066726F6D20696E636F727265637420 PUSH1 0x0 DUP3 ADD MSTORE PUSH32 0x6F776E6572000000000000000000000000000000000000000000000000000000 PUSH1 0x20 DUP3 ADD MSTORE POP JUMP JUMPDEST PUSH1 0x0 PUSH2 0x27A9 PUSH1 0x25 DUP4 PUSH2 0x1E8D JUMP JUMPDEST SWAP2 POP PUSH2 0x27B4 DUP3 PUSH2 0x274D JUMP JUMPDEST PUSH1 0x40 DUP3 ADD SWAP1 POP SWAP2 SWAP1 POP JUMP JUMPDEST PUSH1 0x0 PUSH1 0x20 DUP3 ADD SWAP1 POP DUP2 DUP2 SUB PUSH1 0x0 DUP4 ADD MSTORE PUSH2 0x27D8 DUP2 PUSH2 0x279C JUMP JUMPDEST SWAP1 POP SWAP2 SWAP1 POP JUMP JUMPDEST PUSH32 0x4552433732313A207472616E7366657220746F20746865207A65726F20616464 PUSH1 0x0 DUP3 ADD MSTORE PUSH32 0x7265737300000000000000000000000000000000000000000000000000000000 PUSH1 0x20 DUP3 ADD MSTORE POP JUMP JUMPDEST PUSH1 0x0 PUSH2 0x283B PUSH1 0x24 DUP4 PUSH2 0x1E8D JUMP JUMPDEST SWAP2 POP PUSH2 0x2846 DUP3 PUSH2 0x27DF JUMP JUMPDEST PUSH1 0x40 DUP3 ADD SWAP1 POP SWAP2 SWAP1 POP JUMP JUMPDEST PUSH1 0x0 PUSH1 0x20 DUP3 ADD SWAP1 POP DUP2 DUP2 SUB PUSH1 0x0 DUP4 ADD MSTORE PUSH2 0x286A DUP2 PUSH2 0x282E JUMP JUMPDEST SWAP1 POP SWAP2 SWAP1 POP JUMP JUMPDEST PUSH32 0x4F6E6C792063616C6C61626C65206279206F776E657200000000000000000000 PUSH1 0x0 DUP3 ADD MSTORE POP JUMP JUMPDEST PUSH1 0x0 PUSH2 0x28A7 PUSH1 0x16 DUP4 PUSH2 0x1E8D JUMP JUMPDEST SWAP2 POP PUSH2 0x28B2 DUP3 PUSH2 0x2871 JUMP JUMPDEST PUSH1 0x20 DUP3 ADD SWAP1 POP SWAP2 SWAP1 POP JUMP JUMPDEST PUSH1 0x0 PUSH1 0x20 DUP3 ADD SWAP1 POP DUP2 DUP2 SUB PUSH1 0x0 DUP4 ADD MSTORE PUSH2 0x28D6 DUP2 PUSH2 0x289A JUMP JUMPDEST SWAP1 POP SWAP2 SWAP1 POP JUMP JUMPDEST PUSH32 0x45524337323155524953746F726167653A2055524920736574206F66206E6F6E PUSH1 0x0 DUP3 ADD MSTORE PUSH32 0x6578697374656E7420746F6B656E000000000000000000000000000000000000 PUSH1 0x20 DUP3 ADD MSTORE POP JUMP JUMPDEST PUSH1 0x0 PUSH2 0x2939 PUSH1 0x2E DUP4 PUSH2 0x1E8D JUMP JUMPDEST SWAP2 POP PUSH2 0x2944 DUP3 PUSH2 0x28DD JUMP JUMPDEST PUSH1 0x40 DUP3 ADD SWAP1 POP SWAP2 SWAP1 POP JUMP JUMPDEST PUSH1 0x0 PUSH1 0x20 DUP3 ADD SWAP1 POP DUP2 DUP2 SUB PUSH1 0x0 DUP4 ADD MSTORE PUSH2 0x2968 DUP2 PUSH2 0x292C JUMP JUMPDEST SWAP1 POP SWAP2 SWAP1 POP JUMP JUMPDEST PUSH1 0x0 DUP2 SWAP1 POP DUP2 PUSH1 0x0 MSTORE PUSH1 0x20 PUSH1 0x0 KECCAK256 SWAP1 POP SWAP2 SWAP1 POP JUMP JUMPDEST PUSH1 0x0 PUSH1 0x20 PUSH1 0x1F DUP4 ADD DIV SWAP1 POP SWAP2 SWAP1 POP JUMP JUMPDEST PUSH1 0x0 DUP3 DUP3 SHL SWAP1 POP SWAP3 SWAP2 POP POP JUMP JUMPDEST PUSH1 0x0 PUSH1 0x8 DUP4 MUL PUSH2 0x29D1 PUSH32 0xFFFFFFFFFFFFFFFFFFFFFFFFFFFFFFFFFFFFFFFFFFFFFFFFFFFFFFFFFFFFFFFF DUP3 PUSH2 0x2994 JUMP JUMPDEST PUSH2 0x29DB DUP7 DUP4 PUSH2 0x2994 JUMP JUMPDEST SWAP6 POP DUP1 NOT DUP5 AND SWAP4 POP DUP1 DUP7 AND DUP5 OR SWAP3 POP POP POP SWAP4 SWAP3 POP POP POP JUMP JUMPDEST PUSH1 0x0 DUP2 SWAP1 POP SWAP2 SWAP1 POP JUMP JUMPDEST PUSH1 0x0 PUSH2 0x2A18 PUSH2 0x2A13 PUSH2 0x2A0E DUP5 PUSH2 0x1F34 JUMP JUMPDEST PUSH2 0x29F3 JUMP JUMPDEST PUSH2 0x1F34 JUMP JUMPDEST SWAP1 POP SWAP2 SWAP1 POP JUMP JUMPDEST PUSH1 0x0 DUP2 SWAP1 POP SWAP2 SWAP1 POP JUMP JUMPDEST PUSH2 0x2A32 DUP4 PUSH2 0x29FD JUMP JUMPDEST PUSH2 0x2A46 PUSH2 0x2A3E DUP3 PUSH2 0x2A1F JUMP JUMPDEST DUP5 DUP5 SLOAD PUSH2 0x29A1 JUMP JUMPDEST DUP3 SSTORE POP POP POP POP JUMP JUMPDEST PUSH1 0x0 SWAP1 JUMP JUMPDEST PUSH2 0x2A5B PUSH2 0x2A4E JUMP JUMPDEST PUSH2 0x2A66 DUP2 DUP5 DUP5 PUSH2 0x2A29 JUMP JUMPDEST POP POP POP JUMP JUMPDEST JUMPDEST DUP2 DUP2 LT ISZERO PUSH2 0x2A8A JUMPI PUSH2 0x2A7F PUSH1 0x0 DUP3 PUSH2 0x2A53 JUMP JUMPDEST PUSH1 0x1 DUP2 ADD SWAP1 POP PUSH2 0x2A6C JUMP JUMPDEST POP POP JUMP JUMPDEST PUSH1 0x1F DUP3 GT ISZERO PUSH2 0x2ACF JUMPI PUSH2 0x2AA0 DUP2 PUSH2 0x296F JUMP JUMPDEST PUSH2 0x2AA9 DUP5 PUSH2 0x2984 JUMP JUMPDEST DUP2 ADD PUSH1 0x20 DUP6 LT ISZERO PUSH2 0x2AB8 JUMPI DUP2 SWAP1 POP JUMPDEST PUSH2 0x2ACC PUSH2 0x2AC4 DUP6 PUSH2 0x2984 JUMP JUMPDEST DUP4 ADD DUP3 PUSH2 0x2A6B JUMP JUMPDEST POP POP JUMPDEST POP POP POP JUMP JUMPDEST PUSH1 0x0 DUP3 DUP3 SHR SWAP1 POP SWAP3 SWAP2 POP POP JUMP JUMPDEST PUSH1 0x0 PUSH2 0x2AF2 PUSH1 0x0 NOT DUP5 PUSH1 0x8 MUL PUSH2 0x2AD4 JUMP JUMPDEST NOT DUP1 DUP4 AND SWAP2 POP POP SWAP3 SWAP2 POP POP JUMP JUMPDEST PUSH1 0x0 PUSH2 0x2B0B DUP4 DUP4 PUSH2 0x2AE1 JUMP JUMPDEST SWAP2 POP DUP3 PUSH1 0x2 MUL DUP3 OR SWAP1 POP SWAP3 SWAP2 POP POP JUMP JUMPDEST PUSH2 0x2B24 DUP3 PUSH2 0x1E82 JUMP JUMPDEST PUSH8 0xFFFFFFFFFFFFFFFF DUP2 GT ISZERO PUSH2 0x2B3D JUMPI PUSH2 0x2B3C PUSH2 0x217F JUMP JUMPDEST JUMPDEST PUSH2 0x2B47 DUP3 SLOAD PUSH2 0x239C JUMP JUMPDEST PUSH2 0x2B52 DUP3 DUP3 DUP6 PUSH2 0x2A8E JUMP JUMPDEST PUSH1 0x0 PUSH1 0x20 SWAP1 POP PUSH1 0x1F DUP4 GT PUSH1 0x1 DUP2 EQ PUSH2 0x2B85 JUMPI PUSH1 0x0 DUP5 ISZERO PUSH2 0x2B73 JUMPI DUP3 DUP8 ADD MLOAD SWAP1 POP JUMPDEST PUSH2 0x2B7D DUP6 DUP3 PUSH2 0x2AFF JUMP JUMPDEST DUP7 SSTORE POP PUSH2 0x2BE5 JUMP JUMPDEST PUSH1 0x1F NOT DUP5 AND PUSH2 0x2B93 DUP7 PUSH2 0x296F JUMP JUMPDEST PUSH1 0x0 JUMPDEST DUP3 DUP2 LT ISZERO PUSH2 0x2BBB JUMPI DUP5 DUP10 ADD MLOAD DUP3 SSTORE PUSH1 0x1 DUP3 ADD SWAP2 POP PUSH1 0x20 DUP6 ADD SWAP5 POP PUSH1 0x20 DUP2 ADD SWAP1 POP PUSH2 0x2B96 JUMP JUMPDEST DUP7 DUP4 LT ISZERO PUSH2 0x2BD8 JUMPI DUP5 DUP10 ADD MLOAD PUSH2 0x2BD4 PUSH1 0x1F DUP10 AND DUP3 PUSH2 0x2AE1 JUMP JUMPDEST DUP4 SSTORE POP JUMPDEST PUSH1 0x1 PUSH1 0x2 DUP9 MUL ADD DUP9 SSTORE POP POP POP JUMPDEST POP POP POP POP POP POP JUMP JUMPDEST PUSH32 0x4552433732313A20617070726F766520746F2063616C6C657200000000000000 PUSH1 0x0 DUP3 ADD MSTORE POP JUMP JUMPDEST PUSH1 0x0 PUSH2 0x2C23 PUSH1 0x19 DUP4 PUSH2 0x1E8D JUMP JUMPDEST SWAP2 POP PUSH2 0x2C2E DUP3 PUSH2 0x2BED JUMP JUMPDEST PUSH1 0x20 DUP3 ADD SWAP1 POP SWAP2 SWAP1 POP JUMP JUMPDEST PUSH1 0x0 PUSH1 0x20 DUP3 ADD SWAP1 POP DUP2 DUP2 SUB PUSH1 0x0 DUP4 ADD MSTORE PUSH2 0x2C52 DUP2 PUSH2 0x2C16 JUMP JUMPDEST SWAP1 POP SWAP2 SWAP1 POP JUMP JUMPDEST PUSH32 0x4552433732313A207472616E7366657220746F206E6F6E204552433732315265 PUSH1 0x0 DUP3 ADD MSTORE PUSH32 0x63656976657220696D706C656D656E7465720000000000000000000000000000 PUSH1 0x20 DUP3 ADD MSTORE POP JUMP JUMPDEST PUSH1 0x0 PUSH2 0x2CB5 PUSH1 0x32 DUP4 PUSH2 0x1E8D JUMP JUMPDEST SWAP2 POP PUSH2 0x2CC0 DUP3 PUSH2 0x2C59 JUMP JUMPDEST PUSH1 0x40 DUP3 ADD SWAP1 POP SWAP2 SWAP1 POP JUMP JUMPDEST PUSH1 0x0 PUSH1 0x20 DUP3 ADD SWAP1 POP DUP2 DUP2 SUB PUSH1 0x0 DUP4 ADD MSTORE PUSH2 0x2CE4 DUP2 PUSH2 0x2CA8 JUMP JUMPDEST SWAP1 POP SWAP2 SWAP1 POP JUMP JUMPDEST PUSH32 0x43616E6E6F74207472616E7366657220746F2073656C66000000000000000000 PUSH1 0x0 DUP3 ADD MSTORE POP JUMP JUMPDEST PUSH1 0x0 PUSH2 0x2D21 PUSH1 0x17 DUP4 PUSH2 0x1E8D JUMP JUMPDEST SWAP2 POP PUSH2 0x2D2C DUP3 PUSH2 0x2CEB JUMP JUMPDEST PUSH1 0x20 DUP3 ADD SWAP1 POP SWAP2 SWAP1 POP JUMP JUMPDEST PUSH1 0x0 PUSH1 0x20 DUP3 ADD SWAP1 POP DUP2 DUP2 SUB PUSH1 0x0 DUP4 ADD MSTORE PUSH2 0x2D50 DUP2 PUSH2 0x2D14 JUMP JUMPDEST SWAP1 POP SWAP2 SWAP1 POP JUMP JUMPDEST PUSH1 0x0 DUP2 MLOAD SWAP1 POP SWAP2 SWAP1 POP JUMP JUMPDEST PUSH1 0x0 DUP3 DUP3 MSTORE PUSH1 0x20 DUP3 ADD SWAP1 POP SWAP3 SWAP2 POP POP JUMP JUMPDEST PUSH1 0x0 PUSH2 0x2D7E DUP3 PUSH2 0x2D57 JUMP JUMPDEST PUSH2 0x2D88 DUP2 DUP6 PUSH2 0x2D62 JUMP JUMPDEST SWAP4 POP PUSH2 0x2D98 DUP2 DUP6 PUSH1 0x20 DUP7 ADD PUSH2 0x1E9E JUMP JUMPDEST PUSH2 0x2DA1 DUP2 PUSH2 0x1EC8 JUMP JUMPDEST DUP5 ADD SWAP2 POP POP SWAP3 SWAP2 POP POP JUMP JUMPDEST PUSH1 0x0 PUSH1 0x80 DUP3 ADD SWAP1 POP PUSH2 0x2DC1 PUSH1 0x0 DUP4 ADD DUP8 PUSH2 0x1FC9 JUMP JUMPDEST PUSH2 0x2DCE PUSH1 0x20 DUP4 ADD DUP7 PUSH2 0x1FC9 JUMP JUMPDEST PUSH2 0x2DDB PUSH1 0x40 DUP4 ADD DUP6 PUSH2 0x20DF JUMP JUMPDEST DUP2 DUP2 SUB PUSH1 0x60 DUP4 ADD MSTORE PUSH2 0x2DED DUP2 DUP5 PUSH2 0x2D73 JUMP JUMPDEST SWAP1 POP SWAP6 SWAP5 POP POP POP POP POP JUMP JUMPDEST PUSH1 0x0 DUP2 MLOAD SWAP1 POP PUSH2 0x2E07 DUP2 PUSH2 0x1DF3 JUMP JUMPDEST SWAP3 SWAP2 POP POP JUMP JUMPDEST PUSH1 0x0 PUSH1 0x20 DUP3 DUP5 SUB SLT ISZERO PUSH2 0x2E23 JUMPI PUSH2 0x2E22 PUSH2 0x1DBD JUMP JUMPDEST JUMPDEST PUSH1 0x0 PUSH2 0x2E31 DUP5 DUP3 DUP6 ADD PUSH2 0x2DF8 JUMP JUMPDEST SWAP2 POP POP SWAP3 SWAP2 POP POP JUMP JUMPDEST PUSH32 0x4E487B7100000000000000000000000000000000000000000000000000000000 PUSH1 0x0 MSTORE PUSH1 0x12 PUSH1 0x4 MSTORE PUSH1 0x24 PUSH1 0x0 REVERT JUMPDEST PUSH32 0x4552433732313A206D696E7420746F20746865207A65726F2061646472657373 PUSH1 0x0 DUP3 ADD MSTORE POP JUMP JUMPDEST PUSH1 0x0 PUSH2 0x2E9F PUSH1 0x20 DUP4 PUSH2 0x1E8D JUMP JUMPDEST SWAP2 POP PUSH2 0x2EAA DUP3 PUSH2 0x2E69 JUMP JUMPDEST PUSH1 0x20 DUP3 ADD SWAP1 POP SWAP2 SWAP1 POP JUMP JUMPDEST PUSH1 0x0 PUSH1 0x20 DUP3 ADD SWAP1 POP DUP2 DUP2 SUB PUSH1 0x0 DUP4 ADD MSTORE PUSH2 0x2ECE DUP2 PUSH2 0x2E92 JUMP JUMPDEST SWAP1 POP SWAP2 SWAP1 POP JUMP JUMPDEST PUSH32 0x4552433732313A20746F6B656E20616C7265616479206D696E74656400000000 PUSH1 0x0 DUP3 ADD MSTORE POP JUMP JUMPDEST PUSH1 0x0 PUSH2 0x2F0B PUSH1 0x1C DUP4 PUSH2 0x1E8D JUMP JUMPDEST SWAP2 POP PUSH2 0x2F16 DUP3 PUSH2 0x2ED5 JUMP JUMPDEST PUSH1 0x20 DUP3 ADD SWAP1 POP SWAP2 SWAP1 POP JUMP JUMPDEST PUSH1 0x0 PUSH1 0x20 DUP3 ADD SWAP1 POP DUP2 DUP2 SUB PUSH1 0x0 DUP4 ADD MSTORE PUSH2 0x2F3A DUP2 PUSH2 0x2EFE JUMP JUMPDEST SWAP1 POP SWAP2 SWAP1 POP JUMP INVALID PUSH9 0x747470733A2F2F6970 PUSH7 0x732E696F2F6970 PUSH7 0x732F516D59754B MSIZE CALLVALUE CALLDATALOAD COINBASE PUSH18 0x38374C654C315235646862316871484C7036 GAS CHAINID PUSH3 0x4A6143 POP CODESIZE PUSH11 0x78714B4D314D5836792F62 PUSH2 0x6265 0x5F PUSH19 0x7574685F312E6A736F6EA26469706673582212 KECCAK256 PUSH30 0x7DAB3D8B273F096A0BDF6D8B9BEF6BA3690482D5F317B2D5D39F82972CDE 0xA9 PUSH5 0x736F6C6343 STOP ADDMOD SGT STOP CALLER "
		},
		"gasEstimates": {
			"creation": {
				"codeDepositCost": "2447000",
				"executionCost": "infinite",
				"totalCost": "infinite"
			},
			"external": {
				"acceptOwnership()": "54585",
				"approve(address,uint256)": "infinite",
				"balanceOf(address)": "2899",
				"getApproved(uint256)": "5300",
				"isApprovedForAll(address,address)": "infinite",
				"mint(address)": "infinite",
				"name()": "infinite",
				"owner()": "2589",
				"ownerOf(uint256)": "3066",
				"safeTransferFrom(address,address,uint256)": "infinite",
				"safeTransferFrom(address,address,uint256,bytes)": "infinite",
				"setApprovalForAll(address,bool)": "infinite",
				"supportsInterface(bytes4)": "892",
				"symbol()": "infinite",
				"tokenURI(uint256)": "infinite",
				"transferFrom(address,address,uint256)": "infinite",
				"transferOwnership(address)": "30770"
			}
		},
		"methodIdentifiers": {
			"acceptOwnership()": "79ba5097",
			"approve(address,uint256)": "095ea7b3",
			"balanceOf(address)": "70a08231",
			"getApproved(uint256)": "081812fc",
			"isApprovedForAll(address,address)": "e985e9c5",
			"mint(address)": "6a627842",
			"name()": "06fdde03",
			"owner()": "8da5cb5b",
			"ownerOf(uint256)": "6352211e",
			"safeTransferFrom(address,address,uint256)": "42842e0e",
			"safeTransferFrom(address,address,uint256,bytes)": "b88d4fde",
			"setApprovalForAll(address,bool)": "a22cb465",
			"supportsInterface(bytes4)": "01ffc9a7",
			"symbol()": "95d89b41",
			"tokenURI(uint256)": "c87b56dd",
			"transferFrom(address,address,uint256)": "23b872dd",
			"transferOwnership(address)": "f2fde38b"
		}
	},
	"abi": [
		{
			"inputs": [],
			"stateMutability": "nonpayable",
			"type": "constructor"
		},
		{
			"anonymous": false,
			"inputs": [
				{
					"indexed": true,
					"internalType": "address",
					"name": "owner",
					"type": "address"
				},
				{
					"indexed": true,
					"internalType": "address",
					"name": "approved",
					"type": "address"
				},
				{
					"indexed": true,
					"internalType": "uint256",
					"name": "tokenId",
					"type": "uint256"
				}
			],
			"name": "Approval",
			"type": "event"
		},
		{
			"anonymous": false,
			"inputs": [
				{
					"indexed": true,
					"internalType": "address",
					"name": "owner",
					"type": "address"
				},
				{
					"indexed": true,
					"internalType": "address",
					"name": "operator",
					"type": "address"
				},
				{
					"indexed": false,
					"internalType": "bool",
					"name": "approved",
					"type": "bool"
				}
			],
			"name": "ApprovalForAll",
			"type": "event"
		},
		{
			"anonymous": false,
			"inputs": [
				{
					"indexed": false,
					"internalType": "uint256",
					"name": "_fromTokenId",
					"type": "uint256"
				},
				{
					"indexed": false,
					"internalType": "uint256",
					"name": "_toTokenId",
					"type": "uint256"
				}
			],
			"name": "BatchMetadataUpdate",
			"type": "event"
		},
		{
			"anonymous": false,
			"inputs": [
				{
					"indexed": false,
					"internalType": "uint256",
					"name": "_tokenId",
					"type": "uint256"
				}
			],
			"name": "MetadataUpdate",
			"type": "event"
		},
		{
			"anonymous": false,
			"inputs": [
				{
					"indexed": true,
					"internalType": "address",
					"name": "from",
					"type": "address"
				},
				{
					"indexed": true,
					"internalType": "address",
					"name": "to",
					"type": "address"
				}
			],
			"name": "OwnershipTransferRequested",
			"type": "event"
		},
		{
			"anonymous": false,
			"inputs": [
				{
					"indexed": true,
					"internalType": "address",
					"name": "from",
					"type": "address"
				},
				{
					"indexed": true,
					"internalType": "address",
					"name": "to",
					"type": "address"
				}
			],
			"name": "OwnershipTransferred",
			"type": "event"
		},
		{
			"anonymous": false,
			"inputs": [
				{
					"indexed": true,
					"internalType": "address",
					"name": "from",
					"type": "address"
				},
				{
					"indexed": true,
					"internalType": "address",
					"name": "to",
					"type": "address"
				},
				{
					"indexed": true,
					"internalType": "uint256",
					"name": "tokenId",
					"type": "uint256"
				}
			],
			"name": "Transfer",
			"type": "event"
		},
		{
			"inputs": [],
			"name": "acceptOwnership",
			"outputs": [],
			"stateMutability": "nonpayable",
			"type": "function"
		},
		{
			"inputs": [
				{
					"internalType": "address",
					"name": "to",
					"type": "address"
				},
				{
					"internalType": "uint256",
					"name": "tokenId",
					"type": "uint256"
				}
			],
			"name": "approve",
			"outputs": [],
			"stateMutability": "nonpayable",
			"type": "function"
		},
		{
			"inputs": [
				{
					"internalType": "address",
					"name": "owner",
					"type": "address"
				}
			],
			"name": "balanceOf",
			"outputs": [
				{
					"internalType": "uint256",
					"name": "",
					"type": "uint256"
				}
			],
			"stateMutability": "view",
			"type": "function"
		},
		{
			"inputs": [
				{
					"internalType": "uint256",
					"name": "tokenId",
					"type": "uint256"
				}
			],
			"name": "getApproved",
			"outputs": [
				{
					"internalType": "address",
					"name": "",
					"type": "address"
				}
			],
			"stateMutability": "view",
			"type": "function"
		},
		{
			"inputs": [
				{
					"internalType": "address",
					"name": "owner",
					"type": "address"
				},
				{
					"internalType": "address",
					"name": "operator",
					"type": "address"
				}
			],
			"name": "isApprovedForAll",
			"outputs": [
				{
					"internalType": "bool",
					"name": "",
					"type": "bool"
				}
			],
			"stateMutability": "view",
			"type": "function"
		},
		{
			"inputs": [
				{
					"internalType": "address",
					"name": "to",
					"type": "address"
				}
			],
			"name": "mint",
			"outputs": [],
			"stateMutability": "nonpayable",
			"type": "function"
		},
		{
			"inputs": [],
			"name": "name",
			"outputs": [
				{
					"internalType": "string",
					"name": "",
					"type": "string"
				}
			],
			"stateMutability": "view",
			"type": "function"
		},
		{
			"inputs": [],
			"name": "owner",
			"outputs": [
				{
					"internalType": "address",
					"name": "",
					"type": "address"
				}
			],
			"stateMutability": "view",
			"type": "function"
		},
		{
			"inputs": [
				{
					"internalType": "uint256",
					"name": "tokenId",
					"type": "uint256"
				}
			],
			"name": "ownerOf",
			"outputs": [
				{
					"internalType": "address",
					"name": "",
					"type": "address"
				}
			],
			"stateMutability": "view",
			"type": "function"
		},
		{
			"inputs": [
				{
					"internalType": "address",
					"name": "from",
					"type": "address"
				},
				{
					"internalType": "address",
					"name": "to",
					"type": "address"
				},
				{
					"internalType": "uint256",
					"name": "tokenId",
					"type": "uint256"
				}
			],
			"name": "safeTransferFrom",
			"outputs": [],
			"stateMutability": "nonpayable",
			"type": "function"
		},
		{
			"inputs": [
				{
					"internalType": "address",
					"name": "from",
					"type": "address"
				},
				{
					"internalType": "address",
					"name": "to",
					"type": "address"
				},
				{
					"internalType": "uint256",
					"name": "tokenId",
					"type": "uint256"
				},
				{
					"internalType": "bytes",
					"name": "data",
					"type": "bytes"
				}
			],
			"name": "safeTransferFrom",
			"outputs": [],
			"stateMutability": "nonpayable",
			"type": "function"
		},
		{
			"inputs": [
				{
					"internalType": "address",
					"name": "operator",
					"type": "address"
				},
				{
					"internalType": "bool",
					"name": "approved",
					"type": "bool"
				}
			],
			"name": "setApprovalForAll",
			"outputs": [],
			"stateMutability": "nonpayable",
			"type": "function"
		},
		{
			"inputs": [
				{
					"internalType": "bytes4",
					"name": "interfaceId",
					"type": "bytes4"
				}
			],
			"name": "supportsInterface",
			"outputs": [
				{
					"internalType": "bool",
					"name": "",
					"type": "bool"
				}
			],
			"stateMutability": "view",
			"type": "function"
		},
		{
			"inputs": [],
			"name": "symbol",
			"outputs": [
				{
					"internalType": "string",
					"name": "",
					"type": "string"
				}
			],
			"stateMutability": "view",
			"type": "function"
		},
		{
			"inputs": [
				{
					"internalType": "uint256",
					"name": "tokenId",
					"type": "uint256"
				}
			],
			"name": "tokenURI",
			"outputs": [
				{
					"internalType": "string",
					"name": "",
					"type": "string"
				}
			],
			"stateMutability": "view",
			"type": "function"
		},
		{
			"inputs": [
				{
					"internalType": "address",
					"name": "from",
					"type": "address"
				},
				{
					"internalType": "address",
					"name": "to",
					"type": "address"
				},
				{
					"internalType": "uint256",
					"name": "tokenId",
					"type": "uint256"
				}
			],
			"name": "transferFrom",
			"outputs": [],
			"stateMutability": "nonpayable",
			"type": "function"
		},
		{
			"inputs": [
				{
					"internalType": "address",
					"name": "to",
					"type": "address"
				}
			],
			"name": "transferOwnership",
			"outputs": [],
			"stateMutability": "nonpayable",
			"type": "function"
		}
	]
}